{
  "contractName": "BancorFormula",
  "abi": [
    {
      "constant": true,
      "inputs": [],
      "name": "version",
      "outputs": [
        {
          "name": "",
          "type": "string"
        }
      ],
      "payable": false,
      "stateMutability": "view",
      "type": "function"
    },
    {
      "constant": true,
      "inputs": [
        {
          "name": "_supply",
          "type": "uint256"
        },
        {
          "name": "_connectorBalance",
          "type": "uint256"
        },
        {
          "name": "_connectorWeight",
          "type": "uint32"
        },
        {
          "name": "_depositAmount",
          "type": "uint256"
        }
      ],
      "name": "calculatePurchaseReturn",
      "outputs": [
        {
          "name": "",
          "type": "uint256"
        }
      ],
      "payable": false,
      "stateMutability": "view",
      "type": "function"
    },
    {
      "constant": true,
      "inputs": [
        {
          "name": "_supply",
          "type": "uint256"
        },
        {
          "name": "_connectorBalance",
          "type": "uint256"
        },
        {
          "name": "_connectorWeight",
          "type": "uint32"
        },
        {
          "name": "_sellAmount",
          "type": "uint256"
        }
      ],
      "name": "calculateSaleReturn",
      "outputs": [
        {
          "name": "",
          "type": "uint256"
        }
      ],
      "payable": false,
      "stateMutability": "view",
      "type": "function"
    }
  ],
  "bytecode": "0x60806040526040518060400160405280600381526020017f302e330000000000000000000000000000000000000000000000000000000000815250600090805190602001906200005192919062000ed6565b506040518060400160405280600381526020017f302e330000000000000000000000000000000000000000000000000000000000815250608190805190602001906200009f92919062000ed6565b50701c35fedd14ffffffffffffffffffffffff6001602060808110620000c157fe5b0181905550701b0ce43b323fffffffffffffffffffffff6001602160808110620000e757fe5b01819055507019f0028ec1ffffffffffffffffffffffff60016022608081106200010d57fe5b01819055507018ded91f0e7fffffffffffffffffffffff60016023608081106200013357fe5b01819055507017d8ec7f0417ffffffffffffffffffffff60016024608081106200015957fe5b01819055507016ddc6556cdbffffffffffffffffffffff60016025608081106200017f57fe5b01819055507015ecf52776a1ffffffffffffffffffffff6001602660808110620001a557fe5b01819055507015060c256cb2ffffffffffffffffffffff6001602760808110620001cb57fe5b0181905550701428a2f98d72ffffffffffffffffffffff6001602860808110620001f157fe5b01819055507013545598e5c23fffffffffffffffffffff60016029608081106200021757fe5b0181905550701288c4161ce1dfffffffffffffffffffff6001602a608081106200023d57fe5b01819055507011c592761c666fffffffffffffffffffff6001602b608081106200026357fe5b018190555070110a688680a757ffffffffffffffffffff6001602c608081106200028957fe5b0181905550701056f1b5bedf77ffffffffffffffffffff6001602d60808110620002af57fe5b0181905550700faadceceeff8bffffffffffffffffffff6001602e60808110620002d557fe5b0181905550700f05dc6b27edadffffffffffffffffffff6001602f60808110620002fb57fe5b0181905550700e67a5a25da4107fffffffffffffffffff60016030608081106200032157fe5b0181905550700dcff115b14eedffffffffffffffffffff60016031608081106200034757fe5b0181905550700d3e7a392431239fffffffffffffffffff60016032608081106200036d57fe5b0181905550700cb2ff529eb71e4fffffffffffffffffff60016033608081106200039357fe5b0181905550700c2d415c3db974afffffffffffffffffff6001603460808110620003b957fe5b0181905550700bad03e7d883f69bffffffffffffffffff6001603560808110620003df57fe5b0181905550700b320d03b2c343d5ffffffffffffffffff60016036608081106200040557fe5b0181905550700abc25204e02828dffffffffffffffffff60016037608081106200042b57fe5b0181905550700a4b16f74ee4bb207fffffffffffffffff60016038608081106200045157fe5b01819055507009deaf736ac1f569ffffffffffffffffff60016039608081106200047757fe5b0181905550700976bd9952c7aa957fffffffffffffffff6001603a608081106200049d57fe5b01819055507009131271922eaa606fffffffffffffffff6001603b60808110620004c357fe5b01819055507008b380f3558668c46fffffffffffffffff6001603c60808110620004e957fe5b0181905550700857ddf0117efa215bffffffffffffffff6001603d608081106200050f57fe5b01819055507007ffffffffffffffffffffffffffffffff6001603e608081106200053557fe5b01819055507007abbf6f6abb9d087fffffffffffffffff6001603f608081106200055b57fe5b018190555070075af62cbac95f7dfa7fffffffffffffff60016040608081106200058157fe5b018190555070070d7fb7452e187ac13fffffffffffffff6001604160808110620005a757fe5b01819055507006c3390ecc8af379295fffffffffffffff6001604260808110620005cd57fe5b018190555070067c00a3b07ffc01fd6fffffffffffffff6001604360808110620005f357fe5b0181905550700637b647c39cbb9d3d27ffffffffffffff60016044608081106200061957fe5b01819055507005f63b1fc104dbd39587ffffffffffffff60016045608081106200063f57fe5b01819055507005b771955b36e12f7235ffffffffffffff60016046608081106200066557fe5b018190555070057b3d49dda84556d6f6ffffffffffffff60016047608081106200068b57fe5b018190555070054183095b2c8ececf30ffffffffffffff6001604860808110620006b157fe5b018190555070050a28be635ca2b888f77fffffffffffff6001604960808110620006d757fe5b01819055507004d5156639708c9db33c3fffffffffffff6001604a60808110620006fd57fe5b01819055507004a23105873875bd52dfdfffffffffffff6001604b608081106200072357fe5b0181905550700471649d87199aa990756fffffffffffff6001604c608081106200074957fe5b01819055507004429a21a029d4c1457cfbffffffffffff6001604d608081106200076f57fe5b0181905550700415bc6d6fb7dd71af2cb3ffffffffffff6001604e608081106200079557fe5b01819055507003eab73b3bbfe282243ce1ffffffffffff6001604f60808110620007bb57fe5b01819055507003c1771ac9fb6b4c18e229ffffffffffff6001605060808110620007e157fe5b0181905550700399e96897690418f785257fffffffffff60016051608081106200080757fe5b0181905550700373fc456c53bb779bf0ea9fffffffffff60016052608081106200082d57fe5b018190555070034f9e8e490c48e67e6ab8bfffffffffff60016053608081106200085357fe5b018190555070032cbfd4a7adc790560b3337ffffffffff60016054608081106200087957fe5b018190555070030b50570f6e5d2acca94613ffffffffff60016055608081106200089f57fe5b01819055507002eb40f9f620fda6b56c2861ffffffffff6001605660808110620008c557fe5b01819055507002cc8340ecb0d0f520a6af58ffffffffff6001605760808110620008eb57fe5b01819055507002af09481380a0a35cf1ba02ffffffffff60016058608081106200091157fe5b0181905550700292c5bdd3b92ec810287b1b3fffffffff60016059608081106200093757fe5b0181905550700277abdcdab07d5a77ac6d6b9fffffffff6001605a608081106200095d57fe5b018190555070025daf6654b1eaa55fd64df5efffffffff6001605b608081106200098357fe5b0181905550700244c49c648baa98192dce88b7ffffffff6001605c60808110620009a957fe5b018190555070022ce03cd5619a311b2471268bffffffff6001605d60808110620009cf57fe5b0181905550700215f77c045fbe885654a44a0fffffffff6001605e60808110620009f557fe5b01819055507001ffffffffffffffffffffffffffffffff6001605f6080811062000a1b57fe5b01819055507001eaefdbdaaee7421fc4d3ede5ffffffff600160606080811062000a4157fe5b01819055507001d6bd8b2eb257df7e8ca57b09bfffffff600160616080811062000a6757fe5b01819055507001c35fedd14b861eb0443f7f133fffffff600160626080811062000a8d57fe5b01819055507001b0ce43b322bcde4a56e8ada5afffffff600160636080811062000ab357fe5b018190555070019f0028ec1fff007f5a195a39dfffffff600160646080811062000ad957fe5b018190555070018ded91f0e72ee74f49b15ba527ffffff600160656080811062000aff57fe5b018190555070017d8ec7f04136f4e5615fd41a63ffffff600160666080811062000b2557fe5b018190555070016ddc6556cdb84bdc8d12d22e6fffffff600160676080811062000b4b57fe5b018190555070015ecf52776a1155b5bd8395814f7fffff600160686080811062000b7157fe5b018190555070015060c256cb23b3b3cc3754cf40ffffff600160696080811062000b9757fe5b01819055507001428a2f98d728ae223ddab715be3fffff6001606a6080811062000bbd57fe5b018190555070013545598e5c23276ccf0ede68034fffff6001606b6080811062000be357fe5b01819055507001288c4161ce1d6f54b7f61081194fffff6001606c6080811062000c0957fe5b018190555070011c592761c666aa641d5a01a40f17ffff6001606d6080811062000c2f57fe5b0181905550700110a688680a7530515f3e6e6cfdcdffff6001606e6080811062000c5557fe5b01819055507001056f1b5bedf75c6bcb2ce8aed428ffff6001606f6080811062000c7b57fe5b01819055506ffaadceceeff8a0890f3875f008277fff600160706080811062000ca057fe5b01819055506ff05dc6b27edad306388a600f6ba0bfff600160716080811062000cc557fe5b01819055506fe67a5a25da41063de1495d5b18cdbfff600160726080811062000cea57fe5b01819055506fdcff115b14eedde6fc3aa5353f2e4fff600160736080811062000d0f57fe5b01819055506fd3e7a3924312399f9aae2e0f868f8fff600160746080811062000d3457fe5b01819055506fcb2ff529eb71e41582cccd5a1ee26fff600160756080811062000d5957fe5b01819055506fc2d415c3db974ab32a51840c0b67edff600160766080811062000d7e57fe5b01819055506fbad03e7d883f69ad5b0a186184e06bff600160776080811062000da357fe5b01819055506fb320d03b2c343d4829abd6075f0cc5ff600160786080811062000dc857fe5b01819055506fabc25204e02828d73c6e80bcdb1a95bf600160796080811062000ded57fe5b01819055506fa4b16f74ee4bb2040a1ec6c15fbbf2df6001607a6080811062000e1257fe5b01819055506f9deaf736ac1f569deb1b5ae3f36c130f6001607b6080811062000e3757fe5b01819055506f976bd9952c7aa957f5937d790ef650376001607c6080811062000e5c57fe5b01819055506f9131271922eaa6064b73a22d0bd4f2bf6001607d6080811062000e8157fe5b01819055506f8b380f3558668c46c91c49a2f8e967b96001607e6080811062000ea657fe5b01819055506f857ddf0117efa215952912839f6473e66001607f6080811062000ecb57fe5b018190555062000f85565b828054600181600116156101000203166002900490600052602060002090601f016020900481019282601f1062000f1957805160ff191683800117855562000f4a565b8280016001018555821562000f4a579182015b8281111562000f4957825182559160200191906001019062000f2c565b5b50905062000f59919062000f5d565b5090565b62000f8291905b8082111562000f7e57600081600090555060010162000f64565b5090565b90565b610d4c8062000f956000396000f3fe608060405234801561001057600080fd5b50600436106100415760003560e01c806329a00e7c1461004657806349f9b0f7146100ac57806354fd4d5014610112575b600080fd5b6100966004803603608081101561005c57600080fd5b810190808035906020019092919080359060200190929190803563ffffffff16906020019092919080359060200190929190505050610195565b6040518082815260200191505060405180910390f35b6100fc600480360360808110156100c257600080fd5b810190808035906020019092919080359060200190929190803563ffffffff16906020019092919080359060200190929190505050610291565b6040518082815260200191505060405180910390f35b61011a6103c1565b6040518080602001828103825283818151815260200191508051906020019080838360005b8381101561015a57808201518184015260208101905061013f565b50505050905090810190601f1680156101875780820380516001836020036101000a031916815260200191505b509250505060405180910390f35b600080851180156101a65750600084115b80156101b8575060008363ffffffff16115b80156101d35750620f424063ffffffff168363ffffffff1611155b6101dc57600080fd5b60008214156101ee5760009050610289565b620f424063ffffffff168363ffffffff1614156102315761022a8461021c848861045f90919063ffffffff16565b6104e590919063ffffffff16565b9050610289565b6000806000610249878661057490919063ffffffff16565b905061025a818888620f42406105fc565b809350819450505060008260ff1661027b858b61045f90919063ffffffff16565b901c90508881039450505050505b949350505050565b600080851180156102a25750600084115b80156102b4575060008363ffffffff16115b80156102cf5750620f424063ffffffff168363ffffffff1611155b80156102db5750848211155b6102e457600080fd5b60008214156102f657600090506103b9565b84821415610306578390506103b9565b620f424063ffffffff168363ffffffff1614156103495761034285610334848761045f90919063ffffffff16565b6104e590919063ffffffff16565b90506103b9565b600080600084880390506103628882620f4240896105fc565b8093508194505050600061037f848961045f90919063ffffffff16565b905060008360ff1689901b90506103b1856103a3838561065490919063ffffffff16565b6104e590919063ffffffff16565b955050505050505b949350505050565b60818054600181600116156101000203166002900480601f0160208091040260200160405190810160405280929190818152602001828054600181600116156101000203166002900480156104575780601f1061042c57610100808354040283529160200191610457565b820191906000526020600020905b81548152906001019060200180831161043a57829003601f168201915b505050505081565b60008083141561047257600090506104df565b600082840290508284828161048357fe5b04146104da576040517f08c379a0000000000000000000000000000000000000000000000000000000008152600401808060200182810382526021815260200180610d006021913960400191505060405180910390fd5b809150505b92915050565b600080821161055c576040517f08c379a000000000000000000000000000000000000000000000000000000000815260040180806020018281038252601a8152602001807f536166654d6174683a206469766973696f6e206279207a65726f00000000000081525060200191505060405180910390fd5b600082848161056757fe5b0490508091505092915050565b6000808284019050838110156105f2576040517f08c379a000000000000000000000000000000000000000000000000000000000815260040180806020018281038252601b8152602001807f536166654d6174683a206164646974696f6e206f766572666c6f77000000000081525060200191505060405180910390fd5b8091505092915050565b60008060008363ffffffff168563ffffffff1661061989896106dd565b028161062157fe5b049050600061062f8261082a565b905061064481607f0360ff1683901c826108df565b8193509350505094509492505050565b6000828211156106cc576040517f08c379a000000000000000000000000000000000000000000000000000000000815260040180806020018281038252601e8152602001807f536166654d6174683a207375627472616374696f6e206f766572666c6f77000081525060200191505060405180910390fd5b600082840390508091505092915050565b60007001ffffffffffffffffffffffffffffffff8311156106fa57fe5b60008090506000836f8000000000000000000000000000000086028161071c57fe5b049050700100000000000000000000000000000000811061078057600061075b6f80000000000000000000000000000000838161075557fe5b04610c7d565b90508060ff1682901c91506f800000000000000000000000000000008160ff16029250505b6f80000000000000000000000000000000811115610806576000607f90505b60008160ff161115610804576f80000000000000000000000000000000828302816107c657fe5b04915070010000000000000000000000000000000082106107f857600182901c91506001810360ff166001901b830192505b8060019003905061079f565b505b607a60ff166f02c5c85fdf473de6af278ece600fcbda8302901c9250505092915050565b600080602090506000607f90505b8060ff166001830160ff161015610887576000600282840160ff168161085a57fe5b0490508460018260ff166080811061086e57fe5b01541061087d57809250610881565b8091505b50610838565b8360018260ff166080811061089857fe5b0154106108a95780925050506108da565b8360018360ff16608081106108ba57fe5b0154106108cb5781925050506108da565b60006108d357fe5b6000925050505b919050565b60008083905060008090508360ff16858302901c91506f03442c4e6074a82f1797f72ac00000008202810190508360ff16858302901c91506f0116b96f757c380fb287fd0e400000008202810190508360ff16858302901c91506e45ae5bdd5f0e03eca1ff43900000008202810190508360ff16858302901c91506e0defabf91302cd95b9ffda500000008202810190508360ff16858302901c91506e02529ca9832b22439efff9b80000008202810190508360ff16858302901c91506d54f1cf12bd04e516b6da880000008202810190508360ff16858302901c91506d0a9e39e257a09ca2d6db510000008202810190508360ff16858302901c91506d012e066e7b839fa050c3090000008202810190508360ff16858302901c91506c1e33d7d926c329a1ad1a8000008202810190508360ff16858302901c91506c02bee513bdb4a6b19b5f8000008202810190508360ff16858302901c91506b3a9316fa79b88eccf2a000008202810190508360ff16858302901c91506b048177ebe1fa8123752000008202810190508360ff16858302901c91506a5263fe90242dcbacf000008202810190508360ff16858302901c91506a057e22099c030d941000008202810190508360ff16858302901c91506957e22099c030d94100008202810190508360ff16858302901c915069052b6b545699763100008202810190508360ff16858302901c9150684985f67696bf7480008202810190508360ff16858302901c91506803dea12ea99e4980008202810190508360ff16858302901c91506731880f2214b6e0008202810190508360ff16858302901c915067025bcff56eb360008202810190508360ff16858302901c9150661b722e10ab10008202810190508360ff16858302901c91506601317c700770008202810190508360ff16858302901c9150650cba84aafa008202810190508360ff16858302901c91506482573a0a008202810190508360ff16858302901c91506405035ad9008202810190508360ff16858302901c9150632f881b008202810190508360ff16858302901c91506301b293408202810190508360ff16858302901c9150620efc408202810190508360ff16858302901c9150617fe08202810190508360ff16858302901c91506104208202810190508360ff16858302901c915060218202810190508360ff16858302901c915060018202810190508360ff166001901b856f0688589cc0e9505e2f2fee55800000008381610c7057fe5b0401019250505092915050565b600080600090506000839050610100811015610cb4575b6001811115610caf57600181901c9050600182019150610c94565b610cf5565b6000608090505b60008160ff161115610cf3578060ff166001901b8210610ce4578060ff1682901c915080831792505b60018160ff16901c9050610cbb565b505b819250505091905056fe536166654d6174683a206d756c7469706c69636174696f6e206f766572666c6f77a165627a7a72305820020a404e2faecffdf6617b0f16f42a968e37e03e205d78bc20513347167164800029",
  "source": "pragma solidity ^0.5.0;\nimport \"./Power.sol\";\nimport \"./SafeMath.sol\";\n\n/**\n * @title Bancor formula by Bancor\n * @dev Modified from the original by Slava Balasanov\n * https://github.com/bancorprotocol/contracts\n * Split Power.sol out from BancorFormula.sol and replace SafeMath formulas with zeppelin's SafeMath\n * Licensed to the Apache Software Foundation (ASF) under one or more contributor license agreements;\n * and to You under the Apache License, Version 2.0. \"\n */\ncontract BancorFormula is Power {\n  using SafeMath for uint256;\n\n  string public version = \"0.3\";\n  uint32 private constant MAX_WEIGHT = 1000000;\n\n  /**\n   * @dev given a token supply, connector balance, weight and a deposit amount (in the connector token),\n   * calculates the return for a given conversion (in the main token)\n   *\n   * Formula:\n   * Return = _supply * ((1 + _depositAmount / _connectorBalance) ^ (_connectorWeight / 1000000) - 1)\n   *\n   * @param _supply              token total supply\n   * @param _connectorBalance    total connector balance\n   * @param _connectorWeight     connector weight, represented in ppm, 1-1000000\n   * @param _depositAmount       deposit amount, in connector token\n   *\n   *  @return purchase return amount\n  */\n  function calculatePurchaseReturn(\n    uint256 _supply,\n    uint256 _connectorBalance,\n    uint32 _connectorWeight,\n    uint256 _depositAmount) public view returns (uint256)\n  {\n    // validate input\n    require(_supply > 0 && _connectorBalance > 0 && _connectorWeight > 0 && _connectorWeight <= MAX_WEIGHT);\n\n    // special case for 0 deposit amount\n    if (_depositAmount == 0) {\n      return 0;\n    }\n\n    // special case if the weight = 100%\n    if (_connectorWeight == MAX_WEIGHT) {\n      return _supply.mul(_depositAmount).div(_connectorBalance);\n    }\n\n    uint256 result;\n    uint8 precision;\n    uint256 baseN = _depositAmount.add(_connectorBalance);\n    (result, precision) = power(baseN, _connectorBalance, _connectorWeight, MAX_WEIGHT);\n    uint256 temp = _supply.mul(result) >> precision;\n    return temp - _supply;\n  }\n\n  /**\n   * @dev given a token supply, connector balance, weight and a sell amount (in the main token),\n   * calculates the return for a given conversion (in the connector token)\n   *\n   * Formula:\n   * Return = _connectorBalance * (1 - (1 - _sellAmount / _supply) ^ (1 / (_connectorWeight / 1000000)))\n   *\n   * @param _supply              token total supply\n   * @param _connectorBalance    total connector\n   * @param _connectorWeight     constant connector Weight, represented in ppm, 1-1000000\n   * @param _sellAmount          sell amount, in the token itself\n   *\n   * @return sale return amount\n  */\n  function calculateSaleReturn(uint256 _supply, uint256 _connectorBalance, uint32 _connectorWeight, uint256 _sellAmount) public view returns (uint256) {\n    // validate input\n    require(_supply > 0 && _connectorBalance > 0 && _connectorWeight > 0 && _connectorWeight <= MAX_WEIGHT && _sellAmount <= _supply);\n\n    // special case for 0 sell amount\n    if (_sellAmount == 0) {\n      return 0;\n    }\n\n    // special case for selling the entire supply\n    if (_sellAmount == _supply) {\n      return _connectorBalance;\n    }\n\n    // special case if the weight = 100%\n    if (_connectorWeight == MAX_WEIGHT) {\n      return _connectorBalance.mul(_sellAmount).div(_supply);\n    }\n\n    uint256 result;\n    uint8 precision;\n    uint256 baseD = _supply - _sellAmount;\n    (result, precision) = power(_supply, baseD, MAX_WEIGHT, _connectorWeight);\n    uint256 oldBalance = _connectorBalance.mul(result);\n    uint256 newBalance = _connectorBalance << precision;\n    return oldBalance.sub(newBalance).div(result);\n  }\n}\n",
  "sourcePath": "/home/zmg/Scratch/gz/GoalZappTruffle/contracts/BancorFormula.sol",
  "compiler": {
    "name": "solc",
    "version": "0.5.8+commit.23d335f2.Emscripten.clang"
  },
  "schemaVersion": "3.0.16",
  "updatedAt": "2019-09-18T20:04:07.170Z",
  "devdoc": {
    "details": "Modified from the original by Slava Balasanov https://github.com/bancorprotocol/contracts Split Power.sol out from BancorFormula.sol and replace SafeMath formulas with zeppelin's SafeMath Licensed to the Apache Software Foundation (ASF) under one or more contributor license agreements; and to You under the Apache License, Version 2.0. \"",
    "methods": {
      "calculatePurchaseReturn(uint256,uint256,uint32,uint256)": {
        "details": "given a token supply, connector balance, weight and a deposit amount (in the connector token), calculates the return for a given conversion (in the main token)   * Formula: Return = _supply * ((1 + _depositAmount / _connectorBalance) ^ (_connectorWeight / 1000000) - 1)",
        "params": {
          "_connectorBalance": "total connector balance",
          "_connectorWeight": "connector weight, represented in ppm, 1-1000000",
          "_depositAmount": "deposit amount, in connector token",
          "_supply": "token total supply"
        },
        "return": "purchase return amount"
      },
      "calculateSaleReturn(uint256,uint256,uint32,uint256)": {
        "details": "given a token supply, connector balance, weight and a sell amount (in the main token), calculates the return for a given conversion (in the connector token)   * Formula: Return = _connectorBalance * (1 - (1 - _sellAmount / _supply) ^ (1 / (_connectorWeight / 1000000)))",
        "params": {
          "_connectorBalance": "total connector",
          "_connectorWeight": "constant connector Weight, represented in ppm, 1-1000000",
          "_sellAmount": "sell amount, in the token itself",
          "_supply": "token total supply"
        },
        "return": "sale return amount"
      }
    },
    "title": "Bancor formula by Bancor"
  },
  "userdoc": {
    "methods": {}
  }
}