{
  "contractName": "EscrowRole",
  "abi": [
    {
      "anonymous": false,
      "inputs": [
        {
          "indexed": true,
          "name": "account",
          "type": "address"
        }
      ],
      "name": "EscrowRoleAdded",
      "type": "event"
    },
    {
      "constant": true,
      "inputs": [
        {
          "name": "account",
          "type": "address"
        }
      ],
      "name": "isEscrow",
      "outputs": [
        {
          "name": "",
          "type": "bool"
        }
      ],
      "payable": false,
      "stateMutability": "view",
      "type": "function"
    },
    {
      "constant": false,
      "inputs": [
        {
          "name": "account",
          "type": "address"
        }
      ],
      "name": "_addEscrowRole",
      "outputs": [],
      "payable": false,
      "stateMutability": "nonpayable",
      "type": "function"
    }
  ],
  "bytecode": "0x60806040526103f5806100136000396000f3fe608060405234801561001057600080fd5b50600436106100365760003560e01c80635add51861461003b578063b166a09f1461007f575b600080fd5b61007d6004803603602081101561005157600080fd5b81019080803573ffffffffffffffffffffffffffffffffffffffff1690602001909291905050506100db565b005b6100c16004803603602081101561009557600080fd5b81019080803573ffffffffffffffffffffffffffffffffffffffff1690602001909291905050506101d1565b604051808215151515815260200191505060405180910390f35b6000809054906101000a900460ff161561015d576040517f08c379a00000000000000000000000000000000000000000000000000000000081526004018080602001828103825260178152602001807f457363726f7720726f6c6520616c72656164792073657400000000000000000081525060200191505060405180910390fd5b6101718160016101ee90919063ffffffff16565b8073ffffffffffffffffffffffffffffffffffffffff167fcff6116c063f9dc68129fcb58fcfe99bbbaa33d9ad777e285d7f08bf174d715260405160405180910390a260016000806101000a81548160ff02191690831515021790555050565b60006101e78260016102c990919063ffffffff16565b9050919050565b6101f882826102c9565b1561026b576040517f08c379a000000000000000000000000000000000000000000000000000000000815260040180806020018281038252601f8152602001807f526f6c65733a206163636f756e7420616c72656164792068617320726f6c650081525060200191505060405180910390fd5b60018260000160008373ffffffffffffffffffffffffffffffffffffffff1673ffffffffffffffffffffffffffffffffffffffff16815260200190815260200160002060006101000a81548160ff0219169083151502179055505050565b60008073ffffffffffffffffffffffffffffffffffffffff168273ffffffffffffffffffffffffffffffffffffffff161415610350576040517f08c379a00000000000000000000000000000000000000000000000000000000081526004018080602001828103825260228152602001806103a86022913960400191505060405180910390fd5b8260000160008373ffffffffffffffffffffffffffffffffffffffff1673ffffffffffffffffffffffffffffffffffffffff16815260200190815260200160002060009054906101000a900460ff1690509291505056fe526f6c65733a206163636f756e7420697320746865207a65726f2061646472657373a165627a7a723058200dfa0bed0d01b987adc85333bd0922c018cac750d4781ba951830b0f08e07b290029",
  "source": "pragma solidity ^0.5.0;\n\nimport \"./Context.sol\";\nimport \"./Roles.sol\";\n\ncontract EscrowRole is Context {\n    using Roles for Roles.Role;\n    bool isSet;\n    event EscrowRoleAdded(address indexed account);\n\n    Roles.Role private _escrow;\n\n    modifier onlyEscrowRole() {\n        require(isEscrow(_msgSender()), \"Escrow Role: caller does not have the Escrow role\");\n        _;\n    }\n   \n    modifier notSet() {\n      require(!isSet, \"Escrow role already set\");\n      _;\n    }\n\n    function isEscrow(address account) public view returns (bool) {\n        return _escrow.has(account);\n    }\n\n    function _addEscrowRole(address account) external notSet {\n        _escrow.add(account);\n        emit EscrowRoleAdded(account);\n        isSet = true;\n    }\n}\n",
  "sourcePath": "/home/zmg/Scratch/gz/GoalZappTruffle/contracts/EscrowRole.sol",
  "compiler": {
    "name": "solc",
    "version": "0.5.8+commit.23d335f2.Emscripten.clang"
  },
  "schemaVersion": "3.0.15",
  "updatedAt": "2019-09-12T01:28:43.747Z",
  "devdoc": {
    "methods": {}
  },
  "userdoc": {
    "methods": {}
  }
}