{
  "contractName": "GoalEscrow",
  "abi": [
    {
      "constant": true,
      "inputs": [],
      "name": "goalOwner",
      "outputs": [
        {
          "name": "",
          "type": "address"
        }
      ],
      "payable": false,
      "stateMutability": "view",
      "type": "function"
    },
    {
      "constant": true,
      "inputs": [],
      "name": "ownerBondAmount",
      "outputs": [
        {
          "name": "",
          "type": "uint256"
        }
      ],
      "payable": false,
      "stateMutability": "view",
      "type": "function"
    },
    {
      "constant": false,
      "inputs": [
        {
          "name": "account",
          "type": "address"
        }
      ],
      "name": "_addEscrowRole",
      "outputs": [],
      "payable": false,
      "stateMutability": "nonpayable",
      "type": "function"
    },
    {
      "constant": true,
      "inputs": [
        {
          "name": "account",
          "type": "address"
        }
      ],
      "name": "isAionAddress",
      "outputs": [
        {
          "name": "",
          "type": "bool"
        }
      ],
      "payable": false,
      "stateMutability": "view",
      "type": "function"
    },
    {
      "constant": true,
      "inputs": [],
      "name": "suggestionDuration",
      "outputs": [
        {
          "name": "",
          "type": "uint256"
        }
      ],
      "payable": false,
      "stateMutability": "view",
      "type": "function"
    },
    {
      "constant": true,
      "inputs": [
        {
          "name": "account",
          "type": "address"
        }
      ],
      "name": "isEscrow",
      "outputs": [
        {
          "name": "",
          "type": "bool"
        }
      ],
      "payable": false,
      "stateMutability": "view",
      "type": "function"
    },
    {
      "constant": true,
      "inputs": [],
      "name": "rewardFunds",
      "outputs": [
        {
          "name": "",
          "type": "uint256"
        }
      ],
      "payable": false,
      "stateMutability": "view",
      "type": "function"
    },
    {
      "constant": true,
      "inputs": [],
      "name": "bondFunds",
      "outputs": [
        {
          "name": "",
          "type": "uint256"
        }
      ],
      "payable": false,
      "stateMutability": "view",
      "type": "function"
    },
    {
      "constant": true,
      "inputs": [
        {
          "name": "account",
          "type": "address"
        }
      ],
      "name": "isGoalOwner",
      "outputs": [
        {
          "name": "",
          "type": "bool"
        }
      ],
      "payable": false,
      "stateMutability": "view",
      "type": "function"
    },
    {
      "constant": true,
      "inputs": [],
      "name": "rewardAmount",
      "outputs": [
        {
          "name": "",
          "type": "uint256"
        }
      ],
      "payable": false,
      "stateMutability": "view",
      "type": "function"
    },
    {
      "constant": true,
      "inputs": [],
      "name": "token",
      "outputs": [
        {
          "name": "",
          "type": "address"
        }
      ],
      "payable": false,
      "stateMutability": "view",
      "type": "function"
    },
    {
      "constant": true,
      "inputs": [
        {
          "name": "",
          "type": "bytes32"
        }
      ],
      "name": "suggestedSteps",
      "outputs": [
        {
          "name": "suggester",
          "type": "address"
        },
        {
          "name": "suggesterBond",
          "type": "uint256"
        },
        {
          "name": "ownerBond",
          "type": "uint256"
        },
        {
          "name": "timeSuggested",
          "type": "uint256"
        },
        {
          "name": "suggestionExpires",
          "type": "uint256"
        }
      ],
      "payable": false,
      "stateMutability": "view",
      "type": "function"
    },
    {
      "anonymous": false,
      "inputs": [
        {
          "indexed": true,
          "name": "payee",
          "type": "address"
        },
        {
          "indexed": false,
          "name": "tokenAmount",
          "type": "uint256"
        }
      ],
      "name": "Deposited",
      "type": "event"
    },
    {
      "anonymous": false,
      "inputs": [
        {
          "indexed": true,
          "name": "payee",
          "type": "address"
        },
        {
          "indexed": false,
          "name": "tokenAmount",
          "type": "uint256"
        }
      ],
      "name": "Withdrawn",
      "type": "event"
    },
    {
      "anonymous": false,
      "inputs": [
        {
          "indexed": false,
          "name": "protectionEnds",
          "type": "uint256"
        },
        {
          "indexed": false,
          "name": "timeNow",
          "type": "uint256"
        }
      ],
      "name": "StartProtection",
      "type": "event"
    },
    {
      "anonymous": false,
      "inputs": [
        {
          "indexed": false,
          "name": "blocktime",
          "type": "uint256"
        }
      ],
      "name": "TimeNow",
      "type": "event"
    },
    {
      "anonymous": false,
      "inputs": [
        {
          "indexed": false,
          "name": "expires",
          "type": "uint256"
        }
      ],
      "name": "SuggestionExpires",
      "type": "event"
    },
    {
      "anonymous": false,
      "inputs": [
        {
          "indexed": true,
          "name": "account",
          "type": "address"
        }
      ],
      "name": "EscrowRoleAdded",
      "type": "event"
    },
    {
      "anonymous": false,
      "inputs": [
        {
          "indexed": true,
          "name": "aionAddr",
          "type": "address"
        }
      ],
      "name": "AionAddressAdded",
      "type": "event"
    },
    {
      "anonymous": false,
      "inputs": [
        {
          "indexed": true,
          "name": "account",
          "type": "address"
        }
      ],
      "name": "GoalOwnerAdded",
      "type": "event"
    },
    {
      "constant": false,
      "inputs": [
        {
          "name": "_token",
          "type": "address"
        },
        {
          "name": "_suggestionDuration",
          "type": "uint256"
        }
      ],
      "name": "initMaster",
      "outputs": [],
      "payable": false,
      "stateMutability": "nonpayable",
      "type": "function"
    },
    {
      "constant": false,
      "inputs": [
        {
          "name": "_amountBond",
          "type": "uint256"
        },
        {
          "name": "_amountReward",
          "type": "uint256"
        }
      ],
      "name": "newGoalInit",
      "outputs": [],
      "payable": false,
      "stateMutability": "nonpayable",
      "type": "function"
    },
    {
      "constant": false,
      "inputs": [
        {
          "name": "_amountBond",
          "type": "uint256"
        },
        {
          "name": "_amountReward",
          "type": "uint256"
        }
      ],
      "name": "fundEscrow",
      "outputs": [],
      "payable": false,
      "stateMutability": "nonpayable",
      "type": "function"
    },
    {
      "constant": false,
      "inputs": [
        {
          "name": "_id",
          "type": "bytes32"
        },
        {
          "name": "_amount",
          "type": "uint256"
        },
        {
          "name": "_payee",
          "type": "address"
        }
      ],
      "name": "depositOnSuggest",
      "outputs": [],
      "payable": false,
      "stateMutability": "nonpayable",
      "type": "function"
    },
    {
      "constant": false,
      "inputs": [
        {
          "name": "_id",
          "type": "bytes32"
        }
      ],
      "name": "setSuggestionTimeOutTestVersion",
      "outputs": [],
      "payable": false,
      "stateMutability": "nonpayable",
      "type": "function"
    },
    {
      "constant": false,
      "inputs": [
        {
          "name": "_id",
          "type": "bytes32"
        }
      ],
      "name": "returnBondsOnTimeOut",
      "outputs": [],
      "payable": false,
      "stateMutability": "nonpayable",
      "type": "function"
    },
    {
      "constant": true,
      "inputs": [],
      "name": "getSuggestionDuration",
      "outputs": [
        {
          "name": "",
          "type": "uint256"
        }
      ],
      "payable": false,
      "stateMutability": "view",
      "type": "function"
    },
    {
      "constant": true,
      "inputs": [
        {
          "name": "_id",
          "type": "bytes32"
        }
      ],
      "name": "suggestionExpires",
      "outputs": [
        {
          "name": "",
          "type": "uint256"
        }
      ],
      "payable": false,
      "stateMutability": "view",
      "type": "function"
    },
    {
      "constant": true,
      "inputs": [
        {
          "name": "_id",
          "type": "bytes32"
        }
      ],
      "name": "suggesterBond",
      "outputs": [
        {
          "name": "",
          "type": "uint256"
        }
      ],
      "payable": false,
      "stateMutability": "view",
      "type": "function"
    },
    {
      "constant": false,
      "inputs": [
        {
          "name": "_id",
          "type": "bytes32"
        }
      ],
      "name": "disburseOnAccept",
      "outputs": [
        {
          "name": "",
          "type": "bool"
        }
      ],
      "payable": false,
      "stateMutability": "nonpayable",
      "type": "function"
    },
    {
      "constant": false,
      "inputs": [
        {
          "name": "_id",
          "type": "bytes32"
        }
      ],
      "name": "returnBondsOnReject",
      "outputs": [
        {
          "name": "",
          "type": "bool"
        }
      ],
      "payable": false,
      "stateMutability": "nonpayable",
      "type": "function"
    }
  ],
  "bytecode": "0x6080604052620000146200001a60201b60201c565b62000266565b6200004973fcfb45679539667f7ed55fa59a15c8cad73d9a4e6001620000a260201b62002c8c1790919060201c565b73fcfb45679539667f7ed55fa59a15c8cad73d9a4e73ffffffffffffffffffffffffffffffffffffffff167f8581e161429a3f57c3c981c8849cb3a370d288de12e549408673a49caca45dd060405160405180910390a2565b620000b482826200018660201b60201c565b1562000128576040517f08c379a000000000000000000000000000000000000000000000000000000000815260040180806020018281038252601f8152602001807f526f6c65733a206163636f756e7420616c72656164792068617320726f6c650081525060200191505060405180910390fd5b60018260000160008373ffffffffffffffffffffffffffffffffffffffff1673ffffffffffffffffffffffffffffffffffffffff16815260200190815260200160002060006101000a81548160ff0219169083151502179055505050565b60008073ffffffffffffffffffffffffffffffffffffffff168273ffffffffffffffffffffffffffffffffffffffff1614156200020f576040517f08c379a0000000000000000000000000000000000000000000000000000000008152600401808060200182810382526022815260200180620035ba6022913960400191505060405180910390fd5b8260000160008373ffffffffffffffffffffffffffffffffffffffff1673ffffffffffffffffffffffffffffffffffffffff16815260200190815260200160002060009054906101000a900460ff16905092915050565b61334480620002766000396000f3fe608060405234801561001057600080fd5b506004361061014d5760003560e01c8063a2d53f9a116100c3578063dd29d0ed1161007c578063dd29d0ed14610564578063e4d158a814610582578063ee1bb036146105de578063f7b2a7be1461060c578063fc0c546a1461062a578063fd447ef0146106745761014d565b8063a2d53f9a146103ce578063ae1342e114610406578063b166a09f1461044c578063b48bfb38146104a8578063c7e46fc5146104ee578063d71fe021146105465761014d565b80635dff6891116101155780635dff689114610264578063769a8b9a146102a65780637ffa0e6414610302578063949ad88d1461035057806394db58121461036e57806395f4f4e51461038c5761014d565b806318d63d9b146101525780632e0a69601461019c5780634386a183146101ba57806345de58d3146101f25780635add518614610220575b600080fd5b61015a6106fe565b604051808273ffffffffffffffffffffffffffffffffffffffff1673ffffffffffffffffffffffffffffffffffffffff16815260200191505060405180910390f35b6101a4610724565b6040518082815260200191505060405180910390f35b6101f0600480360360408110156101d057600080fd5b81019080803590602001909291908035906020019092919050505061072a565b005b61021e6004803603602081101561020857600080fd5b810190808035906020019092919050505061080a565b005b6102626004803603602081101561023657600080fd5b81019080803573ffffffffffffffffffffffffffffffffffffffff1690602001909291905050506108e1565b005b6102906004803603602081101561027a57600080fd5b81019080803590602001909291905050506109d9565b6040518082815260200191505060405180910390f35b6102e8600480360360208110156102bc57600080fd5b81019080803573ffffffffffffffffffffffffffffffffffffffff169060200190929190505050610a0b565b604051808215151515815260200191505060405180910390f35b61034e6004803603604081101561031857600080fd5b81019080803573ffffffffffffffffffffffffffffffffffffffff16906020019092919080359060200190929190505050610a28565b005b610358610c37565b6040518082815260200191505060405180910390f35b610376610c41565b6040518082815260200191505060405180910390f35b6103b8600480360360208110156103a257600080fd5b8101908080359060200190929190505050610c47565b6040518082815260200191505060405180910390f35b610404600480360360408110156103e457600080fd5b810190808035906020019092919080359060200190929190505050610c67565b005b6104326004803603602081101561041c57600080fd5b810190808035906020019092919050505061100b565b604051808215151515815260200191505060405180910390f35b61048e6004803603602081101561046257600080fd5b81019080803573ffffffffffffffffffffffffffffffffffffffff1690602001909291905050506115c6565b604051808215151515815260200191505060405180910390f35b6104d4600480360360208110156104be57600080fd5b81019080803590602001909291905050506115e3565b604051808215151515815260200191505060405180910390f35b6105446004803603606081101561050457600080fd5b810190808035906020019092919080359060200190929190803573ffffffffffffffffffffffffffffffffffffffff16906020019092919050505061208f565b005b61054e6124d7565b6040518082815260200191505060405180910390f35b61056c6124dd565b6040518082815260200191505060405180910390f35b6105c46004803603602081101561059857600080fd5b81019080803573ffffffffffffffffffffffffffffffffffffffff1690602001909291905050506124e3565b604051808215151515815260200191505060405180910390f35b61060a600480360360208110156105f457600080fd5b8101908080359060200190929190505050612500565b005b610614612b20565b6040518082815260200191505060405180910390f35b610632612b26565b604051808273ffffffffffffffffffffffffffffffffffffffff1673ffffffffffffffffffffffffffffffffffffffff16815260200191505060405180910390f35b6106a06004803603602081101561068a57600080fd5b8101908080359060200190929190505050612b4c565b604051808673ffffffffffffffffffffffffffffffffffffffff1673ffffffffffffffffffffffffffffffffffffffff1681526020018581526020018481526020018381526020018281526020019550505050505060405180910390f35b600560009054906101000a900473ffffffffffffffffffffffffffffffffffffffff1681565b60095481565b600c60159054906101000a900460ff1615610790576040517f08c379a00000000000000000000000000000000000000000000000000000000081526004018080602001828103825260348152602001806132e56034913960400191505060405180910390fd5b6107a061079b612ba2565b612baa565b33600560006101000a81548173ffffffffffffffffffffffffffffffffffffffff021916908373ffffffffffffffffffffffffffffffffffffffff1602179055506107eb8282610c67565b6001600c60156101000a81548160ff0219169083151502179055505050565b60004290508060046000848152602001908152602001600020600301819055507f62aabdd9fa523963849aea1b37c60f8832bac896db37cb187e77078fe0d7425b816040518082815260200191505060405180910390a1610876600a5482612c0490919063ffffffff16565b60046000848152602001908152602001600020600401819055507f48a71570d7d5eb03be4acb9d93eb864ba76b96c1f712fa1cf1bca358f69a0fef60046000848152602001908152602001600020600401546040518082815260200191505060405180910390a15050565b600260009054906101000a900460ff1615610964576040517f08c379a00000000000000000000000000000000000000000000000000000000081526004018080602001828103825260178152602001807f457363726f7720726f6c6520616c72656164792073657400000000000000000081525060200191505060405180910390fd5b610978816003612c8c90919063ffffffff16565b8073ffffffffffffffffffffffffffffffffffffffff167fcff6116c063f9dc68129fcb58fcfe99bbbaa33d9ad777e285d7f08bf174d715260405160405180910390a26001600260006101000a81548160ff02191690831515021790555050565b6000610a04426004600085815260200190815260200160002060040154612d6790919063ffffffff16565b9050919050565b6000610a21826001612df090919063ffffffff16565b9050919050565b600c60149054906101000a900460ff1615610a8e576040517f08c379a000000000000000000000000000000000000000000000000000000000815260040180806020018281038252604081526020018061319c6040913960400191505060405180910390fd5b600073ffffffffffffffffffffffffffffffffffffffff168273ffffffffffffffffffffffffffffffffffffffff161415610ac857600080fd5b60008111610b21576040517f08c379a000000000000000000000000000000000000000000000000000000000815260040180806020018281038252602a8152602001806131dc602a913960400191505060405180910390fd5b81600b60006101000a81548173ffffffffffffffffffffffffffffffffffffffff021916908373ffffffffffffffffffffffffffffffffffffffff1602179055506001600881905550600160098190555080600a819055508173ffffffffffffffffffffffffffffffffffffffff16635add5186306040518263ffffffff1660e01b8152600401808273ffffffffffffffffffffffffffffffffffffffff1673ffffffffffffffffffffffffffffffffffffffff168152602001915050600060405180830381600087803b158015610bf857600080fd5b505af1158015610c0c573d6000803e3d6000fd5b50505050610c18612ece565b6001600c60146101000a81548160ff0219169083151502179055505050565b6000600a54905090565b600a5481565b600060046000838152602001908152602001600020600101549050919050565b610c77610c72612ba2565b6124e3565b610ccc576040517f08c379a00000000000000000000000000000000000000000000000000000000081526004018080602001828103825260378152602001806131656037913960400191505060405180910390fd5b610ce182600754612c0490919063ffffffff16565b600781905550600b60009054906101000a900473ffffffffffffffffffffffffffffffffffffffff1673ffffffffffffffffffffffffffffffffffffffff166323b872dd3330856040518463ffffffff1660e01b8152600401808473ffffffffffffffffffffffffffffffffffffffff1673ffffffffffffffffffffffffffffffffffffffff1681526020018373ffffffffffffffffffffffffffffffffffffffff1673ffffffffffffffffffffffffffffffffffffffff1681526020018281526020019350505050602060405180830381600087803b158015610dc457600080fd5b505af1158015610dd8573d6000803e3d6000fd5b505050506040513d6020811015610dee57600080fd5b810190808051906020019092919050505050610e1581600654612c0490919063ffffffff16565b600681905550600b60009054906101000a900473ffffffffffffffffffffffffffffffffffffffff1673ffffffffffffffffffffffffffffffffffffffff166323b872dd3330846040518463ffffffff1660e01b8152600401808473ffffffffffffffffffffffffffffffffffffffff1673ffffffffffffffffffffffffffffffffffffffff1681526020018373ffffffffffffffffffffffffffffffffffffffff1673ffffffffffffffffffffffffffffffffffffffff1681526020018281526020019350505050602060405180830381600087803b158015610ef857600080fd5b505af1158015610f0c573d6000803e3d6000fd5b505050506040513d6020811015610f2257600080fd5b810190808051906020019092919050505050600b60009054906101000a900473ffffffffffffffffffffffffffffffffffffffff1673ffffffffffffffffffffffffffffffffffffffff166365c3ad4233610f868486612c0490919063ffffffff16565b6040518363ffffffff1660e01b8152600401808373ffffffffffffffffffffffffffffffffffffffff1673ffffffffffffffffffffffffffffffffffffffff16815260200182815260200192505050600060405180830381600087803b158015610fef57600080fd5b505af1158015611003573d6000803e3d6000fd5b505050505050565b600061101d611018612ba2565b6124e3565b611072576040517f08c379a00000000000000000000000000000000000000000000000000000000081526004018080602001828103825260378152602001806131656037913960400191505060405180910390fd5b60006004600084815260200190815260200160002060010154905080600b60009054906101000a900473ffffffffffffffffffffffffffffffffffffffff1673ffffffffffffffffffffffffffffffffffffffff166370a08231306040518263ffffffff1660e01b8152600401808273ffffffffffffffffffffffffffffffffffffffff1673ffffffffffffffffffffffffffffffffffffffff16815260200191505060206040518083038186803b15801561112d57600080fd5b505afa158015611141573d6000803e3d6000fd5b505050506040513d602081101561115757600080fd5b810190808051906020019092919050505010156111bf576040517f08c379a00000000000000000000000000000000000000000000000000000000081526004018080602001828103825260378152602001806130b76037913960400191505060405180910390fd5b600081905060006004600086815260200190815260200160002060000160009054906101000a900473ffffffffffffffffffffffffffffffffffffffff16905060006004600087815260200190815260200160002060010181905550600b60009054906101000a900473ffffffffffffffffffffffffffffffffffffffff1673ffffffffffffffffffffffffffffffffffffffff1663a9059cbb82856040518363ffffffff1660e01b8152600401808373ffffffffffffffffffffffffffffffffffffffff1673ffffffffffffffffffffffffffffffffffffffff16815260200182815260200192505050602060405180830381600087803b1580156112c457600080fd5b505af11580156112d8573d6000803e3d6000fd5b505050506040513d60208110156112ee57600080fd5b8101908080519060200190929190505050508073ffffffffffffffffffffffffffffffffffffffff167f7084f5476618d8e60b11ef0d7d3f06914655adb8793e28ff7f018d4c76d505d5846040518082815260200191505060405180910390a2600b60009054906101000a900473ffffffffffffffffffffffffffffffffffffffff1673ffffffffffffffffffffffffffffffffffffffff1663ad551cb782846040518363ffffffff1660e01b8152600401808373ffffffffffffffffffffffffffffffffffffffff1673ffffffffffffffffffffffffffffffffffffffff16815260200182815260200192505050602060405180830381600087803b1580156113f757600080fd5b505af115801561140b573d6000803e3d6000fd5b505050506040513d602081101561142157600080fd5b81019080805190602001909291905050505060006004600087815260200190815260200160002060020154905080600b60009054906101000a900473ffffffffffffffffffffffffffffffffffffffff1673ffffffffffffffffffffffffffffffffffffffff166370a08231306040518263ffffffff1660e01b8152600401808273ffffffffffffffffffffffffffffffffffffffff1673ffffffffffffffffffffffffffffffffffffffff16815260200191505060206040518083038186803b1580156114ee57600080fd5b505afa158015611502573d6000803e3d6000fd5b505050506040513d602081101561151857600080fd5b81019080805190602001909291905050501015611580576040517f08c379a00000000000000000000000000000000000000000000000000000000081526004018080602001828103825260338152602001806132066033913960400191505060405180910390fd5b6000819050600060046000898152602001908152602001600020600201819055506115b682600754612c0490919063ffffffff16565b6007819055505050505050919050565b60006115dc826003612df090919063ffffffff16565b9050919050565b60006115f56115f0612ba2565b6124e3565b61164a576040517f08c379a00000000000000000000000000000000000000000000000000000000081526004018080602001828103825260378152602001806131656037913960400191505060405180910390fd5b60006004600084815260200190815260200160002060010154905080600b60009054906101000a900473ffffffffffffffffffffffffffffffffffffffff1673ffffffffffffffffffffffffffffffffffffffff166370a08231306040518263ffffffff1660e01b8152600401808273ffffffffffffffffffffffffffffffffffffffff1673ffffffffffffffffffffffffffffffffffffffff16815260200191505060206040518083038186803b15801561170557600080fd5b505afa158015611719573d6000803e3d6000fd5b505050506040513d602081101561172f57600080fd5b81019080805190602001909291905050501015611797576040517f08c379a00000000000000000000000000000000000000000000000000000000081526004018080602001828103825260378152602001806132646037913960400191505060405180910390fd5b60006004600085815260200190815260200160002060000160009054906101000a900473ffffffffffffffffffffffffffffffffffffffff16905060006004600086815260200190815260200160002060010181905550600b60009054906101000a900473ffffffffffffffffffffffffffffffffffffffff1673ffffffffffffffffffffffffffffffffffffffff1663a9059cbb82846040518363ffffffff1660e01b8152600401808373ffffffffffffffffffffffffffffffffffffffff1673ffffffffffffffffffffffffffffffffffffffff16815260200182815260200192505050602060405180830381600087803b15801561189757600080fd5b505af11580156118ab573d6000803e3d6000fd5b505050506040513d60208110156118c157600080fd5b8101908080519060200190929190505050508073ffffffffffffffffffffffffffffffffffffffff167f7084f5476618d8e60b11ef0d7d3f06914655adb8793e28ff7f018d4c76d505d5836040518082815260200191505060405180910390a2611938600854600654612d6790919063ffffffff16565b600b60009054906101000a900473ffffffffffffffffffffffffffffffffffffffff1673ffffffffffffffffffffffffffffffffffffffff166370a08231306040518263ffffffff1660e01b8152600401808273ffffffffffffffffffffffffffffffffffffffff1673ffffffffffffffffffffffffffffffffffffffff16815260200191505060206040518083038186803b1580156119d757600080fd5b505afa1580156119eb573d6000803e3d6000fd5b505050506040513d6020811015611a0157600080fd5b81019080805190602001909291905050501015611a69576040517f08c379a00000000000000000000000000000000000000000000000000000000081526004018080602001828103825260308152602001806130876030913960400191505060405180910390fd5b611a80600854600654612d6790919063ffffffff16565b600681905550600b60009054906101000a900473ffffffffffffffffffffffffffffffffffffffff1673ffffffffffffffffffffffffffffffffffffffff1663a9059cbb826008546040518363ffffffff1660e01b8152600401808373ffffffffffffffffffffffffffffffffffffffff1673ffffffffffffffffffffffffffffffffffffffff16815260200182815260200192505050602060405180830381600087803b158015611b3157600080fd5b505af1158015611b45573d6000803e3d6000fd5b505050506040513d6020811015611b5b57600080fd5b8101908080519060200190929190505050508073ffffffffffffffffffffffffffffffffffffffff167f7084f5476618d8e60b11ef0d7d3f06914655adb8793e28ff7f018d4c76d505d56008546040518082815260200191505060405180910390a26000611bd460085484612c0490919063ffffffff16565b9050600b60009054906101000a900473ffffffffffffffffffffffffffffffffffffffff1673ffffffffffffffffffffffffffffffffffffffff1663ad551cb783836040518363ffffffff1660e01b8152600401808373ffffffffffffffffffffffffffffffffffffffff1673ffffffffffffffffffffffffffffffffffffffff16815260200182815260200192505050602060405180830381600087803b158015611c7f57600080fd5b505af1158015611c93573d6000803e3d6000fd5b505050506040513d6020811015611ca957600080fd5b81019080805190602001909291905050505060006004600087815260200190815260200160002060020154905080600b60009054906101000a900473ffffffffffffffffffffffffffffffffffffffff1673ffffffffffffffffffffffffffffffffffffffff166370a08231306040518263ffffffff1660e01b8152600401808273ffffffffffffffffffffffffffffffffffffffff1673ffffffffffffffffffffffffffffffffffffffff16815260200191505060206040518083038186803b158015611d7657600080fd5b505afa158015611d8a573d6000803e3d6000fd5b505050506040513d6020811015611da057600080fd5b81019080805190602001909291905050501015611e08576040517f08c379a00000000000000000000000000000000000000000000000000000000081526004018080602001828103825260338152602001806130276033913960400191505060405180910390fd5b600081905060006004600089815260200190815260200160002060020181905550600b60009054906101000a900473ffffffffffffffffffffffffffffffffffffffff1673ffffffffffffffffffffffffffffffffffffffff1663a9059cbb600560009054906101000a900473ffffffffffffffffffffffffffffffffffffffff16846040518363ffffffff1660e01b8152600401808373ffffffffffffffffffffffffffffffffffffffff1673ffffffffffffffffffffffffffffffffffffffff16815260200182815260200192505050602060405180830381600087803b158015611ef457600080fd5b505af1158015611f08573d6000803e3d6000fd5b505050506040513d6020811015611f1e57600080fd5b810190808051906020019092919050505050600560009054906101000a900473ffffffffffffffffffffffffffffffffffffffff1673ffffffffffffffffffffffffffffffffffffffff167f7084f5476618d8e60b11ef0d7d3f06914655adb8793e28ff7f018d4c76d505d5836040518082815260200191505060405180910390a2600b60009054906101000a900473ffffffffffffffffffffffffffffffffffffffff1673ffffffffffffffffffffffffffffffffffffffff1663ad551cb733836040518363ffffffff1660e01b8152600401808373ffffffffffffffffffffffffffffffffffffffff1673ffffffffffffffffffffffffffffffffffffffff16815260200182815260200192505050602060405180830381600087803b15801561204957600080fd5b505af115801561205d573d6000803e3d6000fd5b505050506040513d602081101561207357600080fd5b8101908080519060200190929190505050505050505050919050565b61209f61209a612ba2565b6124e3565b156120f5576040517f08c379a000000000000000000000000000000000000000000000000000000000815260040180806020018281038252603481526020018061310f6034913960400191505060405180910390fd5b336004600085815260200190815260200160002060000160006101000a81548173ffffffffffffffffffffffffffffffffffffffff021916908373ffffffffffffffffffffffffffffffffffffffff160217905550612173826004600086815260200190815260200160002060010154612c0490919063ffffffff16565b6004600085815260200190815260200160002060010181905550600b60009054906101000a900473ffffffffffffffffffffffffffffffffffffffff1673ffffffffffffffffffffffffffffffffffffffff166323b872dd3330856040518463ffffffff1660e01b8152600401808473ffffffffffffffffffffffffffffffffffffffff1673ffffffffffffffffffffffffffffffffffffffff1681526020018373ffffffffffffffffffffffffffffffffffffffff1673ffffffffffffffffffffffffffffffffffffffff1681526020018281526020019350505050602060405180830381600087803b15801561226a57600080fd5b505af115801561227e573d6000803e3d6000fd5b505050506040513d602081101561229457600080fd5b8101908080519060200190929190505050508073ffffffffffffffffffffffffffffffffffffffff167f2da466a7b24304f47e87fa2e1e5a81b9831ce54fec19055ce277ca2f39ba42c4836040518082815260200191505060405180910390a26009546007541015612351576040517f08c379a00000000000000000000000000000000000000000000000000000000081526004018080602001828103825260218152602001806130ee6021913960400191505060405180910390fd5b612368600954600754612d6790919063ffffffff16565b6007819055506123996009546004600086815260200190815260200160002060020154612c0490919063ffffffff16565b6004600085815260200190815260200160002060020181905550336004600085815260200190815260200160002060000160006101000a81548173ffffffffffffffffffffffffffffffffffffffff021916908373ffffffffffffffffffffffffffffffffffffffff16021790555061241183612f4f565b600b60009054906101000a900473ffffffffffffffffffffffffffffffffffffffff1673ffffffffffffffffffffffffffffffffffffffff166365c3ad4233846040518363ffffffff1660e01b8152600401808373ffffffffffffffffffffffffffffffffffffffff1673ffffffffffffffffffffffffffffffffffffffff16815260200182815260200192505050600060405180830381600087803b1580156124ba57600080fd5b505af11580156124ce573d6000803e3d6000fd5b50505050505050565b60065481565b60075481565b60006124f9826000612df090919063ffffffff16565b9050919050565b61251061250b612ba2565b610a0b565b612565576040517f08c379a000000000000000000000000000000000000000000000000000000000815260040180806020018281038252602d81526020018061305a602d913960400191505060405180910390fd5b60046000828152602001908152602001600020600401544210156125d4576040517f08c379a000000000000000000000000000000000000000000000000000000000815260040180806020018281038252602b815260200180613239602b913960400191505060405180910390fd5b60006004600083815260200190815260200160002060010154905080600b60009054906101000a900473ffffffffffffffffffffffffffffffffffffffff1673ffffffffffffffffffffffffffffffffffffffff166370a08231306040518263ffffffff1660e01b8152600401808273ffffffffffffffffffffffffffffffffffffffff1673ffffffffffffffffffffffffffffffffffffffff16815260200191505060206040518083038186803b15801561268f57600080fd5b505afa1580156126a3573d6000803e3d6000fd5b505050506040513d60208110156126b957600080fd5b81019080805190602001909291905050501015612721576040517f08c379a000000000000000000000000000000000000000000000000000000000815260040180806020018281038252604a81526020018061329b604a913960600191505060405180910390fd5b600081905060006004600085815260200190815260200160002060000160009054906101000a900473ffffffffffffffffffffffffffffffffffffffff16905060006004600086815260200190815260200160002060010181905550600b60009054906101000a900473ffffffffffffffffffffffffffffffffffffffff1673ffffffffffffffffffffffffffffffffffffffff1663a9059cbb82856040518363ffffffff1660e01b8152600401808373ffffffffffffffffffffffffffffffffffffffff1673ffffffffffffffffffffffffffffffffffffffff16815260200182815260200192505050602060405180830381600087803b15801561282657600080fd5b505af115801561283a573d6000803e3d6000fd5b505050506040513d602081101561285057600080fd5b8101908080519060200190929190505050508073ffffffffffffffffffffffffffffffffffffffff167f7084f5476618d8e60b11ef0d7d3f06914655adb8793e28ff7f018d4c76d505d5846040518082815260200191505060405180910390a2600b60009054906101000a900473ffffffffffffffffffffffffffffffffffffffff1673ffffffffffffffffffffffffffffffffffffffff1663ad551cb782846040518363ffffffff1660e01b8152600401808373ffffffffffffffffffffffffffffffffffffffff1673ffffffffffffffffffffffffffffffffffffffff16815260200182815260200192505050602060405180830381600087803b15801561295957600080fd5b505af115801561296d573d6000803e3d6000fd5b505050506040513d602081101561298357600080fd5b81019080805190602001909291905050505060006004600086815260200190815260200160002060020154905080600b60009054906101000a900473ffffffffffffffffffffffffffffffffffffffff1673ffffffffffffffffffffffffffffffffffffffff166370a08231306040518263ffffffff1660e01b8152600401808273ffffffffffffffffffffffffffffffffffffffff1673ffffffffffffffffffffffffffffffffffffffff16815260200191505060206040518083038186803b158015612a5057600080fd5b505afa158015612a64573d6000803e3d6000fd5b505050506040513d6020811015612a7a57600080fd5b81019080805190602001909291905050501015612ae2576040517f08c379a00000000000000000000000000000000000000000000000000000000081526004018080602001828103825260338152602001806130276033913960400191505060405180910390fd5b60006004600087815260200190815260200160002060020181905550612b1381600754612c0490919063ffffffff16565b6007819055505050505050565b60085481565b600b60009054906101000a900473ffffffffffffffffffffffffffffffffffffffff1681565b60046020528060005260406000206000915090508060000160009054906101000a900473ffffffffffffffffffffffffffffffffffffffff16908060010154908060020154908060030154908060040154905085565b600033905090565b612bbe816000612c8c90919063ffffffff16565b8073ffffffffffffffffffffffffffffffffffffffff167f5cf6dbc47bcb420f21943ab51cb07008bd0d23e277272b288dd028681e46147160405160405180910390a250565b600080828401905083811015612c82576040517f08c379a000000000000000000000000000000000000000000000000000000000815260040180806020018281038252601b8152602001807f536166654d6174683a206164646974696f6e206f766572666c6f77000000000081525060200191505060405180910390fd5b8091505092915050565b612c968282612df0565b15612d09576040517f08c379a000000000000000000000000000000000000000000000000000000000815260040180806020018281038252601f8152602001807f526f6c65733a206163636f756e7420616c72656164792068617320726f6c650081525060200191505060405180910390fd5b60018260000160008373ffffffffffffffffffffffffffffffffffffffff1673ffffffffffffffffffffffffffffffffffffffff16815260200190815260200160002060006101000a81548160ff0219169083151502179055505050565b600082821115612ddf576040517f08c379a000000000000000000000000000000000000000000000000000000000815260040180806020018281038252601e8152602001807f536166654d6174683a207375627472616374696f6e206f766572666c6f77000081525060200191505060405180910390fd5b600082840390508091505092915050565b60008073ffffffffffffffffffffffffffffffffffffffff168273ffffffffffffffffffffffffffffffffffffffff161415612e77576040517f08c379a00000000000000000000000000000000000000000000000000000000081526004018080602001828103825260228152602001806131436022913960400191505060405180910390fd5b8260000160008373ffffffffffffffffffffffffffffffffffffffff1673ffffffffffffffffffffffffffffffffffffffff16815260200190815260200160002060009054906101000a900460ff16905092915050565b612ef673fcfb45679539667f7ed55fa59a15c8cad73d9a4e6001612c8c90919063ffffffff16565b73fcfb45679539667f7ed55fa59a15c8cad73d9a4e73ffffffffffffffffffffffffffffffffffffffff167f8581e161429a3f57c3c981c8849cb3a370d288de12e549408673a49caca45dd060405160405180910390a2565b60004290508060046000848152602001908152602001600020600301819055507f62aabdd9fa523963849aea1b37c60f8832bac896db37cb187e77078fe0d7425b816040518082815260200191505060405180910390a1612fbb600a5482612c0490919063ffffffff16565b60046000848152602001908152602001600020600401819055507f48a71570d7d5eb03be4acb9d93eb864ba76b96c1f712fa1cf1bca358f69a0fef60046000848152602001908152602001600020600401546040518082815260200191505060405180910390a1505056fe42726f6b656e3a20436f6e74726163742063616e2774206166666f726420746f20726566756e64206f776e657220626f6e642141696f6e20526f6c653a2063616c6c657220646f6573206e6f742068617665207468652041696f6e20726f6c6542726f6b656e3a20436f6e74726163742063616e2774206166666f726420746f20706179206f7574207265776172642142726f6b656e3a20636f6e74726163742063616e2774206166666f726420746f20726566756e642073756767657374657220626f6e64214f776e65722068617320696e73756666696369656e7420626f6e642066756e6473476f616c4f776e657220526f6c653a20476f616c4f776e65722043414e204e4f542063616c6c20746869732066756e6374696f6e526f6c65733a206163636f756e7420697320746865207a65726f2061646472657373476f616c4f776e657220526f6c653a2063616c6c657220646f6573206e6f7420686176652074686520476f616c4f776e657220726f6c65696e69744d61737465725f20616c72656164792063616c6c6564206f6e2074686520457363726f7720696d706c656d656e746174696f6e20636f6e74726163745f73756767657374696f6e4475726174696f6e206d7573742062652067726561746572207468616e203042726f6b656e3a20636f6e74726163742063616e2774206166666f726420746f20726566756e64206f776e657220626f6e6421457363726f773a2063757272656e742074696d65206973206265666f72652072656c656173652074696d6542726f6b656e3a20436f6e74726163742063616e2774206166666f726420746f20726566756e642073756767657374657220626f6e64215265717565737465642053756767657374657220426f6e6420526566756e64206973204d4f5245207468616e20746f6b656e2062616c616e6365206f662074686520636f6e74726163746e6577476f616c496e69742068617320616c7265616479206265656e2063616c6c6564206f6e207468697320696e7374616e6365a165627a7a723058205d8ccfbd58fabb6cc1d59fa1315bd215b63200f32c082a2ebb5c81e25a81a5770029526f6c65733a206163636f756e7420697320746865207a65726f2061646472657373",
  "source": "pragma solidity ^0.5.0; \n\nimport \"./SafeMath.sol\";\nimport \"./ERC20.sol\";\nimport \"./Ownable.sol\";\nimport \"./Address.sol\";\nimport \"./GoalOwnerRole.sol\";\nimport \"./AionRole.sol\";\nimport \"./EscrowRole.sol\";\n\n// interface Aion\ncontract Aion {\n //using SafeERC20 for ERC20;\n \n //uint256 protectionPeriod = token.protectionPeriod;\n  uint256 public serviceFee;\n  function ScheduleCall(uint256 blocknumber, address to, uint256 value, \n    uint256 gaslimit, uint256 gasprice, bytes memory data, bool schedType) public\n      payable returns (uint, address);\n}\n\ncontract GoalEscrow is GoalOwnerRole, AionRole, EscrowRole  {\n  using SafeMath for uint256;\n // using SafeERC20 for ERC20;\n \n  event Deposited(address indexed payee, uint256 tokenAmount);\n  event Withdrawn(address indexed payee, uint256 tokenAmount);\n  event StartProtection(uint256 protectionEnds, uint timeNow);\n  event TimeNow(uint256 blocktime);\n  event SuggestionExpires(uint256 expires);\n  mapping ( bytes32 => Suggester) public suggestedSteps;\n\n  struct Suggester {\n   address suggester;\n   uint256 suggesterBond;\n   uint256 ownerBond;\n   uint256 timeSuggested;\n   uint256 suggestionExpires;\n  }\n\n  address public goalOwner;\n  uint256 public rewardFunds;\n  uint256 public bondFunds;\n  uint256 public rewardAmount;\n  uint256 public ownerBondAmount; \n  uint256 public suggestionDuration;\n  \n  ERC20 public token;\n  Aion aion;\n\n  /*constructor (ERC20 _token, uint256 _suggestionDuration) public {\n    require(address(_token) != address(0));\n    require(_suggestionDuration > 0, \"_suggestionDuration must be greater than 0\"); \n    token = _token;\n    rewardAmount = 1;\n    ownerBondAmount = 1;\n    suggestionDuration = _suggestionDuration;\n    _token._addEscrowRole(address(this));\n } */\n  \n  bool private _initializedMaster;\n  bool private _initializedNewGoal;\n\n  function initMaster (ERC20 _token, uint256 _suggestionDuration) public {\n    require(!_initializedMaster, \"initMaster_ already called on the Escrow implementation contract\");\n    require(address(_token) != address(0));\n    require(_suggestionDuration > 0, \"_suggestionDuration must be greater than 0\"); \n    token = _token;\n    rewardAmount = 1;\n    ownerBondAmount = 1;\n    suggestionDuration = _suggestionDuration;\n    _token._addEscrowRole(address(this));\n    _addAionAddress();\n    _initializedMaster = true;\n  }\n \n  function newGoalInit(uint _amountBond, uint _amountReward) public {\n    require(!_initializedNewGoal, \"newGoalInit has already been called on this instance\"); \n    _addGoalOwner(_msgSender());\n    goalOwner = msg.sender;\n    fundEscrow(_amountBond, _amountReward); \n   _initializedNewGoal = true;\n  }\n \n  // -- can't do a transfer and update without the the escrow contract recieving the call and checking that it got the tokens\n /* function deployAndApprove(uint _amountBond, uint _amountReward) public onlyOwner { \n   uint totalToApprove = _amountBond.add(_amountReward);\n   token.approve(address(this), totalToApprove);\n }*/  \n\n  function fundEscrow(uint _amountBond, uint _amountReward) public onlyGoalOwner {\n   bondFunds = bondFunds.add(_amountBond); \n   token.transferFrom(msg.sender, address(this), _amountBond);\n   rewardFunds = rewardFunds.add(_amountReward);\n   token.transferFrom(msg.sender, address(this), _amountReward);\n   token.unsetRestrictedTokens(msg.sender, _amountBond.add(_amountReward));\n //  token._addEscrowRole(address(this));\n  } \n\n/*   ERC20Mock.approve(address(this), _amount); */\n \n\t         //** SUGGEST **//\n                  /*only suggester*/\n\n  function depositOnSuggest(bytes32 _id, uint _amount, address _payee) public notGoalOwner {\n    //set suggester address\n    suggestedSteps[_id].suggester = msg.sender;\n    //set suggester bond\n    suggestedSteps[_id].suggesterBond = suggestedSteps[_id].suggesterBond.add(_amount);\n    token.transferFrom(msg.sender, address(this), _amount); \n    emit Deposited(_payee, _amount); \n    //apply owner bond\n    require(bondFunds >= ownerBondAmount, \"Owner has insufficient bond funds\");\n    bondFunds = bondFunds.sub(ownerBondAmount);  \n    suggestedSteps[_id].ownerBond = suggestedSteps[_id].ownerBond.add(ownerBondAmount);\n    suggestedSteps[_id].suggester = msg.sender;\n    setSuggestionTimeOut(_id);\n    token.unsetRestrictedTokens(msg.sender, _amount);\n  }\n\n  function setSuggestionTimeOutTestVersion(bytes32 _id) public {\n   uint256 timeNow = block.timestamp;\n   suggestedSteps[_id].timeSuggested = timeNow;\n   emit TimeNow(timeNow);\n   suggestedSteps[_id].suggestionExpires = timeNow.add(suggestionDuration);\n   emit SuggestionExpires(suggestedSteps[_id].suggestionExpires);\n   // schedule_returnBondsOnTimeOut(_id, timeNow.add(timeOUt));\n  }\n\n  function setSuggestionTimeOut(bytes32 _id) private {\n    uint256 timeNow = block.timestamp;\n    suggestedSteps[_id].timeSuggested = timeNow;\n    emit TimeNow(timeNow);\n    suggestedSteps[_id].suggestionExpires = timeNow.add(suggestionDuration);\n    emit SuggestionExpires(suggestedSteps[_id].suggestionExpires);\n    //schedule_returnBondsOnTimeOut(_id, timeNow.add(suggestionDuration));\n}\n\n  function checkForTimedOutSuggestions (bytes32 _id) internal {\n      returnBondsOnTimeOut(_id);\n      \n  }\n  function schedule_returnBondsOnTimeOut(uint256 value, bytes32 _id, uint256 callTime, uint256 gasprice, uint256 gaslimit, uint256 time_or_block) internal {\n   aion = Aion(0xFcFB45679539667f7ed55FA59A15c8Cad73d9a4E);\n   bytes memory data = abi.encodeWithSelector(bytes4(keccak256('returnBondsOnTimeOut(bytes32 )')),_id);\n   uint callCost = 200000*1e9 + aion.serviceFee();\n   aion.ScheduleCall.value(callCost) (callTime,\n    address(this), 0, 200000,1e9, data, true);  \n  }\n\n\t//** TIME OUT -- Contract disburses reward and bonds **//\n  function returnBondsOnTimeOut(bytes32 _id) public onlyAionRole {\n    require(block.timestamp >= suggestedSteps[_id].suggestionExpires, \"Escrow: current time is before release time\");\n    uint256 suggesterBondRefundAmount = suggestedSteps[_id].suggesterBond;\n    require(token.balanceOf(address(this)) >= suggesterBondRefundAmount,\"Requested Suggester Bond Refund is MORE than token balance of the contract\");\n    //suggester\n    uint256 suggesterProtectAmount = suggesterBondRefundAmount; \n    address payee = suggestedSteps[_id].suggester;\n    suggestedSteps[_id].suggesterBond = 0;\n    //return suggester bond \n    token.transfer(payee, suggesterBondRefundAmount);\n    emit Withdrawn(payee, suggesterBondRefundAmount);\n    //protect tokens\n    token.timeProtectTokens(payee, suggesterProtectAmount);\n    // schedule end protection \n    //schedule_removeTokenTimeProtection(payee, suggesterProtectAmount);    \n    //owner \n    uint256 ownerBondRefundAmount = suggestedSteps[_id].ownerBond;\n    require(token.balanceOf(address(this)) >= ownerBondRefundAmount, \"Broken: Contract can't afford to refund owner bond!\"); \n    suggestedSteps[_id].ownerBond = 0;\n    bondFunds = bondFunds.add(ownerBondRefundAmount);\t\n    //return owner bond\n// no transfer * token.transfer(msg.sender, ownerBondRefundAmount);\n// no transfer * emit Withdrawn(msg.sender, ownerBondRefundAmount);\n    //protect tokens\n//no transfer * no protect * token.timeProtectTokens(msg.sender, ownerProtectAmount);\n    //schedule end protection  \n //no transfer * no protect * no clock * // schedule_removeTokenTimeProtection(owner, ownerProtectAmount);\n  }\n\n  function getSuggestionDuration() public view returns(uint256) {\n      return suggestionDuration; \n  }\n\n  function suggestionExpires(bytes32 _id) public view returns (uint256) {\n    return  suggestedSteps[_id].suggestionExpires.sub(block.timestamp);\n  }\n\n  function suggesterBond (bytes32 _id) public view returns (uint256) {\n    return suggestedSteps[_id].suggesterBond;\n  }  \n\n  function schedule_removeTokenTimeProtection (uint256 value, address _address, uint256 _amount, uint256 gasprice, uint256 gaslimit, uint256 time_or_block)\n   private {\n   aion = Aion(0xFcFB45679539667f7ed55FA59A15c8Cad73d9a4E);\n  // uint protectionPeriod = token.protectionPeriod;\n   bytes memory data =\n     abi.encodeWithSelector(bytes4(keccak256('removeTokenTimeProtection(address,uint256)')),_address, _amount);\n   uint256 callCost = 200000*1e9 + aion.serviceFee();\n   //aion.ScheduleCall.value(callCost)( block.number+15, address(this), value, gaslimit, gasprice, hex\"00\", time_or_block);\n  }\n\n  function disburseOnAccept(bytes32 _id) public onlyGoalOwner returns (bool)  {\n    uint256 suggesterBondRefundAmount = suggestedSteps[_id].suggesterBond;\n    require(token.balanceOf(address(this)) >= suggesterBondRefundAmount, \"Broken: Contract can't afford to refund suggester bond!\");\n    //return suggester bond\n    address payee = suggestedSteps[_id].suggester;\n    suggestedSteps[_id].suggesterBond = 0;\n    token.transfer(payee, suggesterBondRefundAmount);\n    emit Withdrawn(payee, suggesterBondRefundAmount);\n    //pay reward to suggester\n    require(token.balanceOf(address(this)) >= rewardFunds.sub(rewardAmount), \"Broken: Contract can't afford to pay out reward!\");\n    rewardFunds = rewardFunds.sub(rewardAmount);\n    token.transfer(payee, rewardAmount); \n    emit Withdrawn(payee, rewardAmount);    \n    //protect suggester tokens\n    uint256 suggesterProtectAmount = suggesterBondRefundAmount.add(rewardAmount); \n    token.timeProtectTokens(payee, suggesterProtectAmount); \n   //start protection clock    \n    //schedule_removeTokenTimeProtection(payee, suggesterProtectAmount);    \n    // return owner bond \n    uint256 ownerBondRefundAmount = suggestedSteps[_id].ownerBond;\n    require(token.balanceOf(address(this)) >= ownerBondRefundAmount, \"Broken: Contract can't afford to refund owner bond!\"); \n    uint256 ownerProtectAmount = ownerBondRefundAmount;\n    suggestedSteps[_id].ownerBond = 0;\n    token.transfer(goalOwner, ownerBondRefundAmount);\n    emit Withdrawn(goalOwner, ownerBondRefundAmount);\n    //protect owner tokens \n    token.timeProtectTokens(msg.sender, ownerProtectAmount);\n    //start protection clock    \n   // schedule_removeTokenTimeProtection(msg.sender, ownerProtectAmount);\n  }\n\n\t//** REJECT STEP || Contract returns bonds **// \n  function returnBondsOnReject(bytes32 _id) public onlyGoalOwner returns (bool) {\n    //return suggester bond\n    uint256 suggesterBondRefundAmount = suggestedSteps[_id].suggesterBond;\n    require(token.balanceOf(address(this)) >= suggesterBondRefundAmount,\"Broken: contract can't afford to refund suggester bond!\");\n    uint256 suggesterProtectAmount = suggesterBondRefundAmount;\n    address payee = suggestedSteps[_id].suggester;\n    suggestedSteps[_id].suggesterBond = 0;\n    token.transfer(payee, suggesterBondRefundAmount);\n    emit Withdrawn(payee, suggesterBondRefundAmount);\n    //protect suggester return bond\n    token.timeProtectTokens(payee, suggesterProtectAmount);\n    //start protection clock\n    //schedule_removeTokenTimeProtection(payee, suggesterProtectAmount);    \n   //return owner bond\n    uint256 ownerBondRefundAmount = suggestedSteps[_id].ownerBond;\n    require(token.balanceOf(address(this)) >= ownerBondRefundAmount,\"Broken: contract can't afford to refund owner bond!\"); \n    uint256 ownerProtectAmount = ownerBondRefundAmount; \n    suggestedSteps[_id].ownerBond = 0;\n    bondFunds = bondFunds.add(ownerBondRefundAmount); \n// no transfer * token.transfer(, ownerBondRefundAmount);\n// no transfer *  emit Withdrawn(msg.sender, ownerBondRefundAmount);\n    //protect tokens\n// no transfer * no protect * token.timeProtectTokens(msg.sender, ownerProtectAmount);\n    // start protection clock\n// no transfer * no protect * no clock *  schedule_removeTokenTimeProtection(msg.sender, ownerProtectAmount);\n  }\n}\n",
  "sourcePath": "/home/zmg/Scratch/gz/GoalZappTruffle/contracts/GoalEscrow.sol",
  "compiler": {
    "name": "solc",
    "version": "0.5.8+commit.23d335f2.Emscripten.clang"
  },
  "schemaVersion": "3.0.16",
  "updatedAt": "2019-09-18T20:04:10.095Z",
  "devdoc": {
    "methods": {}
  },
  "userdoc": {
    "methods": {}
  }
}