{
  "contractName": "GoalEscrow",
  "abi": [
    {
      "constant": true,
      "inputs": [],
      "name": "goalOwner",
      "outputs": [
        {
          "name": "",
          "type": "address"
        }
      ],
      "payable": false,
      "stateMutability": "view",
      "type": "function"
    },
    {
      "constant": true,
      "inputs": [],
      "name": "ownerBondAmount",
      "outputs": [
        {
          "name": "",
          "type": "uint256"
        }
      ],
      "payable": false,
      "stateMutability": "view",
      "type": "function"
    },
    {
      "constant": false,
      "inputs": [
        {
          "name": "account",
          "type": "address"
        }
      ],
      "name": "_addEscrowRole",
      "outputs": [],
      "payable": false,
      "stateMutability": "nonpayable",
      "type": "function"
    },
    {
      "constant": true,
      "inputs": [
        {
          "name": "account",
          "type": "address"
        }
      ],
      "name": "isAionAddress",
      "outputs": [
        {
          "name": "",
          "type": "bool"
        }
      ],
      "payable": false,
      "stateMutability": "view",
      "type": "function"
    },
    {
      "constant": true,
      "inputs": [],
      "name": "suggestionDuration",
      "outputs": [
        {
          "name": "",
          "type": "uint256"
        }
      ],
      "payable": false,
      "stateMutability": "view",
      "type": "function"
    },
    {
      "constant": true,
      "inputs": [
        {
          "name": "account",
          "type": "address"
        }
      ],
      "name": "isEscrow",
      "outputs": [
        {
          "name": "",
          "type": "bool"
        }
      ],
      "payable": false,
      "stateMutability": "view",
      "type": "function"
    },
    {
      "constant": true,
      "inputs": [],
      "name": "rewardFunds",
      "outputs": [
        {
          "name": "",
          "type": "uint256"
        }
      ],
      "payable": false,
      "stateMutability": "view",
      "type": "function"
    },
    {
      "constant": true,
      "inputs": [],
      "name": "bondFunds",
      "outputs": [
        {
          "name": "",
          "type": "uint256"
        }
      ],
      "payable": false,
      "stateMutability": "view",
      "type": "function"
    },
    {
      "constant": true,
      "inputs": [
        {
          "name": "account",
          "type": "address"
        }
      ],
      "name": "isGoalOwner",
      "outputs": [
        {
          "name": "",
          "type": "bool"
        }
      ],
      "payable": false,
      "stateMutability": "view",
      "type": "function"
    },
    {
      "constant": true,
      "inputs": [],
      "name": "rewardAmount",
      "outputs": [
        {
          "name": "",
          "type": "uint256"
        }
      ],
      "payable": false,
      "stateMutability": "view",
      "type": "function"
    },
    {
      "constant": true,
      "inputs": [],
      "name": "token",
      "outputs": [
        {
          "name": "",
          "type": "address"
        }
      ],
      "payable": false,
      "stateMutability": "view",
      "type": "function"
    },
    {
      "constant": true,
      "inputs": [
        {
          "name": "",
          "type": "bytes32"
        }
      ],
      "name": "suggestedSteps",
      "outputs": [
        {
          "name": "suggester",
          "type": "address"
        },
        {
          "name": "suggesterBond",
          "type": "uint256"
        },
        {
          "name": "ownerBond",
          "type": "uint256"
        },
        {
          "name": "timeSuggested",
          "type": "uint256"
        },
        {
          "name": "suggestionExpires",
          "type": "uint256"
        }
      ],
      "payable": false,
      "stateMutability": "view",
      "type": "function"
    },
    {
      "inputs": [
        {
          "name": "_token",
          "type": "address"
        },
        {
          "name": "_suggestionDuration",
          "type": "uint256"
        }
      ],
      "payable": false,
      "stateMutability": "nonpayable",
      "type": "constructor"
    },
    {
      "anonymous": false,
      "inputs": [
        {
          "indexed": true,
          "name": "payee",
          "type": "address"
        },
        {
          "indexed": false,
          "name": "tokenAmount",
          "type": "uint256"
        }
      ],
      "name": "Deposited",
      "type": "event"
    },
    {
      "anonymous": false,
      "inputs": [
        {
          "indexed": true,
          "name": "payee",
          "type": "address"
        },
        {
          "indexed": false,
          "name": "tokenAmount",
          "type": "uint256"
        }
      ],
      "name": "Withdrawn",
      "type": "event"
    },
    {
      "anonymous": false,
      "inputs": [
        {
          "indexed": false,
          "name": "protectionEnds",
          "type": "uint256"
        },
        {
          "indexed": false,
          "name": "timeNow",
          "type": "uint256"
        }
      ],
      "name": "StartProtection",
      "type": "event"
    },
    {
      "anonymous": false,
      "inputs": [
        {
          "indexed": false,
          "name": "blocktime",
          "type": "uint256"
        }
      ],
      "name": "TimeNow",
      "type": "event"
    },
    {
      "anonymous": false,
      "inputs": [
        {
          "indexed": false,
          "name": "expires",
          "type": "uint256"
        }
      ],
      "name": "SuggestionExpires",
      "type": "event"
    },
    {
      "anonymous": false,
      "inputs": [
        {
          "indexed": true,
          "name": "account",
          "type": "address"
        }
      ],
      "name": "EscrowRoleAdded",
      "type": "event"
    },
    {
      "anonymous": false,
      "inputs": [
        {
          "indexed": true,
          "name": "aionAddr",
          "type": "address"
        }
      ],
      "name": "AionAddressAdded",
      "type": "event"
    },
    {
      "anonymous": false,
      "inputs": [
        {
          "indexed": true,
          "name": "account",
          "type": "address"
        }
      ],
      "name": "GoalOwnerAdded",
      "type": "event"
    },
    {
      "constant": false,
      "inputs": [
        {
          "name": "_amountBond",
          "type": "uint256"
        },
        {
          "name": "_amountReward",
          "type": "uint256"
        }
      ],
      "name": "fundEscrow",
      "outputs": [],
      "payable": false,
      "stateMutability": "nonpayable",
      "type": "function"
    },
    {
      "constant": false,
      "inputs": [
        {
          "name": "_id",
          "type": "bytes32"
        },
        {
          "name": "_amount",
          "type": "uint256"
        },
        {
          "name": "_payee",
          "type": "address"
        }
      ],
      "name": "depositOnSuggest",
      "outputs": [],
      "payable": false,
      "stateMutability": "nonpayable",
      "type": "function"
    },
    {
      "constant": false,
      "inputs": [
        {
          "name": "_id",
          "type": "bytes32"
        }
      ],
      "name": "setSuggestionTimeOutTestVersion",
      "outputs": [],
      "payable": false,
      "stateMutability": "nonpayable",
      "type": "function"
    },
    {
      "constant": false,
      "inputs": [
        {
          "name": "_id",
          "type": "bytes32"
        }
      ],
      "name": "returnBondsOnTimeOut",
      "outputs": [],
      "payable": false,
      "stateMutability": "nonpayable",
      "type": "function"
    },
    {
      "constant": true,
      "inputs": [],
      "name": "getSuggestionDuration",
      "outputs": [
        {
          "name": "",
          "type": "uint256"
        }
      ],
      "payable": false,
      "stateMutability": "view",
      "type": "function"
    },
    {
      "constant": true,
      "inputs": [
        {
          "name": "_id",
          "type": "bytes32"
        }
      ],
      "name": "suggestionExpires",
      "outputs": [
        {
          "name": "",
          "type": "uint256"
        }
      ],
      "payable": false,
      "stateMutability": "view",
      "type": "function"
    },
    {
      "constant": true,
      "inputs": [
        {
          "name": "_id",
          "type": "bytes32"
        }
      ],
      "name": "suggesterBond",
      "outputs": [
        {
          "name": "",
          "type": "uint256"
        }
      ],
      "payable": false,
      "stateMutability": "view",
      "type": "function"
    },
    {
      "constant": false,
      "inputs": [
        {
          "name": "_id",
          "type": "bytes32"
        }
      ],
      "name": "disburseOnAccept",
      "outputs": [
        {
          "name": "",
          "type": "bool"
        }
      ],
      "payable": false,
      "stateMutability": "nonpayable",
      "type": "function"
    },
    {
      "constant": false,
      "inputs": [
        {
          "name": "_id",
          "type": "bytes32"
        }
      ],
      "name": "returnBondsOnReject",
      "outputs": [
        {
          "name": "",
          "type": "bool"
        }
      ],
      "payable": false,
      "stateMutability": "nonpayable",
      "type": "function"
    }
  ],
  "bytecode": "0x60806040523480156200001157600080fd5b506040516040806200339f833981018060405260408110156200003357600080fd5b8101908080519060200190929190805190602001909291905050506200006e620000626200024e60201b60201c565b6200025660201b60201c565b6200007e620002b760201b60201c565b600073ffffffffffffffffffffffffffffffffffffffff168273ffffffffffffffffffffffffffffffffffffffff161415620000b957600080fd5b6000811162000114576040517f08c379a000000000000000000000000000000000000000000000000000000000815260040180806020018281038252602a81526020018062003375602a913960400191505060405180910390fd5b81600b60006101000a81548173ffffffffffffffffffffffffffffffffffffffff021916908373ffffffffffffffffffffffffffffffffffffffff16021790555033600560006101000a81548173ffffffffffffffffffffffffffffffffffffffff021916908373ffffffffffffffffffffffffffffffffffffffff1602179055506001600881905550600160098190555080600a819055508173ffffffffffffffffffffffffffffffffffffffff16635add5186306040518263ffffffff1660e01b8152600401808273ffffffffffffffffffffffffffffffffffffffff1673ffffffffffffffffffffffffffffffffffffffff168152602001915050600060405180830381600087803b1580156200022d57600080fd5b505af115801562000242573d6000803e3d6000fd5b50505050505062000503565b600033905090565b620002718160006200033f60201b6200289f1790919060201c565b8073ffffffffffffffffffffffffffffffffffffffff167f5cf6dbc47bcb420f21943ab51cb07008bd0d23e277272b288dd028681e46147160405160405180910390a250565b620002e673fcfb45679539667f7ed55fa59a15c8cad73d9a4e60016200033f60201b6200289f1790919060201c565b73fcfb45679539667f7ed55fa59a15c8cad73d9a4e73ffffffffffffffffffffffffffffffffffffffff167f8581e161429a3f57c3c981c8849cb3a370d288de12e549408673a49caca45dd060405160405180910390a2565b6200035182826200042360201b60201c565b15620003c5576040517f08c379a000000000000000000000000000000000000000000000000000000000815260040180806020018281038252601f8152602001807f526f6c65733a206163636f756e7420616c72656164792068617320726f6c650081525060200191505060405180910390fd5b60018260000160008373ffffffffffffffffffffffffffffffffffffffff1673ffffffffffffffffffffffffffffffffffffffff16815260200190815260200160002060006101000a81548160ff0219169083151502179055505050565b60008073ffffffffffffffffffffffffffffffffffffffff168273ffffffffffffffffffffffffffffffffffffffff161415620004ac576040517f08c379a0000000000000000000000000000000000000000000000000000000008152600401808060200182810382526022815260200180620033536022913960400191505060405180910390fd5b8260000160008373ffffffffffffffffffffffffffffffffffffffff1673ffffffffffffffffffffffffffffffffffffffff16815260200190815260200160002060009054906101000a900460ff16905092915050565b612e4080620005136000396000f3fe608060405234801561001057600080fd5b50600436106101375760003560e01c8063ae1342e1116100b8578063dd29d0ed1161007c578063dd29d0ed146104c8578063e4d158a8146104e6578063ee1bb03614610542578063f7b2a7be14610570578063fc0c546a1461058e578063fd447ef0146105d857610137565b8063ae1342e11461036a578063b166a09f146103b0578063b48bfb381461040c578063c7e46fc514610452578063d71fe021146104aa57610137565b8063769a8b9a116100ff578063769a8b9a14610258578063949ad88d146102b457806394db5812146102d257806395f4f4e5146102f0578063a2d53f9a1461033257610137565b806318d63d9b1461013c5780632e0a69601461018657806345de58d3146101a45780635add5186146101d25780635dff689114610216575b600080fd5b610144610662565b604051808273ffffffffffffffffffffffffffffffffffffffff1673ffffffffffffffffffffffffffffffffffffffff16815260200191505060405180910390f35b61018e610688565b6040518082815260200191505060405180910390f35b6101d0600480360360208110156101ba57600080fd5b810190808035906020019092919050505061068e565b005b610214600480360360208110156101e857600080fd5b81019080803573ffffffffffffffffffffffffffffffffffffffff169060200190929190505050610765565b005b6102426004803603602081101561022c57600080fd5b810190808035906020019092919050505061085d565b6040518082815260200191505060405180910390f35b61029a6004803603602081101561026e57600080fd5b81019080803573ffffffffffffffffffffffffffffffffffffffff16906020019092919050505061088f565b604051808215151515815260200191505060405180910390f35b6102bc6108ac565b6040518082815260200191505060405180910390f35b6102da6108b6565b6040518082815260200191505060405180910390f35b61031c6004803603602081101561030657600080fd5b81019080803590602001909291905050506108bc565b6040518082815260200191505060405180910390f35b6103686004803603604081101561034857600080fd5b8101908080359060200190929190803590602001909291905050506108dc565b005b6103966004803603602081101561038057600080fd5b8101908080359060200190929190505050610c80565b604051808215151515815260200191505060405180910390f35b6103f2600480360360208110156103c657600080fd5b81019080803573ffffffffffffffffffffffffffffffffffffffff16906020019092919050505061123b565b604051808215151515815260200191505060405180910390f35b6104386004803603602081101561042257600080fd5b8101908080359060200190929190505050611258565b604051808215151515815260200191505060405180910390f35b6104a86004803603606081101561046857600080fd5b810190808035906020019092919080359060200190929190803573ffffffffffffffffffffffffffffffffffffffff169060200190929190505050611d04565b005b6104b261214c565b6040518082815260200191505060405180910390f35b6104d0612152565b6040518082815260200191505060405180910390f35b610528600480360360208110156104fc57600080fd5b81019080803573ffffffffffffffffffffffffffffffffffffffff169060200190929190505050612158565b604051808215151515815260200191505060405180910390f35b61056e6004803603602081101561055857600080fd5b8101908080359060200190929190505050612175565b005b610578612795565b6040518082815260200191505060405180910390f35b61059661279b565b604051808273ffffffffffffffffffffffffffffffffffffffff1673ffffffffffffffffffffffffffffffffffffffff16815260200191505060405180910390f35b610604600480360360208110156105ee57600080fd5b81019080803590602001909291905050506127c1565b604051808673ffffffffffffffffffffffffffffffffffffffff1673ffffffffffffffffffffffffffffffffffffffff1681526020018581526020018481526020018381526020018281526020019550505050505060405180910390f35b600560009054906101000a900473ffffffffffffffffffffffffffffffffffffffff1681565b60095481565b60004290508060046000848152602001908152602001600020600301819055507f62aabdd9fa523963849aea1b37c60f8832bac896db37cb187e77078fe0d7425b816040518082815260200191505060405180910390a16106fa600a548261281790919063ffffffff16565b60046000848152602001908152602001600020600401819055507f48a71570d7d5eb03be4acb9d93eb864ba76b96c1f712fa1cf1bca358f69a0fef60046000848152602001908152602001600020600401546040518082815260200191505060405180910390a15050565b600260009054906101000a900460ff16156107e8576040517f08c379a00000000000000000000000000000000000000000000000000000000081526004018080602001828103825260178152602001807f457363726f7720726f6c6520616c72656164792073657400000000000000000081525060200191505060405180910390fd5b6107fc81600361289f90919063ffffffff16565b8073ffffffffffffffffffffffffffffffffffffffff167fcff6116c063f9dc68129fcb58fcfe99bbbaa33d9ad777e285d7f08bf174d715260405160405180910390a26001600260006101000a81548160ff02191690831515021790555050565b600061088842600460008581526020019081526020016000206004015461297a90919063ffffffff16565b9050919050565b60006108a5826001612a0390919063ffffffff16565b9050919050565b6000600a54905090565b600a5481565b600060046000838152602001908152602001600020600101549050919050565b6108ec6108e7612ae1565b612158565b610941576040517f08c379a0000000000000000000000000000000000000000000000000000000008152600401808060200182810382526037815260200180612cff6037913960400191505060405180910390fd5b6109568260075461281790919063ffffffff16565b600781905550600b60009054906101000a900473ffffffffffffffffffffffffffffffffffffffff1673ffffffffffffffffffffffffffffffffffffffff166323b872dd3330856040518463ffffffff1660e01b8152600401808473ffffffffffffffffffffffffffffffffffffffff1673ffffffffffffffffffffffffffffffffffffffff1681526020018373ffffffffffffffffffffffffffffffffffffffff1673ffffffffffffffffffffffffffffffffffffffff1681526020018281526020019350505050602060405180830381600087803b158015610a3957600080fd5b505af1158015610a4d573d6000803e3d6000fd5b505050506040513d6020811015610a6357600080fd5b810190808051906020019092919050505050610a8a8160065461281790919063ffffffff16565b600681905550600b60009054906101000a900473ffffffffffffffffffffffffffffffffffffffff1673ffffffffffffffffffffffffffffffffffffffff166323b872dd3330846040518463ffffffff1660e01b8152600401808473ffffffffffffffffffffffffffffffffffffffff1673ffffffffffffffffffffffffffffffffffffffff1681526020018373ffffffffffffffffffffffffffffffffffffffff1673ffffffffffffffffffffffffffffffffffffffff1681526020018281526020019350505050602060405180830381600087803b158015610b6d57600080fd5b505af1158015610b81573d6000803e3d6000fd5b505050506040513d6020811015610b9757600080fd5b810190808051906020019092919050505050600b60009054906101000a900473ffffffffffffffffffffffffffffffffffffffff1673ffffffffffffffffffffffffffffffffffffffff166365c3ad4233610bfb848661281790919063ffffffff16565b6040518363ffffffff1660e01b8152600401808373ffffffffffffffffffffffffffffffffffffffff1673ffffffffffffffffffffffffffffffffffffffff16815260200182815260200192505050600060405180830381600087803b158015610c6457600080fd5b505af1158015610c78573d6000803e3d6000fd5b505050505050565b6000610c92610c8d612ae1565b612158565b610ce7576040517f08c379a0000000000000000000000000000000000000000000000000000000008152600401808060200182810382526037815260200180612cff6037913960400191505060405180910390fd5b60006004600084815260200190815260200160002060010154905080600b60009054906101000a900473ffffffffffffffffffffffffffffffffffffffff1673ffffffffffffffffffffffffffffffffffffffff166370a08231306040518263ffffffff1660e01b8152600401808273ffffffffffffffffffffffffffffffffffffffff1673ffffffffffffffffffffffffffffffffffffffff16815260200191505060206040518083038186803b158015610da257600080fd5b505afa158015610db6573d6000803e3d6000fd5b505050506040513d6020811015610dcc57600080fd5b81019080805190602001909291905050501015610e34576040517f08c379a0000000000000000000000000000000000000000000000000000000008152600401808060200182810382526037815260200180612c516037913960400191505060405180910390fd5b600081905060006004600086815260200190815260200160002060000160009054906101000a900473ffffffffffffffffffffffffffffffffffffffff16905060006004600087815260200190815260200160002060010181905550600b60009054906101000a900473ffffffffffffffffffffffffffffffffffffffff1673ffffffffffffffffffffffffffffffffffffffff1663a9059cbb82856040518363ffffffff1660e01b8152600401808373ffffffffffffffffffffffffffffffffffffffff1673ffffffffffffffffffffffffffffffffffffffff16815260200182815260200192505050602060405180830381600087803b158015610f3957600080fd5b505af1158015610f4d573d6000803e3d6000fd5b505050506040513d6020811015610f6357600080fd5b8101908080519060200190929190505050508073ffffffffffffffffffffffffffffffffffffffff167f7084f5476618d8e60b11ef0d7d3f06914655adb8793e28ff7f018d4c76d505d5846040518082815260200191505060405180910390a2600b60009054906101000a900473ffffffffffffffffffffffffffffffffffffffff1673ffffffffffffffffffffffffffffffffffffffff1663ad551cb782846040518363ffffffff1660e01b8152600401808373ffffffffffffffffffffffffffffffffffffffff1673ffffffffffffffffffffffffffffffffffffffff16815260200182815260200192505050602060405180830381600087803b15801561106c57600080fd5b505af1158015611080573d6000803e3d6000fd5b505050506040513d602081101561109657600080fd5b81019080805190602001909291905050505060006004600087815260200190815260200160002060020154905080600b60009054906101000a900473ffffffffffffffffffffffffffffffffffffffff1673ffffffffffffffffffffffffffffffffffffffff166370a08231306040518263ffffffff1660e01b8152600401808273ffffffffffffffffffffffffffffffffffffffff1673ffffffffffffffffffffffffffffffffffffffff16815260200191505060206040518083038186803b15801561116357600080fd5b505afa158015611177573d6000803e3d6000fd5b505050506040513d602081101561118d57600080fd5b810190808051906020019092919050505010156111f5576040517f08c379a0000000000000000000000000000000000000000000000000000000008152600401808060200182810382526033815260200180612d366033913960400191505060405180910390fd5b60008190506000600460008981526020019081526020016000206002018190555061122b8260075461281790919063ffffffff16565b6007819055505050505050919050565b6000611251826003612a0390919063ffffffff16565b9050919050565b600061126a611265612ae1565b612158565b6112bf576040517f08c379a0000000000000000000000000000000000000000000000000000000008152600401808060200182810382526037815260200180612cff6037913960400191505060405180910390fd5b60006004600084815260200190815260200160002060010154905080600b60009054906101000a900473ffffffffffffffffffffffffffffffffffffffff1673ffffffffffffffffffffffffffffffffffffffff166370a08231306040518263ffffffff1660e01b8152600401808273ffffffffffffffffffffffffffffffffffffffff1673ffffffffffffffffffffffffffffffffffffffff16815260200191505060206040518083038186803b15801561137a57600080fd5b505afa15801561138e573d6000803e3d6000fd5b505050506040513d60208110156113a457600080fd5b8101908080519060200190929190505050101561140c576040517f08c379a0000000000000000000000000000000000000000000000000000000008152600401808060200182810382526037815260200180612d946037913960400191505060405180910390fd5b60006004600085815260200190815260200160002060000160009054906101000a900473ffffffffffffffffffffffffffffffffffffffff16905060006004600086815260200190815260200160002060010181905550600b60009054906101000a900473ffffffffffffffffffffffffffffffffffffffff1673ffffffffffffffffffffffffffffffffffffffff1663a9059cbb82846040518363ffffffff1660e01b8152600401808373ffffffffffffffffffffffffffffffffffffffff1673ffffffffffffffffffffffffffffffffffffffff16815260200182815260200192505050602060405180830381600087803b15801561150c57600080fd5b505af1158015611520573d6000803e3d6000fd5b505050506040513d602081101561153657600080fd5b8101908080519060200190929190505050508073ffffffffffffffffffffffffffffffffffffffff167f7084f5476618d8e60b11ef0d7d3f06914655adb8793e28ff7f018d4c76d505d5836040518082815260200191505060405180910390a26115ad60085460065461297a90919063ffffffff16565b600b60009054906101000a900473ffffffffffffffffffffffffffffffffffffffff1673ffffffffffffffffffffffffffffffffffffffff166370a08231306040518263ffffffff1660e01b8152600401808273ffffffffffffffffffffffffffffffffffffffff1673ffffffffffffffffffffffffffffffffffffffff16815260200191505060206040518083038186803b15801561164c57600080fd5b505afa158015611660573d6000803e3d6000fd5b505050506040513d602081101561167657600080fd5b810190808051906020019092919050505010156116de576040517f08c379a0000000000000000000000000000000000000000000000000000000008152600401808060200182810382526030815260200180612c216030913960400191505060405180910390fd5b6116f560085460065461297a90919063ffffffff16565b600681905550600b60009054906101000a900473ffffffffffffffffffffffffffffffffffffffff1673ffffffffffffffffffffffffffffffffffffffff1663a9059cbb826008546040518363ffffffff1660e01b8152600401808373ffffffffffffffffffffffffffffffffffffffff1673ffffffffffffffffffffffffffffffffffffffff16815260200182815260200192505050602060405180830381600087803b1580156117a657600080fd5b505af11580156117ba573d6000803e3d6000fd5b505050506040513d60208110156117d057600080fd5b8101908080519060200190929190505050508073ffffffffffffffffffffffffffffffffffffffff167f7084f5476618d8e60b11ef0d7d3f06914655adb8793e28ff7f018d4c76d505d56008546040518082815260200191505060405180910390a260006118496008548461281790919063ffffffff16565b9050600b60009054906101000a900473ffffffffffffffffffffffffffffffffffffffff1673ffffffffffffffffffffffffffffffffffffffff1663ad551cb783836040518363ffffffff1660e01b8152600401808373ffffffffffffffffffffffffffffffffffffffff1673ffffffffffffffffffffffffffffffffffffffff16815260200182815260200192505050602060405180830381600087803b1580156118f457600080fd5b505af1158015611908573d6000803e3d6000fd5b505050506040513d602081101561191e57600080fd5b81019080805190602001909291905050505060006004600087815260200190815260200160002060020154905080600b60009054906101000a900473ffffffffffffffffffffffffffffffffffffffff1673ffffffffffffffffffffffffffffffffffffffff166370a08231306040518263ffffffff1660e01b8152600401808273ffffffffffffffffffffffffffffffffffffffff1673ffffffffffffffffffffffffffffffffffffffff16815260200191505060206040518083038186803b1580156119eb57600080fd5b505afa1580156119ff573d6000803e3d6000fd5b505050506040513d6020811015611a1557600080fd5b81019080805190602001909291905050501015611a7d576040517f08c379a0000000000000000000000000000000000000000000000000000000008152600401808060200182810382526033815260200180612bc16033913960400191505060405180910390fd5b600081905060006004600089815260200190815260200160002060020181905550600b60009054906101000a900473ffffffffffffffffffffffffffffffffffffffff1673ffffffffffffffffffffffffffffffffffffffff1663a9059cbb600560009054906101000a900473ffffffffffffffffffffffffffffffffffffffff16846040518363ffffffff1660e01b8152600401808373ffffffffffffffffffffffffffffffffffffffff1673ffffffffffffffffffffffffffffffffffffffff16815260200182815260200192505050602060405180830381600087803b158015611b6957600080fd5b505af1158015611b7d573d6000803e3d6000fd5b505050506040513d6020811015611b9357600080fd5b810190808051906020019092919050505050600560009054906101000a900473ffffffffffffffffffffffffffffffffffffffff1673ffffffffffffffffffffffffffffffffffffffff167f7084f5476618d8e60b11ef0d7d3f06914655adb8793e28ff7f018d4c76d505d5836040518082815260200191505060405180910390a2600b60009054906101000a900473ffffffffffffffffffffffffffffffffffffffff1673ffffffffffffffffffffffffffffffffffffffff1663ad551cb733836040518363ffffffff1660e01b8152600401808373ffffffffffffffffffffffffffffffffffffffff1673ffffffffffffffffffffffffffffffffffffffff16815260200182815260200192505050602060405180830381600087803b158015611cbe57600080fd5b505af1158015611cd2573d6000803e3d6000fd5b505050506040513d6020811015611ce857600080fd5b8101908080519060200190929190505050505050505050919050565b611d14611d0f612ae1565b612158565b15611d6a576040517f08c379a0000000000000000000000000000000000000000000000000000000008152600401808060200182810382526034815260200180612ca96034913960400191505060405180910390fd5b336004600085815260200190815260200160002060000160006101000a81548173ffffffffffffffffffffffffffffffffffffffff021916908373ffffffffffffffffffffffffffffffffffffffff160217905550611de882600460008681526020019081526020016000206001015461281790919063ffffffff16565b6004600085815260200190815260200160002060010181905550600b60009054906101000a900473ffffffffffffffffffffffffffffffffffffffff1673ffffffffffffffffffffffffffffffffffffffff166323b872dd3330856040518463ffffffff1660e01b8152600401808473ffffffffffffffffffffffffffffffffffffffff1673ffffffffffffffffffffffffffffffffffffffff1681526020018373ffffffffffffffffffffffffffffffffffffffff1673ffffffffffffffffffffffffffffffffffffffff1681526020018281526020019350505050602060405180830381600087803b158015611edf57600080fd5b505af1158015611ef3573d6000803e3d6000fd5b505050506040513d6020811015611f0957600080fd5b8101908080519060200190929190505050508073ffffffffffffffffffffffffffffffffffffffff167f2da466a7b24304f47e87fa2e1e5a81b9831ce54fec19055ce277ca2f39ba42c4836040518082815260200191505060405180910390a26009546007541015611fc6576040517f08c379a0000000000000000000000000000000000000000000000000000000008152600401808060200182810382526021815260200180612c886021913960400191505060405180910390fd5b611fdd60095460075461297a90919063ffffffff16565b60078190555061200e600954600460008681526020019081526020016000206002015461281790919063ffffffff16565b6004600085815260200190815260200160002060020181905550336004600085815260200190815260200160002060000160006101000a81548173ffffffffffffffffffffffffffffffffffffffff021916908373ffffffffffffffffffffffffffffffffffffffff16021790555061208683612ae9565b600b60009054906101000a900473ffffffffffffffffffffffffffffffffffffffff1673ffffffffffffffffffffffffffffffffffffffff166365c3ad4233846040518363ffffffff1660e01b8152600401808373ffffffffffffffffffffffffffffffffffffffff1673ffffffffffffffffffffffffffffffffffffffff16815260200182815260200192505050600060405180830381600087803b15801561212f57600080fd5b505af1158015612143573d6000803e3d6000fd5b50505050505050565b60065481565b60075481565b600061216e826000612a0390919063ffffffff16565b9050919050565b612185612180612ae1565b61088f565b6121da576040517f08c379a000000000000000000000000000000000000000000000000000000000815260040180806020018281038252602d815260200180612bf4602d913960400191505060405180910390fd5b6004600082815260200190815260200160002060040154421015612249576040517f08c379a000000000000000000000000000000000000000000000000000000000815260040180806020018281038252602b815260200180612d69602b913960400191505060405180910390fd5b60006004600083815260200190815260200160002060010154905080600b60009054906101000a900473ffffffffffffffffffffffffffffffffffffffff1673ffffffffffffffffffffffffffffffffffffffff166370a08231306040518263ffffffff1660e01b8152600401808273ffffffffffffffffffffffffffffffffffffffff1673ffffffffffffffffffffffffffffffffffffffff16815260200191505060206040518083038186803b15801561230457600080fd5b505afa158015612318573d6000803e3d6000fd5b505050506040513d602081101561232e57600080fd5b81019080805190602001909291905050501015612396576040517f08c379a000000000000000000000000000000000000000000000000000000000815260040180806020018281038252604a815260200180612dcb604a913960600191505060405180910390fd5b600081905060006004600085815260200190815260200160002060000160009054906101000a900473ffffffffffffffffffffffffffffffffffffffff16905060006004600086815260200190815260200160002060010181905550600b60009054906101000a900473ffffffffffffffffffffffffffffffffffffffff1673ffffffffffffffffffffffffffffffffffffffff1663a9059cbb82856040518363ffffffff1660e01b8152600401808373ffffffffffffffffffffffffffffffffffffffff1673ffffffffffffffffffffffffffffffffffffffff16815260200182815260200192505050602060405180830381600087803b15801561249b57600080fd5b505af11580156124af573d6000803e3d6000fd5b505050506040513d60208110156124c557600080fd5b8101908080519060200190929190505050508073ffffffffffffffffffffffffffffffffffffffff167f7084f5476618d8e60b11ef0d7d3f06914655adb8793e28ff7f018d4c76d505d5846040518082815260200191505060405180910390a2600b60009054906101000a900473ffffffffffffffffffffffffffffffffffffffff1673ffffffffffffffffffffffffffffffffffffffff1663ad551cb782846040518363ffffffff1660e01b8152600401808373ffffffffffffffffffffffffffffffffffffffff1673ffffffffffffffffffffffffffffffffffffffff16815260200182815260200192505050602060405180830381600087803b1580156125ce57600080fd5b505af11580156125e2573d6000803e3d6000fd5b505050506040513d60208110156125f857600080fd5b81019080805190602001909291905050505060006004600086815260200190815260200160002060020154905080600b60009054906101000a900473ffffffffffffffffffffffffffffffffffffffff1673ffffffffffffffffffffffffffffffffffffffff166370a08231306040518263ffffffff1660e01b8152600401808273ffffffffffffffffffffffffffffffffffffffff1673ffffffffffffffffffffffffffffffffffffffff16815260200191505060206040518083038186803b1580156126c557600080fd5b505afa1580156126d9573d6000803e3d6000fd5b505050506040513d60208110156126ef57600080fd5b81019080805190602001909291905050501015612757576040517f08c379a0000000000000000000000000000000000000000000000000000000008152600401808060200182810382526033815260200180612bc16033913960400191505060405180910390fd5b600060046000878152602001908152602001600020600201819055506127888160075461281790919063ffffffff16565b6007819055505050505050565b60085481565b600b60009054906101000a900473ffffffffffffffffffffffffffffffffffffffff1681565b60046020528060005260406000206000915090508060000160009054906101000a900473ffffffffffffffffffffffffffffffffffffffff16908060010154908060020154908060030154908060040154905085565b600080828401905083811015612895576040517f08c379a000000000000000000000000000000000000000000000000000000000815260040180806020018281038252601b8152602001807f536166654d6174683a206164646974696f6e206f766572666c6f77000000000081525060200191505060405180910390fd5b8091505092915050565b6128a98282612a03565b1561291c576040517f08c379a000000000000000000000000000000000000000000000000000000000815260040180806020018281038252601f8152602001807f526f6c65733a206163636f756e7420616c72656164792068617320726f6c650081525060200191505060405180910390fd5b60018260000160008373ffffffffffffffffffffffffffffffffffffffff1673ffffffffffffffffffffffffffffffffffffffff16815260200190815260200160002060006101000a81548160ff0219169083151502179055505050565b6000828211156129f2576040517f08c379a000000000000000000000000000000000000000000000000000000000815260040180806020018281038252601e8152602001807f536166654d6174683a207375627472616374696f6e206f766572666c6f77000081525060200191505060405180910390fd5b600082840390508091505092915050565b60008073ffffffffffffffffffffffffffffffffffffffff168273ffffffffffffffffffffffffffffffffffffffff161415612a8a576040517f08c379a0000000000000000000000000000000000000000000000000000000008152600401808060200182810382526022815260200180612cdd6022913960400191505060405180910390fd5b8260000160008373ffffffffffffffffffffffffffffffffffffffff1673ffffffffffffffffffffffffffffffffffffffff16815260200190815260200160002060009054906101000a900460ff16905092915050565b600033905090565b60004290508060046000848152602001908152602001600020600301819055507f62aabdd9fa523963849aea1b37c60f8832bac896db37cb187e77078fe0d7425b816040518082815260200191505060405180910390a1612b55600a548261281790919063ffffffff16565b60046000848152602001908152602001600020600401819055507f48a71570d7d5eb03be4acb9d93eb864ba76b96c1f712fa1cf1bca358f69a0fef60046000848152602001908152602001600020600401546040518082815260200191505060405180910390a1505056fe42726f6b656e3a20436f6e74726163742063616e2774206166666f726420746f20726566756e64206f776e657220626f6e642141696f6e20526f6c653a2063616c6c657220646f6573206e6f742068617665207468652041696f6e20726f6c6542726f6b656e3a20436f6e74726163742063616e2774206166666f726420746f20706179206f7574207265776172642142726f6b656e3a20636f6e74726163742063616e2774206166666f726420746f20726566756e642073756767657374657220626f6e64214f776e65722068617320696e73756666696369656e7420626f6e642066756e6473476f616c4f776e657220526f6c653a20476f616c4f776e65722043414e204e4f542063616c6c20746869732066756e6374696f6e526f6c65733a206163636f756e7420697320746865207a65726f2061646472657373476f616c4f776e657220526f6c653a2063616c6c657220646f6573206e6f7420686176652074686520476f616c4f776e657220726f6c6542726f6b656e3a20636f6e74726163742063616e2774206166666f726420746f20726566756e64206f776e657220626f6e6421457363726f773a2063757272656e742074696d65206973206265666f72652072656c656173652074696d6542726f6b656e3a20436f6e74726163742063616e2774206166666f726420746f20726566756e642073756767657374657220626f6e64215265717565737465642053756767657374657220426f6e6420526566756e64206973204d4f5245207468616e20746f6b656e2062616c616e6365206f662074686520636f6e7472616374a165627a7a72305820755952cf1b8bd951e07b40274daa6cf24d4d37921e91a13656388bd89aaf086c0029526f6c65733a206163636f756e7420697320746865207a65726f20616464726573735f73756767657374696f6e4475726174696f6e206d7573742062652067726561746572207468616e2030",
  "source": "pragma solidity ^0.5.0; \n\n\nimport \"./SafeMath.sol\";\nimport \"./ERC20.sol\";\nimport \"./Ownable.sol\";\nimport \"./Address.sol\";\nimport \"./GoalOwnerRole.sol\";\nimport \"./AionRole.sol\";\nimport \"./EscrowRole.sol\";\n\n\n\n// interface Aion\ncontract Aion {\n //using SafeERC20 for ERC20;\n \n //uint256 protectionPeriod = token.protectionPeriod;\n  uint256 public serviceFee;\n  function ScheduleCall(uint256 blocknumber, address to, uint256 value, \n    uint256 gaslimit, uint256 gasprice, bytes memory data, bool schedType) public\n      payable returns (uint, address);\n}\n\ncontract GoalEscrow is GoalOwnerRole, AionRole, EscrowRole  {\n  using SafeMath for uint256;\n // using SafeERC20 for ERC20;\n \n  event Deposited(address indexed payee, uint256 tokenAmount);\n  event Withdrawn(address indexed payee, uint256 tokenAmount);\n  event StartProtection(uint256 protectionEnds, uint timeNow);\n  event TimeNow(uint256 blocktime);\n  event SuggestionExpires(uint256 expires);\n  mapping ( bytes32 => Suggester) public suggestedSteps;\n\n  struct Suggester {\n   address suggester;\n   uint256 suggesterBond;\n   uint256 ownerBond;\n   uint256 timeSuggested;\n   uint256 suggestionExpires;\n  }\n\n  address public goalOwner;\n  uint256 public rewardFunds;\n  uint256 public bondFunds;\n  uint256 public rewardAmount;\n  uint256 public ownerBondAmount; \n  uint256 public suggestionDuration;\n    \n  \n  ERC20 public token;\n  Aion aion;\n\n  constructor (ERC20 _token, uint256 _suggestionDuration) public {\n    require(address(_token) != address(0));\n    require(_suggestionDuration > 0, \"_suggestionDuration must be greater than 0\"); \n    token = _token;\n    goalOwner = msg.sender;\n    rewardAmount = 1;\n    ownerBondAmount = 1;\n    suggestionDuration = _suggestionDuration;\n    _token._addEscrowRole(address(this));\n } \n \n  // -- can't do a transfer and update without the the escrow contract recieving the call and checking that it got the tokens\n /* function deployAndApprove(uint _amountBond, uint _amountReward) public onlyOwner { \n   uint totalToApprove = _amountBond.add(_amountReward);\n   token.approve(address(this), totalToApprove);\n }*/  \n\n  function fundEscrow(uint _amountBond, uint _amountReward) public onlyGoalOwner {\n   bondFunds = bondFunds.add(_amountBond); \n   token.transferFrom(msg.sender, address(this), _amountBond);\n   rewardFunds = rewardFunds.add(_amountReward);\n   token.transferFrom(msg.sender, address(this), _amountReward);\n   token.unsetRestrictedTokens(msg.sender, _amountBond.add(_amountReward));\n //  token._addEscrowRole(address(this));\n  } \n\n/*   ERC20Mock.approve(address(this), _amount); */\n \n\t         //** SUGGEST **//\n                  /*only suggester*/\n\n  function depositOnSuggest(bytes32 _id, uint _amount, address _payee) public notGoalOwner {\n    //set suggester address\n    suggestedSteps[_id].suggester = msg.sender;\n    //set suggester bond\n    suggestedSteps[_id].suggesterBond = suggestedSteps[_id].suggesterBond.add(_amount);\n    token.transferFrom(msg.sender, address(this), _amount); \n    emit Deposited(_payee, _amount); \n    //apply owner bond\n    require(bondFunds >= ownerBondAmount, \"Owner has insufficient bond funds\");\n    bondFunds = bondFunds.sub(ownerBondAmount);  \n    suggestedSteps[_id].ownerBond = suggestedSteps[_id].ownerBond.add(ownerBondAmount);\n    suggestedSteps[_id].suggester = msg.sender;\n    setSuggestionTimeOut(_id);\n    token.unsetRestrictedTokens(msg.sender, _amount);\n  }\n\n  function setSuggestionTimeOutTestVersion(bytes32 _id) public {\n   uint256 timeNow = block.timestamp;\n   suggestedSteps[_id].timeSuggested = timeNow;\n   emit TimeNow(timeNow);\n   suggestedSteps[_id].suggestionExpires = timeNow.add(suggestionDuration);\n   emit SuggestionExpires(suggestedSteps[_id].suggestionExpires);\n   // schedule_returnBondsOnTimeOut(_id, timeNow.add(timeOUt));\n  }\n\n  function setSuggestionTimeOut(bytes32 _id) private {\n    uint256 timeNow = block.timestamp;\n    suggestedSteps[_id].timeSuggested = timeNow;\n    emit TimeNow(timeNow);\n    suggestedSteps[_id].suggestionExpires = timeNow.add(suggestionDuration);\n    emit SuggestionExpires(suggestedSteps[_id].suggestionExpires);\n    //schedule_returnBondsOnTimeOut(_id, timeNow.add(suggestionDuration));\n}\n\n  function checkForTimedOutSuggestions (bytes32 _id) internal {\n      returnBondsOnTimeOut(_id);\n      \n  }\n  function schedule_returnBondsOnTimeOut(uint256 value, bytes32 _id, uint256 callTime, uint256 gasprice, uint256 gaslimit, uint256 time_or_block) internal {\n   aion = Aion(0xFcFB45679539667f7ed55FA59A15c8Cad73d9a4E);\n   bytes memory data = abi.encodeWithSelector(bytes4(keccak256('returnBondsOnTimeOut(bytes32 )')),_id);\n   uint callCost = 200000*1e9 + aion.serviceFee();\n   aion.ScheduleCall.value(callCost) (callTime,\n    address(this), 0, 200000,1e9, data, true);  \n  }\n\n\t//** TIME OUT -- Contract disburses reward and bonds **//\n  function returnBondsOnTimeOut(bytes32 _id) public onlyAionRole {\n    require(block.timestamp >= suggestedSteps[_id].suggestionExpires, \"Escrow: current time is before release time\");\n    uint256 suggesterBondRefundAmount = suggestedSteps[_id].suggesterBond;\n    require(token.balanceOf(address(this)) >= suggesterBondRefundAmount,\"Requested Suggester Bond Refund is MORE than token balance of the contract\");\n    //suggester\n    uint256 suggesterProtectAmount = suggesterBondRefundAmount; \n    address payee = suggestedSteps[_id].suggester;\n    suggestedSteps[_id].suggesterBond = 0;\n    //return suggester bond \n    token.transfer(payee, suggesterBondRefundAmount);\n    emit Withdrawn(payee, suggesterBondRefundAmount);\n    //protect tokens\n    token.timeProtectTokens(payee, suggesterProtectAmount);\n    // schedule end protection \n    //schedule_removeTokenTimeProtection(payee, suggesterProtectAmount);    \n    //owner \n    uint256 ownerBondRefundAmount = suggestedSteps[_id].ownerBond;\n    require(token.balanceOf(address(this)) >= ownerBondRefundAmount, \"Broken: Contract can't afford to refund owner bond!\"); \n    suggestedSteps[_id].ownerBond = 0;\n    bondFunds = bondFunds.add(ownerBondRefundAmount);\t\n    //return owner bond\n// no transfer * token.transfer(msg.sender, ownerBondRefundAmount);\n// no transfer * emit Withdrawn(msg.sender, ownerBondRefundAmount);\n    //protect tokens\n//no transfer * no protect * token.timeProtectTokens(msg.sender, ownerProtectAmount);\n    //schedule end protection  \n //no transfer * no protect * no clock * // schedule_removeTokenTimeProtection(owner, ownerProtectAmount);\n  }\n\n  function getSuggestionDuration() public view returns(uint256) {\n      return suggestionDuration; \n  }\n\n  function suggestionExpires(bytes32 _id) public view returns (uint256) {\n    return  suggestedSteps[_id].suggestionExpires.sub(block.timestamp);\n  }\n\n  function suggesterBond (bytes32 _id) public view returns (uint256) {\n    return suggestedSteps[_id].suggesterBond;\n  }  \n\n  function schedule_removeTokenTimeProtection (uint256 value, address _address, uint256 _amount, uint256 gasprice, uint256 gaslimit, uint256 time_or_block)\n   private {\n   aion = Aion(0xFcFB45679539667f7ed55FA59A15c8Cad73d9a4E);\n  // uint protectionPeriod = token.protectionPeriod;\n   bytes memory data =\n     abi.encodeWithSelector(bytes4(keccak256('removeTokenTimeProtection(address,uint256)')),_address, _amount);\n   uint256 callCost = 200000*1e9 + aion.serviceFee();\n   //aion.ScheduleCall.value(callCost)( block.number+15, address(this), value, gaslimit, gasprice, hex\"00\", time_or_block);\n  }\n\n  function disburseOnAccept(bytes32 _id) public onlyGoalOwner returns (bool)  {\n    uint256 suggesterBondRefundAmount = suggestedSteps[_id].suggesterBond;\n    require(token.balanceOf(address(this)) >= suggesterBondRefundAmount, \"Broken: Contract can't afford to refund suggester bond!\");\n    //return suggester bond\n    address payee = suggestedSteps[_id].suggester;\n    suggestedSteps[_id].suggesterBond = 0;\n    token.transfer(payee, suggesterBondRefundAmount);\n    emit Withdrawn(payee, suggesterBondRefundAmount);\n    //pay reward to suggester\n    require(token.balanceOf(address(this)) >= rewardFunds.sub(rewardAmount), \"Broken: Contract can't afford to pay out reward!\");\n    rewardFunds = rewardFunds.sub(rewardAmount);\n    token.transfer(payee, rewardAmount); \n    emit Withdrawn(payee, rewardAmount);    \n    //protect suggester tokens\n    uint256 suggesterProtectAmount = suggesterBondRefundAmount.add(rewardAmount); \n    token.timeProtectTokens(payee, suggesterProtectAmount); \n   //start protection clock    \n    //schedule_removeTokenTimeProtection(payee, suggesterProtectAmount);    \n    // return owner bond \n    uint256 ownerBondRefundAmount = suggestedSteps[_id].ownerBond;\n    require(token.balanceOf(address(this)) >= ownerBondRefundAmount, \"Broken: Contract can't afford to refund owner bond!\"); \n    uint256 ownerProtectAmount = ownerBondRefundAmount;\n    suggestedSteps[_id].ownerBond = 0;\n    token.transfer(goalOwner, ownerBondRefundAmount);\n    emit Withdrawn(goalOwner, ownerBondRefundAmount);\n    //protect owner tokens \n    token.timeProtectTokens(msg.sender, ownerProtectAmount);\n    //start protection clock    \n   // schedule_removeTokenTimeProtection(msg.sender, ownerProtectAmount);\n  }\n\n\t//** REJECT STEP || Contract returns bonds **// \n  function returnBondsOnReject(bytes32 _id) public onlyGoalOwner returns (bool) {\n    //return suggester bond\n    uint256 suggesterBondRefundAmount = suggestedSteps[_id].suggesterBond;\n    require(token.balanceOf(address(this)) >= suggesterBondRefundAmount,\"Broken: contract can't afford to refund suggester bond!\");\n    uint256 suggesterProtectAmount = suggesterBondRefundAmount;\n    address payee = suggestedSteps[_id].suggester;\n    suggestedSteps[_id].suggesterBond = 0;\n    token.transfer(payee, suggesterBondRefundAmount);\n    emit Withdrawn(payee, suggesterBondRefundAmount);\n    //protect suggester return bond\n    token.timeProtectTokens(payee, suggesterProtectAmount);\n    //start protection clock\n    //schedule_removeTokenTimeProtection(payee, suggesterProtectAmount);    \n   //return owner bond\n    uint256 ownerBondRefundAmount = suggestedSteps[_id].ownerBond;\n    require(token.balanceOf(address(this)) >= ownerBondRefundAmount,\"Broken: contract can't afford to refund owner bond!\"); \n    uint256 ownerProtectAmount = ownerBondRefundAmount; \n    suggestedSteps[_id].ownerBond = 0;\n    bondFunds = bondFunds.add(ownerBondRefundAmount); \n// no transfer * token.transfer(, ownerBondRefundAmount);\n// no transfer *  emit Withdrawn(msg.sender, ownerBondRefundAmount);\n    //protect tokens\n// no transfer * no protect * token.timeProtectTokens(msg.sender, ownerProtectAmount);\n    // start protection clock\n// no transfer * no protect * no clock *  schedule_removeTokenTimeProtection(msg.sender, ownerProtectAmount);\n  }\n}\n",
  "sourcePath": "/home/zmg/Scratch/gz/GoalZappTruffle/contracts/GoalEscrow.sol",
  "compiler": {
    "name": "solc",
    "version": "0.5.8+commit.23d335f2.Emscripten.clang"
  },
  "schemaVersion": "3.0.15",
  "updatedAt": "2019-09-12T03:28:08.242Z",
  "devdoc": {
    "methods": {}
  },
  "userdoc": {
    "methods": {}
  }
}