{
  "contractName": "GoalEscrow",
  "abi": [
    {
      "constant": true,
      "inputs": [],
      "name": "goalOwner",
      "outputs": [
        {
          "name": "",
          "type": "address"
        }
      ],
      "payable": false,
      "stateMutability": "view",
      "type": "function"
    },
    {
      "constant": true,
      "inputs": [],
      "name": "ownerBondAmount",
      "outputs": [
        {
          "name": "",
          "type": "uint256"
        }
      ],
      "payable": false,
      "stateMutability": "view",
      "type": "function"
    },
    {
      "constant": false,
      "inputs": [],
      "name": "renounceOwnership",
      "outputs": [],
      "payable": false,
      "stateMutability": "nonpayable",
      "type": "function"
    },
    {
      "constant": true,
      "inputs": [],
      "name": "owner",
      "outputs": [
        {
          "name": "",
          "type": "address"
        }
      ],
      "payable": false,
      "stateMutability": "view",
      "type": "function"
    },
    {
      "constant": true,
      "inputs": [],
      "name": "isOwner",
      "outputs": [
        {
          "name": "",
          "type": "bool"
        }
      ],
      "payable": false,
      "stateMutability": "view",
      "type": "function"
    },
    {
      "constant": true,
      "inputs": [],
      "name": "suggestionDuration",
      "outputs": [
        {
          "name": "",
          "type": "uint256"
        }
      ],
      "payable": false,
      "stateMutability": "view",
      "type": "function"
    },
    {
      "constant": true,
      "inputs": [],
      "name": "rewardFunds",
      "outputs": [
        {
          "name": "",
          "type": "uint256"
        }
      ],
      "payable": false,
      "stateMutability": "view",
      "type": "function"
    },
    {
      "constant": true,
      "inputs": [],
      "name": "bondFunds",
      "outputs": [
        {
          "name": "",
          "type": "uint256"
        }
      ],
      "payable": false,
      "stateMutability": "view",
      "type": "function"
    },
    {
      "constant": false,
      "inputs": [
        {
          "name": "newOwner",
          "type": "address"
        }
      ],
      "name": "transferOwnership",
      "outputs": [],
      "payable": false,
      "stateMutability": "nonpayable",
      "type": "function"
    },
    {
      "constant": true,
      "inputs": [],
      "name": "rewardAmount",
      "outputs": [
        {
          "name": "",
          "type": "uint256"
        }
      ],
      "payable": false,
      "stateMutability": "view",
      "type": "function"
    },
    {
      "constant": true,
      "inputs": [],
      "name": "token",
      "outputs": [
        {
          "name": "",
          "type": "address"
        }
      ],
      "payable": false,
      "stateMutability": "view",
      "type": "function"
    },
    {
      "constant": true,
      "inputs": [
        {
          "name": "",
          "type": "bytes32"
        }
      ],
      "name": "suggestedSteps",
      "outputs": [
        {
          "name": "suggester",
          "type": "address"
        },
        {
          "name": "suggesterBond",
          "type": "uint256"
        },
        {
          "name": "ownerBond",
          "type": "uint256"
        },
        {
          "name": "timeSuggested",
          "type": "uint256"
        },
        {
          "name": "suggestionExpires",
          "type": "uint256"
        }
      ],
      "payable": false,
      "stateMutability": "view",
      "type": "function"
    },
    {
      "inputs": [
        {
          "name": "_token",
          "type": "address"
        },
        {
          "name": "_suggestionDuration",
          "type": "uint256"
        }
      ],
      "payable": false,
      "stateMutability": "nonpayable",
      "type": "constructor"
    },
    {
      "anonymous": false,
      "inputs": [
        {
          "indexed": true,
          "name": "payee",
          "type": "address"
        },
        {
          "indexed": false,
          "name": "tokenAmount",
          "type": "uint256"
        }
      ],
      "name": "Deposited",
      "type": "event"
    },
    {
      "anonymous": false,
      "inputs": [
        {
          "indexed": true,
          "name": "payee",
          "type": "address"
        },
        {
          "indexed": false,
          "name": "tokenAmount",
          "type": "uint256"
        }
      ],
      "name": "Withdrawn",
      "type": "event"
    },
    {
      "anonymous": false,
      "inputs": [
        {
          "indexed": false,
          "name": "protectionEnds",
          "type": "uint256"
        },
        {
          "indexed": false,
          "name": "timeNow",
          "type": "uint256"
        }
      ],
      "name": "StartProtection",
      "type": "event"
    },
    {
      "anonymous": false,
      "inputs": [
        {
          "indexed": false,
          "name": "blocktime",
          "type": "uint256"
        }
      ],
      "name": "TimeNow",
      "type": "event"
    },
    {
      "anonymous": false,
      "inputs": [
        {
          "indexed": false,
          "name": "expires",
          "type": "uint256"
        }
      ],
      "name": "SuggestionExpires",
      "type": "event"
    },
    {
      "anonymous": false,
      "inputs": [
        {
          "indexed": true,
          "name": "previousOwner",
          "type": "address"
        },
        {
          "indexed": true,
          "name": "newOwner",
          "type": "address"
        }
      ],
      "name": "OwnershipTransferred",
      "type": "event"
    },
    {
      "constant": false,
      "inputs": [
        {
          "name": "_amountBond",
          "type": "uint256"
        },
        {
          "name": "_amountReward",
          "type": "uint256"
        }
      ],
      "name": "fundEscrow",
      "outputs": [],
      "payable": false,
      "stateMutability": "nonpayable",
      "type": "function"
    },
    {
      "constant": false,
      "inputs": [
        {
          "name": "_id",
          "type": "bytes32"
        },
        {
          "name": "_amount",
          "type": "uint256"
        },
        {
          "name": "_payee",
          "type": "address"
        }
      ],
      "name": "depositOnSuggestTestVersion",
      "outputs": [],
      "payable": false,
      "stateMutability": "nonpayable",
      "type": "function"
    },
    {
      "constant": false,
      "inputs": [
        {
          "name": "_id",
          "type": "bytes32"
        },
        {
          "name": "_amount",
          "type": "uint256"
        },
        {
          "name": "_payee",
          "type": "address"
        }
      ],
      "name": "depositOnSuggest",
      "outputs": [],
      "payable": false,
      "stateMutability": "nonpayable",
      "type": "function"
    },
    {
      "constant": false,
      "inputs": [
        {
          "name": "_id",
          "type": "bytes32"
        }
      ],
      "name": "setSuggestionTimeOutTestVersion",
      "outputs": [],
      "payable": false,
      "stateMutability": "nonpayable",
      "type": "function"
    },
    {
      "constant": false,
      "inputs": [
        {
          "name": "_id",
          "type": "bytes32"
        }
      ],
      "name": "setSuggestionTimeOut",
      "outputs": [],
      "payable": false,
      "stateMutability": "nonpayable",
      "type": "function"
    },
    {
      "constant": false,
      "inputs": [
        {
          "name": "_id",
          "type": "bytes32"
        }
      ],
      "name": "checkForTimedOutSuggestions",
      "outputs": [],
      "payable": false,
      "stateMutability": "nonpayable",
      "type": "function"
    },
    {
      "constant": false,
      "inputs": [
        {
          "name": "value",
          "type": "uint256"
        },
        {
          "name": "_id",
          "type": "bytes32"
        },
        {
          "name": "callTime",
          "type": "uint256"
        },
        {
          "name": "gasprice",
          "type": "uint256"
        },
        {
          "name": "gaslimit",
          "type": "uint256"
        },
        {
          "name": "time_or_block",
          "type": "uint256"
        }
      ],
      "name": "schedule_returnBondsOnTimeOut",
      "outputs": [],
      "payable": false,
      "stateMutability": "nonpayable",
      "type": "function"
    },
    {
      "constant": false,
      "inputs": [
        {
          "name": "_id",
          "type": "bytes32"
        }
      ],
      "name": "returnBondsOnTimeOut",
      "outputs": [],
      "payable": false,
      "stateMutability": "nonpayable",
      "type": "function"
    },
    {
      "constant": true,
      "inputs": [],
      "name": "getSuggestionDuration",
      "outputs": [
        {
          "name": "",
          "type": "uint256"
        }
      ],
      "payable": false,
      "stateMutability": "view",
      "type": "function"
    },
    {
      "constant": true,
      "inputs": [
        {
          "name": "_id",
          "type": "bytes32"
        }
      ],
      "name": "suggestionExpires",
      "outputs": [
        {
          "name": "",
          "type": "uint256"
        }
      ],
      "payable": false,
      "stateMutability": "view",
      "type": "function"
    },
    {
      "constant": true,
      "inputs": [
        {
          "name": "_id",
          "type": "bytes32"
        }
      ],
      "name": "suggesterBond",
      "outputs": [
        {
          "name": "",
          "type": "uint256"
        }
      ],
      "payable": false,
      "stateMutability": "view",
      "type": "function"
    },
    {
      "constant": false,
      "inputs": [
        {
          "name": "value",
          "type": "uint256"
        },
        {
          "name": "_address",
          "type": "address"
        },
        {
          "name": "_amount",
          "type": "uint256"
        },
        {
          "name": "gasprice",
          "type": "uint256"
        },
        {
          "name": "gaslimit",
          "type": "uint256"
        },
        {
          "name": "time_or_block",
          "type": "uint256"
        }
      ],
      "name": "schedule_removeTokenTimeProtection",
      "outputs": [],
      "payable": false,
      "stateMutability": "nonpayable",
      "type": "function"
    },
    {
      "constant": false,
      "inputs": [
        {
          "name": "_id",
          "type": "bytes32"
        }
      ],
      "name": "disburseOnAccept",
      "outputs": [
        {
          "name": "",
          "type": "bool"
        }
      ],
      "payable": false,
      "stateMutability": "nonpayable",
      "type": "function"
    },
    {
      "constant": false,
      "inputs": [
        {
          "name": "_id",
          "type": "bytes32"
        }
      ],
      "name": "returnBondsOnReject",
      "outputs": [
        {
          "name": "",
          "type": "bool"
        }
      ],
      "payable": false,
      "stateMutability": "nonpayable",
      "type": "function"
    }
  ],
  "bytecode": "0x608060405234801561001057600080fd5b50604051604080620036db8339810180604052604081101561003157600080fd5b810190808051906020019092919080519060200190929190505050336000806101000a81548173ffffffffffffffffffffffffffffffffffffffff021916908373ffffffffffffffffffffffffffffffffffffffff1602179055506000809054906101000a900473ffffffffffffffffffffffffffffffffffffffff1673ffffffffffffffffffffffffffffffffffffffff16600073ffffffffffffffffffffffffffffffffffffffff167f8be0079c531659141344cd1fd0a4f28419497f9722a3daafe3b4186f6b6457e060405160405180910390a360008111610162576040517f08c379a000000000000000000000000000000000000000000000000000000000815260040180806020018281038252602a815260200180620036b1602a913960400191505060405180910390fd5b81600860006101000a81548173ffffffffffffffffffffffffffffffffffffffff021916908373ffffffffffffffffffffffffffffffffffffffff16021790555033600260006101000a81548173ffffffffffffffffffffffffffffffffffffffff021916908373ffffffffffffffffffffffffffffffffffffffff160217905550600160058190555060016006819055508060078190555050506134a4806200020d6000396000f3fe608060405234801561001057600080fd5b506004361061018e5760003560e01c8063c7e46fc5116100de578063ee1bb03611610097578063f7b2a7be11610071578063f7b2a7be1461065b578063fb4ba18d14610679578063fc0c546a146106d1578063fd447ef01461071b5761018e565b8063ee1bb03614610589578063f2844239146105b7578063f2fde38b146106175761018e565b8063c7e46fc514610423578063d34ecc721461047b578063d42d13ce146104a9578063d71fe0211461051f578063dd29d0ed1461053d578063e29290ba1461055b5761018e565b80638f32d59b1161014b57806395f4f4e51161012557806395f4f4e51461031d578063a2d53f9a1461035f578063ae1342e114610397578063b48bfb38146103dd5761018e565b80638f32d59b146102bf578063949ad88d146102e157806394db5812146102ff5761018e565b806318d63d9b146101935780632e0a6960146101dd57806345de58d3146101fb5780635dff689114610229578063715018a61461026b5780638da5cb5b14610275575b600080fd5b61019b6107a5565b604051808273ffffffffffffffffffffffffffffffffffffffff1673ffffffffffffffffffffffffffffffffffffffff16815260200191505060405180910390f35b6101e56107cb565b6040518082815260200191505060405180910390f35b6102276004803603602081101561021157600080fd5b81019080803590602001909291905050506107d1565b005b6102556004803603602081101561023f57600080fd5b81019080803590602001909291905050506108a8565b6040518082815260200191505060405180910390f35b6102736108da565b005b61027d610a13565b604051808273ffffffffffffffffffffffffffffffffffffffff1673ffffffffffffffffffffffffffffffffffffffff16815260200191505060405180910390f35b6102c7610a3c565b604051808215151515815260200191505060405180910390f35b6102e9610a93565b6040518082815260200191505060405180910390f35b610307610a9d565b6040518082815260200191505060405180910390f35b6103496004803603602081101561033357600080fd5b8101908080359060200190929190505050610aa3565b6040518082815260200191505060405180910390f35b6103956004803603604081101561037557600080fd5b810190808035906020019092919080359060200190929190505050610ac3565b005b6103c3600480360360208110156103ad57600080fd5b8101908080359060200190929190505050610d2f565b604051808215151515815260200191505060405180910390f35b610409600480360360208110156103f357600080fd5b81019080803590602001909291905050506112ff565b604051808215151515815260200191505060405180910390f35b6104796004803603606081101561043957600080fd5b810190808035906020019092919080359060200190929190803573ffffffffffffffffffffffffffffffffffffffff169060200190929190505050611dc0565b005b6104a76004803603602081101561049157600080fd5b810190808035906020019092919050505061209d565b005b61051d600480360360c08110156104bf57600080fd5b8101908080359060200190929190803573ffffffffffffffffffffffffffffffffffffffff169060200190929190803590602001909291908035906020019092919080359060200190929190803590602001909291905050506120a9565b005b610527612276565b6040518082815260200191505060405180910390f35b61054561227c565b6040518082815260200191505060405180910390f35b6105876004803603602081101561057157600080fd5b8101908080359060200190929190505050612282565b005b6105b56004803603602081101561059f57600080fd5b8101908080359060200190929190505050612359565b005b610615600480360360c08110156105cd57600080fd5b81019080803590602001909291908035906020019092919080359060200190929190803590602001909291908035906020019092919080359060200190929190505050612914565b005b6106596004803603602081101561062d57600080fd5b81019080803573ffffffffffffffffffffffffffffffffffffffff169060200190929190505050612c54565b005b610663612cda565b6040518082815260200191505060405180910390f35b6106cf6004803603606081101561068f57600080fd5b810190808035906020019092919080359060200190929190803573ffffffffffffffffffffffffffffffffffffffff169060200190929190505050612ce0565b005b6106d9612fbd565b604051808273ffffffffffffffffffffffffffffffffffffffff1673ffffffffffffffffffffffffffffffffffffffff16815260200191505060405180910390f35b6107476004803603602081101561073157600080fd5b8101908080359060200190929190505050612fe3565b604051808673ffffffffffffffffffffffffffffffffffffffff1673ffffffffffffffffffffffffffffffffffffffff1681526020018581526020018481526020018381526020018281526020019550505050505060405180910390f35b600260009054906101000a900473ffffffffffffffffffffffffffffffffffffffff1681565b60065481565b60004290508060016000848152602001908152602001600020600301819055507f62aabdd9fa523963849aea1b37c60f8832bac896db37cb187e77078fe0d7425b816040518082815260200191505060405180910390a161083d6007548261303990919063ffffffff16565b60016000848152602001908152602001600020600401819055507f48a71570d7d5eb03be4acb9d93eb864ba76b96c1f712fa1cf1bca358f69a0fef60016000848152602001908152602001600020600401546040518082815260200191505060405180910390a15050565b60006108d34260016000858152602001908152602001600020600401546130c190919063ffffffff16565b9050919050565b6108e2610a3c565b610954576040517f08c379a00000000000000000000000000000000000000000000000000000000081526004018080602001828103825260208152602001807f4f776e61626c653a2063616c6c6572206973206e6f7420746865206f776e657281525060200191505060405180910390fd5b600073ffffffffffffffffffffffffffffffffffffffff166000809054906101000a900473ffffffffffffffffffffffffffffffffffffffff1673ffffffffffffffffffffffffffffffffffffffff167f8be0079c531659141344cd1fd0a4f28419497f9722a3daafe3b4186f6b6457e060405160405180910390a360008060006101000a81548173ffffffffffffffffffffffffffffffffffffffff021916908373ffffffffffffffffffffffffffffffffffffffff160217905550565b60008060009054906101000a900473ffffffffffffffffffffffffffffffffffffffff16905090565b60008060009054906101000a900473ffffffffffffffffffffffffffffffffffffffff1673ffffffffffffffffffffffffffffffffffffffff163373ffffffffffffffffffffffffffffffffffffffff1614905090565b6000600754905090565b60075481565b600060016000838152602001908152602001600020600101549050919050565b610ad88260045461303990919063ffffffff16565b600481905550600860009054906101000a900473ffffffffffffffffffffffffffffffffffffffff1673ffffffffffffffffffffffffffffffffffffffff166323b872dd3330856040518463ffffffff1660e01b8152600401808473ffffffffffffffffffffffffffffffffffffffff1673ffffffffffffffffffffffffffffffffffffffff1681526020018373ffffffffffffffffffffffffffffffffffffffff1673ffffffffffffffffffffffffffffffffffffffff1681526020018281526020019350505050602060405180830381600087803b158015610bbb57600080fd5b505af1158015610bcf573d6000803e3d6000fd5b505050506040513d6020811015610be557600080fd5b810190808051906020019092919050505050610c0c8160035461303990919063ffffffff16565b600381905550600860009054906101000a900473ffffffffffffffffffffffffffffffffffffffff1673ffffffffffffffffffffffffffffffffffffffff166323b872dd3330846040518463ffffffff1660e01b8152600401808473ffffffffffffffffffffffffffffffffffffffff1673ffffffffffffffffffffffffffffffffffffffff1681526020018373ffffffffffffffffffffffffffffffffffffffff1673ffffffffffffffffffffffffffffffffffffffff1681526020018281526020019350505050602060405180830381600087803b158015610cef57600080fd5b505af1158015610d03573d6000803e3d6000fd5b505050506040513d6020811015610d1957600080fd5b8101908080519060200190929190505050505050565b6000610d39610a3c565b610dab576040517f08c379a00000000000000000000000000000000000000000000000000000000081526004018080602001828103825260208152602001807f4f776e61626c653a2063616c6c6572206973206e6f7420746865206f776e657281525060200191505060405180910390fd5b60006001600084815260200190815260200160002060010154905080600860009054906101000a900473ffffffffffffffffffffffffffffffffffffffff1673ffffffffffffffffffffffffffffffffffffffff166370a08231306040518263ffffffff1660e01b8152600401808273ffffffffffffffffffffffffffffffffffffffff1673ffffffffffffffffffffffffffffffffffffffff16815260200191505060206040518083038186803b158015610e6657600080fd5b505afa158015610e7a573d6000803e3d6000fd5b505050506040513d6020811015610e9057600080fd5b81019080805190602001909291905050501015610ef8576040517f08c379a00000000000000000000000000000000000000000000000000000000081526004018080602001828103825260378152602001806133186037913960400191505060405180910390fd5b600081905060006001600086815260200190815260200160002060000160009054906101000a900473ffffffffffffffffffffffffffffffffffffffff16905060006001600087815260200190815260200160002060010181905550600860009054906101000a900473ffffffffffffffffffffffffffffffffffffffff1673ffffffffffffffffffffffffffffffffffffffff1663a9059cbb82856040518363ffffffff1660e01b8152600401808373ffffffffffffffffffffffffffffffffffffffff1673ffffffffffffffffffffffffffffffffffffffff16815260200182815260200192505050602060405180830381600087803b158015610ffd57600080fd5b505af1158015611011573d6000803e3d6000fd5b505050506040513d602081101561102757600080fd5b8101908080519060200190929190505050508073ffffffffffffffffffffffffffffffffffffffff167f7084f5476618d8e60b11ef0d7d3f06914655adb8793e28ff7f018d4c76d505d5846040518082815260200191505060405180910390a2600860009054906101000a900473ffffffffffffffffffffffffffffffffffffffff1673ffffffffffffffffffffffffffffffffffffffff1663ad551cb782846040518363ffffffff1660e01b8152600401808373ffffffffffffffffffffffffffffffffffffffff1673ffffffffffffffffffffffffffffffffffffffff16815260200182815260200192505050602060405180830381600087803b15801561113057600080fd5b505af1158015611144573d6000803e3d6000fd5b505050506040513d602081101561115a57600080fd5b81019080805190602001909291905050505060006001600087815260200190815260200160002060020154905080600860009054906101000a900473ffffffffffffffffffffffffffffffffffffffff1673ffffffffffffffffffffffffffffffffffffffff166370a08231306040518263ffffffff1660e01b8152600401808273ffffffffffffffffffffffffffffffffffffffff1673ffffffffffffffffffffffffffffffffffffffff16815260200191505060206040518083038186803b15801561122757600080fd5b505afa15801561123b573d6000803e3d6000fd5b505050506040513d602081101561125157600080fd5b810190808051906020019092919050505010156112b9576040517f08c379a000000000000000000000000000000000000000000000000000000000815260040180806020018281038252603381526020018061339a6033913960400191505060405180910390fd5b6000819050600060016000898152602001908152602001600020600201819055506112ef8260045461303990919063ffffffff16565b6004819055505050505050919050565b6000611309610a3c565b61137b576040517f08c379a00000000000000000000000000000000000000000000000000000000081526004018080602001828103825260208152602001807f4f776e61626c653a2063616c6c6572206973206e6f7420746865206f776e657281525060200191505060405180910390fd5b60006001600084815260200190815260200160002060010154905080600860009054906101000a900473ffffffffffffffffffffffffffffffffffffffff1673ffffffffffffffffffffffffffffffffffffffff166370a08231306040518263ffffffff1660e01b8152600401808273ffffffffffffffffffffffffffffffffffffffff1673ffffffffffffffffffffffffffffffffffffffff16815260200191505060206040518083038186803b15801561143657600080fd5b505afa15801561144a573d6000803e3d6000fd5b505050506040513d602081101561146057600080fd5b810190808051906020019092919050505010156114c8576040517f08c379a00000000000000000000000000000000000000000000000000000000081526004018080602001828103825260378152602001806133f86037913960400191505060405180910390fd5b60006001600085815260200190815260200160002060000160009054906101000a900473ffffffffffffffffffffffffffffffffffffffff16905060006001600086815260200190815260200160002060010181905550600860009054906101000a900473ffffffffffffffffffffffffffffffffffffffff1673ffffffffffffffffffffffffffffffffffffffff1663a9059cbb82846040518363ffffffff1660e01b8152600401808373ffffffffffffffffffffffffffffffffffffffff1673ffffffffffffffffffffffffffffffffffffffff16815260200182815260200192505050602060405180830381600087803b1580156115c857600080fd5b505af11580156115dc573d6000803e3d6000fd5b505050506040513d60208110156115f257600080fd5b8101908080519060200190929190505050508073ffffffffffffffffffffffffffffffffffffffff167f7084f5476618d8e60b11ef0d7d3f06914655adb8793e28ff7f018d4c76d505d5836040518082815260200191505060405180910390a26116696005546003546130c190919063ffffffff16565b600860009054906101000a900473ffffffffffffffffffffffffffffffffffffffff1673ffffffffffffffffffffffffffffffffffffffff166370a08231306040518263ffffffff1660e01b8152600401808273ffffffffffffffffffffffffffffffffffffffff1673ffffffffffffffffffffffffffffffffffffffff16815260200191505060206040518083038186803b15801561170857600080fd5b505afa15801561171c573d6000803e3d6000fd5b505050506040513d602081101561173257600080fd5b8101908080519060200190929190505050101561179a576040517f08c379a00000000000000000000000000000000000000000000000000000000081526004018080602001828103825260308152602001806132e86030913960400191505060405180910390fd5b6117b16005546003546130c190919063ffffffff16565b600381905550600860009054906101000a900473ffffffffffffffffffffffffffffffffffffffff1673ffffffffffffffffffffffffffffffffffffffff1663a9059cbb826005546040518363ffffffff1660e01b8152600401808373ffffffffffffffffffffffffffffffffffffffff1673ffffffffffffffffffffffffffffffffffffffff16815260200182815260200192505050602060405180830381600087803b15801561186257600080fd5b505af1158015611876573d6000803e3d6000fd5b505050506040513d602081101561188c57600080fd5b8101908080519060200190929190505050508073ffffffffffffffffffffffffffffffffffffffff167f7084f5476618d8e60b11ef0d7d3f06914655adb8793e28ff7f018d4c76d505d56005546040518082815260200191505060405180910390a260006119056005548461303990919063ffffffff16565b9050600860009054906101000a900473ffffffffffffffffffffffffffffffffffffffff1673ffffffffffffffffffffffffffffffffffffffff1663ad551cb783836040518363ffffffff1660e01b8152600401808373ffffffffffffffffffffffffffffffffffffffff1673ffffffffffffffffffffffffffffffffffffffff16815260200182815260200192505050602060405180830381600087803b1580156119b057600080fd5b505af11580156119c4573d6000803e3d6000fd5b505050506040513d60208110156119da57600080fd5b81019080805190602001909291905050505060006001600087815260200190815260200160002060020154905080600860009054906101000a900473ffffffffffffffffffffffffffffffffffffffff1673ffffffffffffffffffffffffffffffffffffffff166370a08231306040518263ffffffff1660e01b8152600401808273ffffffffffffffffffffffffffffffffffffffff1673ffffffffffffffffffffffffffffffffffffffff16815260200191505060206040518083038186803b158015611aa757600080fd5b505afa158015611abb573d6000803e3d6000fd5b505050506040513d6020811015611ad157600080fd5b81019080805190602001909291905050501015611b39576040517f08c379a00000000000000000000000000000000000000000000000000000000081526004018080602001828103825260338152602001806132b56033913960400191505060405180910390fd5b600081905060006001600089815260200190815260200160002060020181905550600860009054906101000a900473ffffffffffffffffffffffffffffffffffffffff1673ffffffffffffffffffffffffffffffffffffffff1663a9059cbb600260009054906101000a900473ffffffffffffffffffffffffffffffffffffffff16846040518363ffffffff1660e01b8152600401808373ffffffffffffffffffffffffffffffffffffffff1673ffffffffffffffffffffffffffffffffffffffff16815260200182815260200192505050602060405180830381600087803b158015611c2557600080fd5b505af1158015611c39573d6000803e3d6000fd5b505050506040513d6020811015611c4f57600080fd5b810190808051906020019092919050505050600260009054906101000a900473ffffffffffffffffffffffffffffffffffffffff1673ffffffffffffffffffffffffffffffffffffffff167f7084f5476618d8e60b11ef0d7d3f06914655adb8793e28ff7f018d4c76d505d5836040518082815260200191505060405180910390a2600860009054906101000a900473ffffffffffffffffffffffffffffffffffffffff1673ffffffffffffffffffffffffffffffffffffffff1663ad551cb733836040518363ffffffff1660e01b8152600401808373ffffffffffffffffffffffffffffffffffffffff1673ffffffffffffffffffffffffffffffffffffffff16815260200182815260200192505050602060405180830381600087803b158015611d7a57600080fd5b505af1158015611d8e573d6000803e3d6000fd5b505050506040513d6020811015611da457600080fd5b8101908080519060200190929190505050505050505050919050565b6019602060ff1614611dd157600080fd5b611dfa82600160008681526020019081526020016000206001015461303990919063ffffffff16565b6001600085815260200190815260200160002060010181905550600860009054906101000a900473ffffffffffffffffffffffffffffffffffffffff1673ffffffffffffffffffffffffffffffffffffffff166323b872dd3330856040518463ffffffff1660e01b8152600401808473ffffffffffffffffffffffffffffffffffffffff1673ffffffffffffffffffffffffffffffffffffffff1681526020018373ffffffffffffffffffffffffffffffffffffffff1673ffffffffffffffffffffffffffffffffffffffff1681526020018281526020019350505050602060405180830381600087803b158015611ef157600080fd5b505af1158015611f05573d6000803e3d6000fd5b505050506040513d6020811015611f1b57600080fd5b8101908080519060200190929190505050508073ffffffffffffffffffffffffffffffffffffffff167f2da466a7b24304f47e87fa2e1e5a81b9831ce54fec19055ce277ca2f39ba42c4836040518082815260200191505060405180910390a26006546004541015611fd8576040517f08c379a000000000000000000000000000000000000000000000000000000000815260040180806020018281038252602181526020018061334f6021913960400191505060405180910390fd5b611fef6006546004546130c190919063ffffffff16565b600481905550612020600654600160008681526020019081526020016000206002015461303990919063ffffffff16565b6001600085815260200190815260200160002060020181905550336001600085815260200190815260200160002060000160006101000a81548173ffffffffffffffffffffffffffffffffffffffff021916908373ffffffffffffffffffffffffffffffffffffffff16021790555061209883612282565b505050565b6120a681612359565b50565b73fcfb45679539667f7ed55fa59a15c8cad73d9a4e600960006101000a81548173ffffffffffffffffffffffffffffffffffffffff021916908373ffffffffffffffffffffffffffffffffffffffff16021790555060606040518080613370602a9139602a01905060405180910390208686604051602401808373ffffffffffffffffffffffffffffffffffffffff1673ffffffffffffffffffffffffffffffffffffffff16815260200182815260200192505050604051602081830303815290604052907bffffffffffffffffffffffffffffffffffffffffffffffffffffffff19166020820180517bffffffffffffffffffffffffffffffffffffffffffffffffffffffff838183161783525050505090506000600960009054906101000a900473ffffffffffffffffffffffffffffffffffffffff1673ffffffffffffffffffffffffffffffffffffffff16638abdf5aa6040518163ffffffff1660e01b815260040160206040518083038186803b15801561222757600080fd5b505afa15801561223b573d6000803e3d6000fd5b505050506040513d602081101561225157600080fd5b810190808051906020019092919050505065b5e620f480000190505050505050505050565b60035481565b60045481565b60004290508060016000848152602001908152602001600020600301819055507f62aabdd9fa523963849aea1b37c60f8832bac896db37cb187e77078fe0d7425b816040518082815260200191505060405180910390a16122ee6007548261303990919063ffffffff16565b60016000848152602001908152602001600020600401819055507f48a71570d7d5eb03be4acb9d93eb864ba76b96c1f712fa1cf1bca358f69a0fef60016000848152602001908152602001600020600401546040518082815260200191505060405180910390a15050565b60016000828152602001908152602001600020600401544210156123c8576040517f08c379a000000000000000000000000000000000000000000000000000000000815260040180806020018281038252602b8152602001806133cd602b913960400191505060405180910390fd5b60006001600083815260200190815260200160002060010154905080600860009054906101000a900473ffffffffffffffffffffffffffffffffffffffff1673ffffffffffffffffffffffffffffffffffffffff166370a08231306040518263ffffffff1660e01b8152600401808273ffffffffffffffffffffffffffffffffffffffff1673ffffffffffffffffffffffffffffffffffffffff16815260200191505060206040518083038186803b15801561248357600080fd5b505afa158015612497573d6000803e3d6000fd5b505050506040513d60208110156124ad57600080fd5b81019080805190602001909291905050501015612515576040517f08c379a000000000000000000000000000000000000000000000000000000000815260040180806020018281038252604a81526020018061342f604a913960600191505060405180910390fd5b600081905060006001600085815260200190815260200160002060000160009054906101000a900473ffffffffffffffffffffffffffffffffffffffff16905060006001600086815260200190815260200160002060010181905550600860009054906101000a900473ffffffffffffffffffffffffffffffffffffffff1673ffffffffffffffffffffffffffffffffffffffff1663a9059cbb82856040518363ffffffff1660e01b8152600401808373ffffffffffffffffffffffffffffffffffffffff1673ffffffffffffffffffffffffffffffffffffffff16815260200182815260200192505050602060405180830381600087803b15801561261a57600080fd5b505af115801561262e573d6000803e3d6000fd5b505050506040513d602081101561264457600080fd5b8101908080519060200190929190505050508073ffffffffffffffffffffffffffffffffffffffff167f7084f5476618d8e60b11ef0d7d3f06914655adb8793e28ff7f018d4c76d505d5846040518082815260200191505060405180910390a2600860009054906101000a900473ffffffffffffffffffffffffffffffffffffffff1673ffffffffffffffffffffffffffffffffffffffff1663ad551cb782846040518363ffffffff1660e01b8152600401808373ffffffffffffffffffffffffffffffffffffffff1673ffffffffffffffffffffffffffffffffffffffff16815260200182815260200192505050602060405180830381600087803b15801561274d57600080fd5b505af1158015612761573d6000803e3d6000fd5b505050506040513d602081101561277757600080fd5b81019080805190602001909291905050505060006001600086815260200190815260200160002060020154905080600860009054906101000a900473ffffffffffffffffffffffffffffffffffffffff1673ffffffffffffffffffffffffffffffffffffffff166370a08231306040518263ffffffff1660e01b8152600401808273ffffffffffffffffffffffffffffffffffffffff1673ffffffffffffffffffffffffffffffffffffffff16815260200191505060206040518083038186803b15801561284457600080fd5b505afa158015612858573d6000803e3d6000fd5b505050506040513d602081101561286e57600080fd5b810190808051906020019092919050505010156128d6576040517f08c379a00000000000000000000000000000000000000000000000000000000081526004018080602001828103825260338152602001806132b56033913960400191505060405180910390fd5b600060016000878152602001908152602001600020600201819055506129078160045461303990919063ffffffff16565b6004819055505050505050565b73fcfb45679539667f7ed55fa59a15c8cad73d9a4e600960006101000a81548173ffffffffffffffffffffffffffffffffffffffff021916908373ffffffffffffffffffffffffffffffffffffffff160217905550606060405180807f72657475726e426f6e64734f6e54696d654f7574286279746573333220290000815250601e01905060405180910390208660405160240180828152602001915050604051602081830303815290604052907bffffffffffffffffffffffffffffffffffffffffffffffffffffffff19166020820180517bffffffffffffffffffffffffffffffffffffffffffffffffffffffff838183161783525050505090506000600960009054906101000a900473ffffffffffffffffffffffffffffffffffffffff1673ffffffffffffffffffffffffffffffffffffffff16638abdf5aa6040518163ffffffff1660e01b815260040160206040518083038186803b158015612a7b57600080fd5b505afa158015612a8f573d6000803e3d6000fd5b505050506040513d6020811015612aa557600080fd5b810190808051906020019092919050505065b5e620f48000019050600960009054906101000a900473ffffffffffffffffffffffffffffffffffffffff1673ffffffffffffffffffffffffffffffffffffffff1663dea8dc4f828830600062030d40633b9aca008960016040518963ffffffff1660e01b8152600401808881526020018773ffffffffffffffffffffffffffffffffffffffff1673ffffffffffffffffffffffffffffffffffffffff1681526020018681526020018581526020018481526020018060200183151515158152602001828103825284818151815260200191508051906020019080838360005b83811015612bb2578082015181840152602081019050612b97565b50505050905090810190601f168015612bdf5780820380516001836020036101000a031916815260200191505b509850505050505050505060408051808303818588803b158015612c0257600080fd5b505af1158015612c16573d6000803e3d6000fd5b50505050506040513d6040811015612c2d57600080fd5b81019080805190602001909291908051906020019092919050505050505050505050505050565b612c5c610a3c565b612cce576040517f08c379a00000000000000000000000000000000000000000000000000000000081526004018080602001828103825260208152602001807f4f776e61626c653a2063616c6c6572206973206e6f7420746865206f776e657281525060200191505060405180910390fd5b612cd78161314a565b50565b60055481565b6019602060ff1614612cf157600080fd5b612d1a82600160008681526020019081526020016000206001015461303990919063ffffffff16565b6001600085815260200190815260200160002060010181905550600860009054906101000a900473ffffffffffffffffffffffffffffffffffffffff1673ffffffffffffffffffffffffffffffffffffffff166323b872dd3330856040518463ffffffff1660e01b8152600401808473ffffffffffffffffffffffffffffffffffffffff1673ffffffffffffffffffffffffffffffffffffffff1681526020018373ffffffffffffffffffffffffffffffffffffffff1673ffffffffffffffffffffffffffffffffffffffff1681526020018281526020019350505050602060405180830381600087803b158015612e1157600080fd5b505af1158015612e25573d6000803e3d6000fd5b505050506040513d6020811015612e3b57600080fd5b8101908080519060200190929190505050508073ffffffffffffffffffffffffffffffffffffffff167f2da466a7b24304f47e87fa2e1e5a81b9831ce54fec19055ce277ca2f39ba42c4836040518082815260200191505060405180910390a26006546004541015612ef8576040517f08c379a000000000000000000000000000000000000000000000000000000000815260040180806020018281038252602181526020018061334f6021913960400191505060405180910390fd5b612f0f6006546004546130c190919063ffffffff16565b600481905550612f40600654600160008681526020019081526020016000206002015461303990919063ffffffff16565b6001600085815260200190815260200160002060020181905550336001600085815260200190815260200160002060000160006101000a81548173ffffffffffffffffffffffffffffffffffffffff021916908373ffffffffffffffffffffffffffffffffffffffff160217905550612fb8836107d1565b505050565b600860009054906101000a900473ffffffffffffffffffffffffffffffffffffffff1681565b60016020528060005260406000206000915090508060000160009054906101000a900473ffffffffffffffffffffffffffffffffffffffff16908060010154908060020154908060030154908060040154905085565b6000808284019050838110156130b7576040517f08c379a000000000000000000000000000000000000000000000000000000000815260040180806020018281038252601b8152602001807f536166654d6174683a206164646974696f6e206f766572666c6f77000000000081525060200191505060405180910390fd5b8091505092915050565b600082821115613139576040517f08c379a000000000000000000000000000000000000000000000000000000000815260040180806020018281038252601e8152602001807f536166654d6174683a207375627472616374696f6e206f766572666c6f77000081525060200191505060405180910390fd5b600082840390508091505092915050565b600073ffffffffffffffffffffffffffffffffffffffff168173ffffffffffffffffffffffffffffffffffffffff1614156131d0576040517f08c379a000000000000000000000000000000000000000000000000000000000815260040180806020018281038252602681526020018061328f6026913960400191505060405180910390fd5b8073ffffffffffffffffffffffffffffffffffffffff166000809054906101000a900473ffffffffffffffffffffffffffffffffffffffff1673ffffffffffffffffffffffffffffffffffffffff167f8be0079c531659141344cd1fd0a4f28419497f9722a3daafe3b4186f6b6457e060405160405180910390a3806000806101000a81548173ffffffffffffffffffffffffffffffffffffffff021916908373ffffffffffffffffffffffffffffffffffffffff1602179055505056fe4f776e61626c653a206e6577206f776e657220697320746865207a65726f206164647265737342726f6b656e3a20436f6e74726163742063616e2774206166666f726420746f20726566756e64206f776e657220626f6e642142726f6b656e3a20436f6e74726163742063616e2774206166666f726420746f20706179206f7574207265776172642142726f6b656e3a20636f6e74726163742063616e2774206166666f726420746f20726566756e642073756767657374657220626f6e64214f776e65722068617320696e73756666696369656e7420626f6e642066756e647372656d6f7665546f6b656e54696d6550726f74656374696f6e28616464726573732c75696e743235362942726f6b656e3a20636f6e74726163742063616e2774206166666f726420746f20726566756e64206f776e657220626f6e6421457363726f773a2063757272656e742074696d65206973206265666f72652072656c656173652074696d6542726f6b656e3a20436f6e74726163742063616e2774206166666f726420746f20726566756e642073756767657374657220626f6e64215265717565737465642053756767657374657220426f6e6420526566756e64206973204d4f5245207468616e20746f6b656e2062616c616e6365206f662074686520636f6e7472616374a165627a7a72305820a65c847d5539ee08001e244964513afd52f29420e04156d46d787ce5c705547900295f73756767657374696f6e4475726174696f6e206d7573742062652067726561746572207468616e2030",
  "source": "pragma solidity ^0.5.0; \n\n\nimport \"./SafeMath.sol\";\nimport \"./ERC20.sol\";\n//import \"./SafeERC20.sol\";\nimport \"./Ownable.sol\";\nimport \"./Address.sol\";\n\n// interface Aion\n\ncontract Aion {\n //using SafeERC20 for ERC20;\n \n //uint256 protectionPeriod = token.protectionPeriod;\n  uint256 public serviceFee;\n  function ScheduleCall(uint256 blocknumber, address to, uint256 value, \n    uint256 gaslimit, uint256 gasprice, bytes memory data, bool schedType) public\n      payable returns (uint, address);\n}\n\ncontract GoalEscrow is Ownable  {\n  using SafeMath for uint256;\n // using SafeERC20 for ERC20;\n \n  event Deposited(address indexed payee, uint256 tokenAmount);\n  event Withdrawn(address indexed payee, uint256 tokenAmount);\n  event StartProtection(uint256 protectionEnds, uint timeNow);\n  event TimeNow(uint256 blocktime);\n  event SuggestionExpires(uint256 expires);\n  mapping ( bytes32 => Suggester) public suggestedSteps;\n\n  struct Suggester {\n   address suggester;\n   uint256 suggesterBond;\n   uint256 ownerBond;\n   uint256 timeSuggested;\n   uint256 suggestionExpires;\n  }\n\n  address public goalOwner;\n  uint256 public rewardFunds;\n  uint256 public bondFunds;\n  uint256 public rewardAmount;\n  uint256 public ownerBondAmount; \n  uint256 public suggestionDuration;\n    \n  \n  ERC20 public token;\n  Aion aion;\n\n  constructor (ERC20 _token, uint256 _suggestionDuration) public {\n    require(_suggestionDuration > 0, \"_suggestionDuration must be greater than 0\"); \n    token = _token;\n    goalOwner = msg.sender;\n    rewardAmount = 1;\n    ownerBondAmount = 1;\n    suggestionDuration = _suggestionDuration;\n } \n \n  // -- can't do a transfer and update without the the escrow contract recieving the call and checking that it got the tokens\n /* function deployAndApprove(uint _amountBond, uint _amountReward) public onlyOwner { \n   uint totalToApprove = _amountBond.add(_amountReward);\n   token.approve(address(this), totalToApprove);\n }*/  \n\n  function fundEscrow(uint _amountBond, uint _amountReward) public {\n   bondFunds = bondFunds.add(_amountBond); \n   token.transferFrom(msg.sender, address(this), _amountBond);\n   rewardFunds = rewardFunds.add(_amountReward);\n   token.transferFrom(msg.sender, address(this), _amountReward);\n  } \n\n/*   ERC20Mock.approve(address(this), _amount); */\n \n\t         //** SUGGEST **//\n                  /*only suggester*/\n  function depositOnSuggestTestVersion(bytes32 _id, uint _amount, address _payee) public  {\n    require(_id.length == 25);\n    //set suggester bond\n    suggestedSteps[_id].suggesterBond = suggestedSteps[_id].suggesterBond.add(_amount);\n    token.transferFrom(msg.sender, address(this), _amount); \n    emit Deposited(_payee, _amount); \n    //apply owner bond\n    require(bondFunds >= ownerBondAmount, \"Owner has insufficient bond funds\");\n    bondFunds = bondFunds.sub(ownerBondAmount);  \n    suggestedSteps[_id].ownerBond = suggestedSteps[_id].ownerBond.add(ownerBondAmount);\n    suggestedSteps[_id].suggester = msg.sender;\n    setSuggestionTimeOutTestVersion(_id);\n  }\n\n  function depositOnSuggest(bytes32 _id, uint _amount, address _payee) public  {\n    require(_id.length == 25);\n    //set suggester bond\n    suggestedSteps[_id].suggesterBond = suggestedSteps[_id].suggesterBond.add(_amount);\n    token.transferFrom(msg.sender, address(this), _amount); \n    emit Deposited(_payee, _amount); \n    //apply owner bond\n    require(bondFunds >= ownerBondAmount, \"Owner has insufficient bond funds\");\n    bondFunds = bondFunds.sub(ownerBondAmount);  \n    suggestedSteps[_id].ownerBond = suggestedSteps[_id].ownerBond.add(ownerBondAmount);\n    suggestedSteps[_id].suggester = msg.sender;\n    setSuggestionTimeOut(_id);\n  }\n\n  function setSuggestionTimeOutTestVersion(bytes32 _id) public {\n   uint256 timeNow = block.timestamp;\n   suggestedSteps[_id].timeSuggested = timeNow;\n   emit TimeNow(timeNow);\n   suggestedSteps[_id].suggestionExpires = timeNow.add(suggestionDuration);\n   emit SuggestionExpires(suggestedSteps[_id].suggestionExpires);\n   // schedule_returnBondsOnTimeOut(_id, timeNow.add(timeOUt));\n  }\n\n  function setSuggestionTimeOut(bytes32 _id) public {\n    uint256 timeNow = block.timestamp;\n    suggestedSteps[_id].timeSuggested = timeNow;\n    emit TimeNow(timeNow);\n    suggestedSteps[_id].suggestionExpires = timeNow.add(suggestionDuration);\n    emit SuggestionExpires(suggestedSteps[_id].suggestionExpires);\n    //schedule_returnBondsOnTimeOut(_id, timeNow.add(suggestionDuration));\n}\n\n  function checkForTimedOutSuggestions (bytes32 _id) public {\n      returnBondsOnTimeOut(_id);\n      \n  }\n  function schedule_returnBondsOnTimeOut(uint256 value, bytes32 _id, uint256 callTime, uint256 gasprice, uint256 gaslimit, uint256 time_or_block) public {\n   aion = Aion(0xFcFB45679539667f7ed55FA59A15c8Cad73d9a4E);\n   bytes memory data = abi.encodeWithSelector(bytes4(keccak256('returnBondsOnTimeOut(bytes32 )')),_id);\n   uint callCost = 200000*1e9 + aion.serviceFee();\n   aion.ScheduleCall.value(callCost) (callTime,\n    address(this), 0, 200000,1e9, data, true);  \n  }\n\n\t//** TIME OUT -- Contract disburses reward and bonds **//\n  function returnBondsOnTimeOut(bytes32 _id) public {\n    require(block.timestamp >= suggestedSteps[_id].suggestionExpires, \"Escrow: current time is before release time\");\n    uint256 suggesterBondRefundAmount = suggestedSteps[_id].suggesterBond;\n    require(token.balanceOf(address(this)) >= suggesterBondRefundAmount,\"Requested Suggester Bond Refund is MORE than token balance of the contract\");\n    //suggester\n    uint256 suggesterProtectAmount = suggesterBondRefundAmount; \n    address payee = suggestedSteps[_id].suggester;\n    suggestedSteps[_id].suggesterBond = 0;\n    //return suggester bond \n    token.transfer(payee, suggesterBondRefundAmount);\n    emit Withdrawn(payee, suggesterBondRefundAmount);\n    //protect tokens\n    token.timeProtectTokens(payee, suggesterProtectAmount);\n    // schedule end protection \n    //schedule_removeTokenTimeProtection(payee, suggesterProtectAmount);    \n    //owner \n    uint256 ownerBondRefundAmount = suggestedSteps[_id].ownerBond;\n    require(token.balanceOf(address(this)) >= ownerBondRefundAmount, \"Broken: Contract can't afford to refund owner bond!\"); \n    suggestedSteps[_id].ownerBond = 0;\n    bondFunds = bondFunds.add(ownerBondRefundAmount);\t\n    //return owner bond\n// no transfer * token.transfer(msg.sender, ownerBondRefundAmount);\n// no transfer * emit Withdrawn(msg.sender, ownerBondRefundAmount);\n    //protect tokens\n//no transfer * no protect * token.timeProtectTokens(msg.sender, ownerProtectAmount);\n    //schedule end protection  \n //no transfer * no protect * no clock * // schedule_removeTokenTimeProtection(owner, ownerProtectAmount);\n  }\n\n  function getSuggestionDuration() public view returns(uint256) {\n      return suggestionDuration; \n  }\n\n  function suggestionExpires(bytes32 _id) public view returns (uint256) {\n    return  suggestedSteps[_id].suggestionExpires.sub(block.timestamp);\n  }\n\n  function suggesterBond (bytes32 _id) public view returns (uint256) {\n    return suggestedSteps[_id].suggesterBond;\n  }  \n\n  function schedule_removeTokenTimeProtection (uint256 value, address _address, uint256 _amount, uint256 gasprice, uint256 gaslimit, uint256 time_or_block)\n   public {\n   aion = Aion(0xFcFB45679539667f7ed55FA59A15c8Cad73d9a4E);\n  // uint protectionPeriod = token.protectionPeriod;\n   bytes memory data =\n     abi.encodeWithSelector(bytes4(keccak256('removeTokenTimeProtection(address,uint256)')),_address, _amount);\n   uint256 callCost = 200000*1e9 + aion.serviceFee();\n   //aion.ScheduleCall.value(callCost)( block.number+15, address(this), value, gaslimit, gasprice, hex\"00\", time_or_block);\n  }\n\n  function disburseOnAccept(bytes32 _id) public onlyOwner returns (bool) {\n    uint256 suggesterBondRefundAmount = suggestedSteps[_id].suggesterBond;\n    require(token.balanceOf(address(this)) >= suggesterBondRefundAmount, \"Broken: Contract can't afford to refund suggester bond!\");\n    //return suggester bond\n    address payee = suggestedSteps[_id].suggester;\n    suggestedSteps[_id].suggesterBond = 0;\n    token.transfer(payee, suggesterBondRefundAmount);\n    emit Withdrawn(payee, suggesterBondRefundAmount);\n    //pay reward to suggester\n    require(token.balanceOf(address(this)) >= rewardFunds.sub(rewardAmount), \"Broken: Contract can't afford to pay out reward!\");\n    rewardFunds = rewardFunds.sub(rewardAmount);\n    token.transfer(payee, rewardAmount); \n    emit Withdrawn(payee, rewardAmount);    \n    //protect suggester tokens\n    uint256 suggesterProtectAmount = suggesterBondRefundAmount.add(rewardAmount); \n    token.timeProtectTokens(payee, suggesterProtectAmount); \n   //start protection clock    \n    //schedule_removeTokenTimeProtection(payee, suggesterProtectAmount);    \n    // return owner bond \n    uint256 ownerBondRefundAmount = suggestedSteps[_id].ownerBond;\n    require(token.balanceOf(address(this)) >= ownerBondRefundAmount, \"Broken: Contract can't afford to refund owner bond!\"); \n    uint256 ownerProtectAmount = ownerBondRefundAmount;\n    suggestedSteps[_id].ownerBond = 0;\n    token.transfer(goalOwner, ownerBondRefundAmount);\n    emit Withdrawn(goalOwner, ownerBondRefundAmount);\n    //protect owner tokens \n    token.timeProtectTokens(msg.sender, ownerProtectAmount);\n    //start protection clock    \n   // schedule_removeTokenTimeProtection(msg.sender, ownerProtectAmount);\n  }\n\n\t//** REJECT STEP || Contract returns bonds **// \n  function returnBondsOnReject(bytes32 _id) public onlyOwner returns (bool) {\n    //return suggester bond\n    uint256 suggesterBondRefundAmount = suggestedSteps[_id].suggesterBond;\n    require(token.balanceOf(address(this)) >= suggesterBondRefundAmount,\"Broken: contract can't afford to refund suggester bond!\");\n    uint256 suggesterProtectAmount = suggesterBondRefundAmount;\n    address payee = suggestedSteps[_id].suggester;\n    suggestedSteps[_id].suggesterBond = 0;\n    token.transfer(payee, suggesterBondRefundAmount);\n    emit Withdrawn(payee, suggesterBondRefundAmount);\n    //protect suggester return bond\n    token.timeProtectTokens(payee, suggesterProtectAmount);\n    //start protection clock\n    //schedule_removeTokenTimeProtection(payee, suggesterProtectAmount);    \n   //return owner bond\n    uint256 ownerBondRefundAmount = suggestedSteps[_id].ownerBond;\n    require(token.balanceOf(address(this)) >= ownerBondRefundAmount,\"Broken: contract can't afford to refund owner bond!\"); \n    uint256 ownerProtectAmount = ownerBondRefundAmount; \n    suggestedSteps[_id].ownerBond = 0;\n    bondFunds = bondFunds.add(ownerBondRefundAmount); \n// no transfer * token.transfer(, ownerBondRefundAmount);\n// no transfer *  emit Withdrawn(msg.sender, ownerBondRefundAmount);\n    //protect tokens\n// no transfer * no protect * token.timeProtectTokens(msg.sender, ownerProtectAmount);\n    // start protection clock\n// no transfer * no protect * no clock *  schedule_removeTokenTimeProtection(msg.sender, ownerProtectAmount);\n  }\n}\n",
  "sourcePath": "/home/zmg/Scratch/gz/GoalZappTruffle/contracts/GoalEscrow.sol",
  "compiler": {
    "name": "solc",
    "version": "0.5.8+commit.23d335f2.Emscripten.clang"
  },
  "schemaVersion": "3.0.11",
  "updatedAt": "2019-08-09T16:54:17.384Z",
  "devdoc": {
    "methods": {
      "isOwner()": {
        "details": "Returns true if the caller is the current owner."
      },
      "owner()": {
        "details": "Returns the address of the current owner."
      },
      "renounceOwnership()": {
        "details": "Leaves the contract without owner. It will not be possible to call `onlyOwner` functions anymore. Can only be called by the current owner.     * > Note: Renouncing ownership will leave the contract without an owner, thereby removing any functionality that is only available to the owner."
      },
      "transferOwnership(address)": {
        "details": "Transfers ownership of the contract to a new account (`newOwner`). Can only be called by the current owner."
      }
    }
  },
  "userdoc": {
    "methods": {}
  }
}