{
  "contractName": "GoalZapp",
  "abi": [
    {
      "constant": false,
      "inputs": [
        {
          "name": "_tokenMintRecipient",
          "type": "address"
        },
        {
          "name": "_amount",
          "type": "uint256"
        }
      ],
      "name": "setRestrictedTokens",
      "outputs": [],
      "payable": false,
      "stateMutability": "nonpayable",
      "type": "function"
    },
    {
      "constant": true,
      "inputs": [
        {
          "name": "",
          "type": "address"
        }
      ],
      "name": "protectedTokens",
      "outputs": [
        {
          "name": "",
          "type": "uint256"
        }
      ],
      "payable": false,
      "stateMutability": "view",
      "type": "function"
    },
    {
      "constant": false,
      "inputs": [
        {
          "name": "spender",
          "type": "address"
        },
        {
          "name": "value",
          "type": "uint256"
        }
      ],
      "name": "approve",
      "outputs": [
        {
          "name": "",
          "type": "bool"
        }
      ],
      "payable": false,
      "stateMutability": "nonpayable",
      "type": "function"
    },
    {
      "constant": true,
      "inputs": [],
      "name": "reserveRatio",
      "outputs": [
        {
          "name": "",
          "type": "uint32"
        }
      ],
      "payable": false,
      "stateMutability": "view",
      "type": "function"
    },
    {
      "constant": true,
      "inputs": [],
      "name": "totalSupply",
      "outputs": [
        {
          "name": "",
          "type": "uint256"
        }
      ],
      "payable": false,
      "stateMutability": "view",
      "type": "function"
    },
    {
      "constant": false,
      "inputs": [
        {
          "name": "sender",
          "type": "address"
        },
        {
          "name": "recipient",
          "type": "address"
        },
        {
          "name": "amount",
          "type": "uint256"
        }
      ],
      "name": "transferFrom",
      "outputs": [
        {
          "name": "",
          "type": "bool"
        }
      ],
      "payable": false,
      "stateMutability": "nonpayable",
      "type": "function"
    },
    {
      "constant": true,
      "inputs": [
        {
          "name": "_supply",
          "type": "uint256"
        },
        {
          "name": "_connectorBalance",
          "type": "uint256"
        },
        {
          "name": "_connectorWeight",
          "type": "uint32"
        },
        {
          "name": "_depositAmount",
          "type": "uint256"
        }
      ],
      "name": "calculatePurchaseReturn",
      "outputs": [
        {
          "name": "",
          "type": "uint256"
        }
      ],
      "payable": false,
      "stateMutability": "view",
      "type": "function"
    },
    {
      "constant": true,
      "inputs": [],
      "name": "protectionPeriod",
      "outputs": [
        {
          "name": "",
          "type": "uint256"
        }
      ],
      "payable": false,
      "stateMutability": "view",
      "type": "function"
    },
    {
      "constant": true,
      "inputs": [],
      "name": "INITIAL_SUPPLY",
      "outputs": [
        {
          "name": "",
          "type": "uint256"
        }
      ],
      "payable": false,
      "stateMutability": "view",
      "type": "function"
    },
    {
      "constant": false,
      "inputs": [
        {
          "name": "spender",
          "type": "address"
        },
        {
          "name": "addedValue",
          "type": "uint256"
        }
      ],
      "name": "increaseAllowance",
      "outputs": [
        {
          "name": "",
          "type": "bool"
        }
      ],
      "payable": false,
      "stateMutability": "nonpayable",
      "type": "function"
    },
    {
      "constant": true,
      "inputs": [
        {
          "name": "_supply",
          "type": "uint256"
        },
        {
          "name": "_connectorBalance",
          "type": "uint256"
        },
        {
          "name": "_connectorWeight",
          "type": "uint32"
        },
        {
          "name": "_sellAmount",
          "type": "uint256"
        }
      ],
      "name": "calculateSaleReturn",
      "outputs": [
        {
          "name": "",
          "type": "uint256"
        }
      ],
      "payable": false,
      "stateMutability": "view",
      "type": "function"
    },
    {
      "constant": true,
      "inputs": [],
      "name": "version",
      "outputs": [
        {
          "name": "",
          "type": "string"
        }
      ],
      "payable": false,
      "stateMutability": "view",
      "type": "function"
    },
    {
      "constant": false,
      "inputs": [
        {
          "name": "account",
          "type": "address"
        }
      ],
      "name": "_addEscrowRole",
      "outputs": [],
      "payable": false,
      "stateMutability": "nonpayable",
      "type": "function"
    },
    {
      "constant": false,
      "inputs": [
        {
          "name": "_tokenDepositor",
          "type": "address"
        },
        {
          "name": "_amount",
          "type": "uint256"
        }
      ],
      "name": "unsetRestrictedTokens",
      "outputs": [],
      "payable": false,
      "stateMutability": "nonpayable",
      "type": "function"
    },
    {
      "constant": false,
      "inputs": [
        {
          "name": "_address",
          "type": "address"
        },
        {
          "name": "_amount",
          "type": "uint256"
        }
      ],
      "name": "removeTokenProtection",
      "outputs": [
        {
          "name": "",
          "type": "bool"
        }
      ],
      "payable": false,
      "stateMutability": "nonpayable",
      "type": "function"
    },
    {
      "constant": true,
      "inputs": [
        {
          "name": "account",
          "type": "address"
        }
      ],
      "name": "balanceOf",
      "outputs": [
        {
          "name": "",
          "type": "uint256"
        }
      ],
      "payable": false,
      "stateMutability": "view",
      "type": "function"
    },
    {
      "constant": false,
      "inputs": [],
      "name": "renounceOwnership",
      "outputs": [],
      "payable": false,
      "stateMutability": "nonpayable",
      "type": "function"
    },
    {
      "constant": true,
      "inputs": [
        {
          "name": "account",
          "type": "address"
        }
      ],
      "name": "isAionAddress",
      "outputs": [
        {
          "name": "",
          "type": "bool"
        }
      ],
      "payable": false,
      "stateMutability": "view",
      "type": "function"
    },
    {
      "constant": false,
      "inputs": [],
      "name": "initialize",
      "outputs": [],
      "payable": true,
      "stateMutability": "payable",
      "type": "function"
    },
    {
      "constant": true,
      "inputs": [],
      "name": "GAS_PRICE",
      "outputs": [
        {
          "name": "",
          "type": "uint256"
        }
      ],
      "payable": false,
      "stateMutability": "view",
      "type": "function"
    },
    {
      "constant": true,
      "inputs": [],
      "name": "owner",
      "outputs": [
        {
          "name": "",
          "type": "address"
        }
      ],
      "payable": false,
      "stateMutability": "view",
      "type": "function"
    },
    {
      "constant": true,
      "inputs": [],
      "name": "isOwner",
      "outputs": [
        {
          "name": "",
          "type": "bool"
        }
      ],
      "payable": false,
      "stateMutability": "view",
      "type": "function"
    },
    {
      "constant": true,
      "inputs": [],
      "name": "poolBalance",
      "outputs": [
        {
          "name": "",
          "type": "uint256"
        }
      ],
      "payable": false,
      "stateMutability": "view",
      "type": "function"
    },
    {
      "constant": false,
      "inputs": [
        {
          "name": "spender",
          "type": "address"
        },
        {
          "name": "subtractedValue",
          "type": "uint256"
        }
      ],
      "name": "decreaseAllowance",
      "outputs": [
        {
          "name": "",
          "type": "bool"
        }
      ],
      "payable": false,
      "stateMutability": "nonpayable",
      "type": "function"
    },
    {
      "constant": false,
      "inputs": [],
      "name": "buy",
      "outputs": [
        {
          "name": "",
          "type": "bool"
        }
      ],
      "payable": true,
      "stateMutability": "payable",
      "type": "function"
    },
    {
      "constant": false,
      "inputs": [
        {
          "name": "recipient",
          "type": "address"
        },
        {
          "name": "amount",
          "type": "uint256"
        }
      ],
      "name": "transfer",
      "outputs": [
        {
          "name": "",
          "type": "bool"
        }
      ],
      "payable": false,
      "stateMutability": "nonpayable",
      "type": "function"
    },
    {
      "constant": false,
      "inputs": [
        {
          "name": "_address",
          "type": "address"
        },
        {
          "name": "_amount",
          "type": "uint256"
        }
      ],
      "name": "timeProtectTokens",
      "outputs": [
        {
          "name": "",
          "type": "bool"
        }
      ],
      "payable": false,
      "stateMutability": "nonpayable",
      "type": "function"
    },
    {
      "constant": true,
      "inputs": [
        {
          "name": "account",
          "type": "address"
        }
      ],
      "name": "isEscrow",
      "outputs": [
        {
          "name": "",
          "type": "bool"
        }
      ],
      "payable": false,
      "stateMutability": "view",
      "type": "function"
    },
    {
      "constant": false,
      "inputs": [
        {
          "name": "_gasPrice",
          "type": "uint256"
        }
      ],
      "name": "setGasPrice",
      "outputs": [],
      "payable": false,
      "stateMutability": "nonpayable",
      "type": "function"
    },
    {
      "constant": false,
      "inputs": [
        {
          "name": "_escrowAddress",
          "type": "address"
        }
      ],
      "name": "setInitializedEscrow",
      "outputs": [
        {
          "name": "",
          "type": "bool"
        }
      ],
      "payable": false,
      "stateMutability": "nonpayable",
      "type": "function"
    },
    {
      "constant": true,
      "inputs": [
        {
          "name": "owner",
          "type": "address"
        },
        {
          "name": "spender",
          "type": "address"
        }
      ],
      "name": "allowance",
      "outputs": [
        {
          "name": "",
          "type": "uint256"
        }
      ],
      "payable": false,
      "stateMutability": "view",
      "type": "function"
    },
    {
      "constant": true,
      "inputs": [],
      "name": "RESERVE_RATIO",
      "outputs": [
        {
          "name": "",
          "type": "uint32"
        }
      ],
      "payable": false,
      "stateMutability": "view",
      "type": "function"
    },
    {
      "constant": false,
      "inputs": [
        {
          "name": "sellAmount",
          "type": "uint256"
        }
      ],
      "name": "sell",
      "outputs": [
        {
          "name": "",
          "type": "bool"
        }
      ],
      "payable": false,
      "stateMutability": "nonpayable",
      "type": "function"
    },
    {
      "constant": true,
      "inputs": [
        {
          "name": "_address",
          "type": "address"
        }
      ],
      "name": "amountProtected",
      "outputs": [
        {
          "name": "",
          "type": "uint256"
        }
      ],
      "payable": false,
      "stateMutability": "view",
      "type": "function"
    },
    {
      "constant": false,
      "inputs": [
        {
          "name": "newOwner",
          "type": "address"
        }
      ],
      "name": "transferOwnership",
      "outputs": [],
      "payable": false,
      "stateMutability": "nonpayable",
      "type": "function"
    },
    {
      "constant": true,
      "inputs": [],
      "name": "gasPrice",
      "outputs": [
        {
          "name": "",
          "type": "uint256"
        }
      ],
      "payable": false,
      "stateMutability": "view",
      "type": "function"
    },
    {
      "payable": true,
      "stateMutability": "payable",
      "type": "fallback"
    },
    {
      "anonymous": false,
      "inputs": [
        {
          "indexed": false,
          "name": "amountMinted",
          "type": "uint256"
        },
        {
          "indexed": false,
          "name": "totalCost",
          "type": "uint256"
        }
      ],
      "name": "LogMint",
      "type": "event"
    },
    {
      "anonymous": false,
      "inputs": [
        {
          "indexed": false,
          "name": "amountWithdrawn",
          "type": "uint256"
        },
        {
          "indexed": false,
          "name": "reward",
          "type": "uint256"
        }
      ],
      "name": "LogWithdraw",
      "type": "event"
    },
    {
      "anonymous": false,
      "inputs": [
        {
          "indexed": false,
          "name": "logString",
          "type": "string"
        },
        {
          "indexed": false,
          "name": "value",
          "type": "uint256"
        }
      ],
      "name": "LogBondingCurve",
      "type": "event"
    },
    {
      "anonymous": false,
      "inputs": [
        {
          "indexed": false,
          "name": "gp",
          "type": "uint256"
        }
      ],
      "name": "GasPrice",
      "type": "event"
    },
    {
      "anonymous": false,
      "inputs": [
        {
          "indexed": true,
          "name": "from",
          "type": "address"
        },
        {
          "indexed": true,
          "name": "to",
          "type": "address"
        },
        {
          "indexed": false,
          "name": "value",
          "type": "uint256"
        }
      ],
      "name": "Transfer",
      "type": "event"
    },
    {
      "anonymous": false,
      "inputs": [
        {
          "indexed": true,
          "name": "owner",
          "type": "address"
        },
        {
          "indexed": true,
          "name": "spender",
          "type": "address"
        },
        {
          "indexed": false,
          "name": "value",
          "type": "uint256"
        }
      ],
      "name": "Approval",
      "type": "event"
    },
    {
      "anonymous": false,
      "inputs": [
        {
          "indexed": false,
          "name": "amount",
          "type": "uint256"
        }
      ],
      "name": "Amount",
      "type": "event"
    },
    {
      "anonymous": false,
      "inputs": [
        {
          "indexed": false,
          "name": "restrictedTokenAmount",
          "type": "uint256"
        }
      ],
      "name": "RestrictedTokens",
      "type": "event"
    },
    {
      "anonymous": false,
      "inputs": [
        {
          "indexed": false,
          "name": "exceedsRestrictedAmount",
          "type": "uint256"
        }
      ],
      "name": "ExceedsRestricted",
      "type": "event"
    },
    {
      "anonymous": false,
      "inputs": [
        {
          "indexed": false,
          "name": "message",
          "type": "string"
        }
      ],
      "name": "TransferChecked",
      "type": "event"
    },
    {
      "anonymous": false,
      "inputs": [
        {
          "indexed": false,
          "name": "message0",
          "type": "string"
        },
        {
          "indexed": false,
          "name": "num",
          "type": "uint256"
        },
        {
          "indexed": false,
          "name": "message1",
          "type": "string"
        },
        {
          "indexed": false,
          "name": "_amount",
          "type": "uint256"
        },
        {
          "indexed": false,
          "name": "amountToSendGreaterThanZero",
          "type": "bool"
        }
      ],
      "name": "MSGSenderProtected",
      "type": "event"
    },
    {
      "anonymous": false,
      "inputs": [
        {
          "indexed": false,
          "name": "_amount",
          "type": "uint256"
        },
        {
          "indexed": false,
          "name": "_protectedTokens",
          "type": "uint256"
        },
        {
          "indexed": false,
          "name": "lessThanProtected",
          "type": "bool"
        }
      ],
      "name": "CheckRequire",
      "type": "event"
    },
    {
      "anonymous": false,
      "inputs": [
        {
          "indexed": true,
          "name": "aionAddr",
          "type": "address"
        }
      ],
      "name": "AionAddressAdded",
      "type": "event"
    },
    {
      "anonymous": false,
      "inputs": [
        {
          "indexed": true,
          "name": "account",
          "type": "address"
        }
      ],
      "name": "EscrowRoleAdded",
      "type": "event"
    },
    {
      "anonymous": false,
      "inputs": [
        {
          "indexed": true,
          "name": "previousOwner",
          "type": "address"
        },
        {
          "indexed": true,
          "name": "newOwner",
          "type": "address"
        }
      ],
      "name": "OwnershipTransferred",
      "type": "event"
    }
  ],
  "bytecode": "0x60806040526040518060400160405280600381526020017f302e330000000000000000000000000000000000000000000000000000000000815250600190805190602001906200005192919062001201565b506040518060400160405280600381526020017f302e330000000000000000000000000000000000000000000000000000000000815250608290805190602001906200009f92919062001201565b5064e8d4a51000608f55601e336000806101000a81548173ffffffffffffffffffffffffffffffffffffffff021916908373ffffffffffffffffffffffffffffffffffffffff1602179055506000809054906101000a900473ffffffffffffffffffffffffffffffffffffffff1673ffffffffffffffffffffffffffffffffffffffff16600073ffffffffffffffffffffffffffffffffffffffff167f8be0079c531659141344cd1fd0a4f28419497f9722a3daafe3b4186f6b6457e060405160405180910390a3701c35fedd14ffffffffffffffffffffffff60026020608081106200018857fe5b0181905550701b0ce43b323fffffffffffffffffffffff6002602160808110620001ae57fe5b01819055507019f0028ec1ffffffffffffffffffffffff6002602260808110620001d457fe5b01819055507018ded91f0e7fffffffffffffffffffffff6002602360808110620001fa57fe5b01819055507017d8ec7f0417ffffffffffffffffffffff60026024608081106200022057fe5b01819055507016ddc6556cdbffffffffffffffffffffff60026025608081106200024657fe5b01819055507015ecf52776a1ffffffffffffffffffffff60026026608081106200026c57fe5b01819055507015060c256cb2ffffffffffffffffffffff60026027608081106200029257fe5b0181905550701428a2f98d72ffffffffffffffffffffff6002602860808110620002b857fe5b01819055507013545598e5c23fffffffffffffffffffff6002602960808110620002de57fe5b0181905550701288c4161ce1dfffffffffffffffffffff6002602a608081106200030457fe5b01819055507011c592761c666fffffffffffffffffffff6002602b608081106200032a57fe5b018190555070110a688680a757ffffffffffffffffffff6002602c608081106200035057fe5b0181905550701056f1b5bedf77ffffffffffffffffffff6002602d608081106200037657fe5b0181905550700faadceceeff8bffffffffffffffffffff6002602e608081106200039c57fe5b0181905550700f05dc6b27edadffffffffffffffffffff6002602f60808110620003c257fe5b0181905550700e67a5a25da4107fffffffffffffffffff6002603060808110620003e857fe5b0181905550700dcff115b14eedffffffffffffffffffff60026031608081106200040e57fe5b0181905550700d3e7a392431239fffffffffffffffffff60026032608081106200043457fe5b0181905550700cb2ff529eb71e4fffffffffffffffffff60026033608081106200045a57fe5b0181905550700c2d415c3db974afffffffffffffffffff60026034608081106200048057fe5b0181905550700bad03e7d883f69bffffffffffffffffff6002603560808110620004a657fe5b0181905550700b320d03b2c343d5ffffffffffffffffff6002603660808110620004cc57fe5b0181905550700abc25204e02828dffffffffffffffffff6002603760808110620004f257fe5b0181905550700a4b16f74ee4bb207fffffffffffffffff60026038608081106200051857fe5b01819055507009deaf736ac1f569ffffffffffffffffff60026039608081106200053e57fe5b0181905550700976bd9952c7aa957fffffffffffffffff6002603a608081106200056457fe5b01819055507009131271922eaa606fffffffffffffffff6002603b608081106200058a57fe5b01819055507008b380f3558668c46fffffffffffffffff6002603c60808110620005b057fe5b0181905550700857ddf0117efa215bffffffffffffffff6002603d60808110620005d657fe5b01819055507007ffffffffffffffffffffffffffffffff6002603e60808110620005fc57fe5b01819055507007abbf6f6abb9d087fffffffffffffffff6002603f608081106200062257fe5b018190555070075af62cbac95f7dfa7fffffffffffffff60026040608081106200064857fe5b018190555070070d7fb7452e187ac13fffffffffffffff60026041608081106200066e57fe5b01819055507006c3390ecc8af379295fffffffffffffff60026042608081106200069457fe5b018190555070067c00a3b07ffc01fd6fffffffffffffff6002604360808110620006ba57fe5b0181905550700637b647c39cbb9d3d27ffffffffffffff6002604460808110620006e057fe5b01819055507005f63b1fc104dbd39587ffffffffffffff60026045608081106200070657fe5b01819055507005b771955b36e12f7235ffffffffffffff60026046608081106200072c57fe5b018190555070057b3d49dda84556d6f6ffffffffffffff60026047608081106200075257fe5b018190555070054183095b2c8ececf30ffffffffffffff60026048608081106200077857fe5b018190555070050a28be635ca2b888f77fffffffffffff60026049608081106200079e57fe5b01819055507004d5156639708c9db33c3fffffffffffff6002604a60808110620007c457fe5b01819055507004a23105873875bd52dfdfffffffffffff6002604b60808110620007ea57fe5b0181905550700471649d87199aa990756fffffffffffff6002604c608081106200081057fe5b01819055507004429a21a029d4c1457cfbffffffffffff6002604d608081106200083657fe5b0181905550700415bc6d6fb7dd71af2cb3ffffffffffff6002604e608081106200085c57fe5b01819055507003eab73b3bbfe282243ce1ffffffffffff6002604f608081106200088257fe5b01819055507003c1771ac9fb6b4c18e229ffffffffffff6002605060808110620008a857fe5b0181905550700399e96897690418f785257fffffffffff6002605160808110620008ce57fe5b0181905550700373fc456c53bb779bf0ea9fffffffffff6002605260808110620008f457fe5b018190555070034f9e8e490c48e67e6ab8bfffffffffff60026053608081106200091a57fe5b018190555070032cbfd4a7adc790560b3337ffffffffff60026054608081106200094057fe5b018190555070030b50570f6e5d2acca94613ffffffffff60026055608081106200096657fe5b01819055507002eb40f9f620fda6b56c2861ffffffffff60026056608081106200098c57fe5b01819055507002cc8340ecb0d0f520a6af58ffffffffff6002605760808110620009b257fe5b01819055507002af09481380a0a35cf1ba02ffffffffff6002605860808110620009d857fe5b0181905550700292c5bdd3b92ec810287b1b3fffffffff6002605960808110620009fe57fe5b0181905550700277abdcdab07d5a77ac6d6b9fffffffff6002605a6080811062000a2457fe5b018190555070025daf6654b1eaa55fd64df5efffffffff6002605b6080811062000a4a57fe5b0181905550700244c49c648baa98192dce88b7ffffffff6002605c6080811062000a7057fe5b018190555070022ce03cd5619a311b2471268bffffffff6002605d6080811062000a9657fe5b0181905550700215f77c045fbe885654a44a0fffffffff6002605e6080811062000abc57fe5b01819055507001ffffffffffffffffffffffffffffffff6002605f6080811062000ae257fe5b01819055507001eaefdbdaaee7421fc4d3ede5ffffffff600260606080811062000b0857fe5b01819055507001d6bd8b2eb257df7e8ca57b09bfffffff600260616080811062000b2e57fe5b01819055507001c35fedd14b861eb0443f7f133fffffff600260626080811062000b5457fe5b01819055507001b0ce43b322bcde4a56e8ada5afffffff600260636080811062000b7a57fe5b018190555070019f0028ec1fff007f5a195a39dfffffff600260646080811062000ba057fe5b018190555070018ded91f0e72ee74f49b15ba527ffffff600260656080811062000bc657fe5b018190555070017d8ec7f04136f4e5615fd41a63ffffff600260666080811062000bec57fe5b018190555070016ddc6556cdb84bdc8d12d22e6fffffff600260676080811062000c1257fe5b018190555070015ecf52776a1155b5bd8395814f7fffff600260686080811062000c3857fe5b018190555070015060c256cb23b3b3cc3754cf40ffffff600260696080811062000c5e57fe5b01819055507001428a2f98d728ae223ddab715be3fffff6002606a6080811062000c8457fe5b018190555070013545598e5c23276ccf0ede68034fffff6002606b6080811062000caa57fe5b01819055507001288c4161ce1d6f54b7f61081194fffff6002606c6080811062000cd057fe5b018190555070011c592761c666aa641d5a01a40f17ffff6002606d6080811062000cf657fe5b0181905550700110a688680a7530515f3e6e6cfdcdffff6002606e6080811062000d1c57fe5b01819055507001056f1b5bedf75c6bcb2ce8aed428ffff6002606f6080811062000d4257fe5b01819055506ffaadceceeff8a0890f3875f008277fff600260706080811062000d6757fe5b01819055506ff05dc6b27edad306388a600f6ba0bfff600260716080811062000d8c57fe5b01819055506fe67a5a25da41063de1495d5b18cdbfff600260726080811062000db157fe5b01819055506fdcff115b14eedde6fc3aa5353f2e4fff600260736080811062000dd657fe5b01819055506fd3e7a3924312399f9aae2e0f868f8fff600260746080811062000dfb57fe5b01819055506fcb2ff529eb71e41582cccd5a1ee26fff600260756080811062000e2057fe5b01819055506fc2d415c3db974ab32a51840c0b67edff600260766080811062000e4557fe5b01819055506fbad03e7d883f69ad5b0a186184e06bff600260776080811062000e6a57fe5b01819055506fb320d03b2c343d4829abd6075f0cc5ff600260786080811062000e8f57fe5b01819055506fabc25204e02828d73c6e80bcdb1a95bf600260796080811062000eb457fe5b01819055506fa4b16f74ee4bb2040a1ec6c15fbbf2df6002607a6080811062000ed957fe5b01819055506f9deaf736ac1f569deb1b5ae3f36c130f6002607b6080811062000efe57fe5b01819055506f976bd9952c7aa957f5937d790ef650376002607c6080811062000f2357fe5b01819055506f9131271922eaa6064b73a22d0bd4f2bf6002607d6080811062000f4857fe5b01819055506f8b380f3558668c46c91c49a2f8e967b96002607e6080811062000f6d57fe5b01819055506f857ddf0117efa215952912839f6473e66002607f6080811062000f9257fe5b018190555062000fa762000fb560201b60201c565b8060868190555050620012b0565b62000fe473fcfb45679539667f7ed55fa59a15c8cad73d9a4e60856200103d60201b62003a1b1790919060201c565b73fcfb45679539667f7ed55fa59a15c8cad73d9a4e73ffffffffffffffffffffffffffffffffffffffff167f8581e161429a3f57c3c981c8849cb3a370d288de12e549408673a49caca45dd060405160405180910390a2565b6200104f82826200112160201b60201c565b15620010c3576040517f08c379a000000000000000000000000000000000000000000000000000000000815260040180806020018281038252601f8152602001807f526f6c65733a206163636f756e7420616c72656164792068617320726f6c650081525060200191505060405180910390fd5b60018260000160008373ffffffffffffffffffffffffffffffffffffffff1673ffffffffffffffffffffffffffffffffffffffff16815260200190815260200160002060006101000a81548160ff0219169083151502179055505050565b60008073ffffffffffffffffffffffffffffffffffffffff168273ffffffffffffffffffffffffffffffffffffffff161415620011aa576040517f08c379a000000000000000000000000000000000000000000000000000000000815260040180806020018281038252602281526020018062005b446022913960400191505060405180910390fd5b8260000160008373ffffffffffffffffffffffffffffffffffffffff1673ffffffffffffffffffffffffffffffffffffffff16815260200190815260200160002060009054906101000a900460ff16905092915050565b828054600181600116156101000203166002900490600052602060002090601f016020900481019282601f106200124457805160ff191683800117855562001275565b8280016001018555821562001275579182015b828111156200127457825182559160200191906001019062001257565b5b50905062001284919062001288565b5090565b620012ad91905b80821115620012a95760008160009055506001016200128f565b5090565b90565b61488480620012c06000396000f3fe60806040526004361061020f5760003560e01c80638129fc1c11610118578063b166a09f116100a0578063e37dbfd91161006f578063e37dbfd914610c78578063e4849b3214610caf578063eb024e7c14610d02578063f2fde38b14610d67578063fe173b9714610db85761020f565b8063b166a09f14610ae6578063bf1fe42014610b4f578063c5581db514610b8a578063dd62ed3e14610bf35761020f565b806396365d44116100e757806396365d4414610940578063a457c2d71461096b578063a6f2ae3a146109de578063a9059cbb14610a00578063ad551cb714610a735761020f565b80638129fc1c146108855780638b0ee5a31461088f5780638da5cb5b146108ba5780638f32d59b146109115761020f565b8063395093511161019b57806365c3ad421161016a57806365c3ad42146106d25780636e2904ec1461072d57806370a08231146107a0578063715018a614610805578063769a8b9a1461081c5761020f565b8063395093511461050b57806349f9b0f71461057e57806354fd4d50146105f15780635add5186146106815761020f565b806318160ddd116101e257806318160ddd1461038457806323b872dd146103af57806329a00e7c146104425780632abef4fe146104b55780632ff2e9dc146104e05761020f565b806303592e741461021a57806303d6818514610275578063095ea7b3146102da5780630c7d5cd81461034d575b610217610de3565b50005b34801561022657600080fd5b506102736004803603604081101561023d57600080fd5b81019080803573ffffffffffffffffffffffffffffffffffffffff16906020019092919080359060200190929190505050610fbe565b005b34801561028157600080fd5b506102c46004803603602081101561029857600080fd5b81019080803573ffffffffffffffffffffffffffffffffffffffff169060200190929190505050611057565b6040518082815260200191505060405180910390f35b3480156102e657600080fd5b50610333600480360360408110156102fd57600080fd5b81019080803573ffffffffffffffffffffffffffffffffffffffff1690602001909291908035906020019092919050505061106f565b604051808215151515815260200191505060405180910390f35b34801561035957600080fd5b50610362611418565b604051808263ffffffff1663ffffffff16815260200191505060405180910390f35b34801561039057600080fd5b5061039961142e565b6040518082815260200191505060405180910390f35b3480156103bb57600080fd5b50610428600480360360608110156103d257600080fd5b81019080803573ffffffffffffffffffffffffffffffffffffffff169060200190929190803573ffffffffffffffffffffffffffffffffffffffff16906020019092919080359060200190929190505050611438565b604051808215151515815260200191505060405180910390f35b34801561044e57600080fd5b5061049f6004803603608081101561046557600080fd5b810190808035906020019092919080359060200190929190803563ffffffff1690602001909291908035906020019092919050505061187b565b6040518082815260200191505060405180910390f35b3480156104c157600080fd5b506104ca611977565b6040518082815260200191505060405180910390f35b3480156104ec57600080fd5b506104f561197d565b6040518082815260200191505060405180910390f35b34801561051757600080fd5b506105646004803603604081101561052e57600080fd5b81019080803573ffffffffffffffffffffffffffffffffffffffff1690602001909291908035906020019092919050505061198a565b604051808215151515815260200191505060405180910390f35b34801561058a57600080fd5b506105db600480360360808110156105a157600080fd5b810190808035906020019092919080359060200190929190803563ffffffff16906020019092919080359060200190929190505050611a2f565b6040518082815260200191505060405180910390f35b3480156105fd57600080fd5b50610606611b5f565b6040518080602001828103825283818151815260200191508051906020019080838360005b8381101561064657808201518184015260208101905061062b565b50505050905090810190601f1680156106735780820380516001836020036101000a031916815260200191505b509250505060405180910390f35b34801561068d57600080fd5b506106d0600480360360208110156106a457600080fd5b81019080803573ffffffffffffffffffffffffffffffffffffffff169060200190929190505050611bfd565b005b3480156106de57600080fd5b5061072b600480360360408110156106f557600080fd5b81019080803573ffffffffffffffffffffffffffffffffffffffff16906020019092919080359060200190929190505050611cf5565b005b34801561073957600080fd5b506107866004803603604081101561075057600080fd5b81019080803573ffffffffffffffffffffffffffffffffffffffff16906020019092919080359060200190929190505050611d8e565b604051808215151515815260200191505060405180910390f35b3480156107ac57600080fd5b506107ef600480360360208110156107c357600080fd5b81019080803573ffffffffffffffffffffffffffffffffffffffff169060200190929190505050611e90565b6040518082815260200191505060405180910390f35b34801561081157600080fd5b5061081a611ed9565b005b34801561082857600080fd5b5061086b6004803603602081101561083f57600080fd5b81019080803573ffffffffffffffffffffffffffffffffffffffff169060200190929190505050612012565b604051808215151515815260200191505060405180910390f35b61088d61202f565b005b34801561089b57600080fd5b506108a461206f565b6040518082815260200191505060405180910390f35b3480156108c657600080fd5b506108cf612078565b604051808273ffffffffffffffffffffffffffffffffffffffff1673ffffffffffffffffffffffffffffffffffffffff16815260200191505060405180910390f35b34801561091d57600080fd5b506109266120a1565b604051808215151515815260200191505060405180910390f35b34801561094c57600080fd5b506109556120f8565b6040518082815260200191505060405180910390f35b34801561097757600080fd5b506109c46004803603604081101561098e57600080fd5b81019080803573ffffffffffffffffffffffffffffffffffffffff169060200190929190803590602001909291905050506120fe565b604051808215151515815260200191505060405180910390f35b6109e6610de3565b604051808215151515815260200191505060405180910390f35b348015610a0c57600080fd5b50610a5960048036036040811015610a2357600080fd5b81019080803573ffffffffffffffffffffffffffffffffffffffff169060200190929190803590602001909291905050506121a3565b604051808215151515815260200191505060405180910390f35b348015610a7f57600080fd5b50610acc60048036036040811015610a9657600080fd5b81019080803573ffffffffffffffffffffffffffffffffffffffff1690602001909291908035906020019092919050505061254c565b604051808215151515815260200191505060405180910390f35b348015610af257600080fd5b50610b3560048036036020811015610b0957600080fd5b81019080803573ffffffffffffffffffffffffffffffffffffffff16906020019092919050505061264e565b604051808215151515815260200191505060405180910390f35b348015610b5b57600080fd5b50610b8860048036036020811015610b7257600080fd5b810190808035906020019092919050505061266b565b005b348015610b9657600080fd5b50610bd960048036036020811015610bad57600080fd5b81019080803573ffffffffffffffffffffffffffffffffffffffff1690602001909291905050506126fc565b604051808215151515815260200191505060405180910390f35b348015610bff57600080fd5b50610c6260048036036040811015610c1657600080fd5b81019080803573ffffffffffffffffffffffffffffffffffffffff169060200190929190803573ffffffffffffffffffffffffffffffffffffffff169060200190929190505050612781565b6040518082815260200191505060405180910390f35b348015610c8457600080fd5b50610c8d612808565b604051808263ffffffff1663ffffffff16815260200191505060405180910390f35b348015610cbb57600080fd5b50610ce860048036036020811015610cd257600080fd5b810190808035906020019092919050505061280f565b604051808215151515815260200191505060405180910390f35b348015610d0e57600080fd5b50610d5160048036036020811015610d2557600080fd5b81019080803573ffffffffffffffffffffffffffffffffffffffff169060200190929190505050612a7e565b6040518082815260200191505060405180910390f35b348015610d7357600080fd5b50610db660048036036020811015610d8a57600080fd5b81019080803573ffffffffffffffffffffffffffffffffffffffff169060200190929190505050612ac7565b005b348015610dc457600080fd5b50610dcd612b4d565b6040518082815260200191505060405180910390f35b60007f03a63e2ece6348d85bde1e3ac40c8b4f1c6d029d2e06ecc6a60083ce06f8e648608f546040518082815260200191505060405180910390a1608f543a1115610e79576040517f08c379a000000000000000000000000000000000000000000000000000000000815260040180806020018281038252602881526020018061480d6028913960400191505060405180910390fd5b60003411610e8657600080fd5b6000610eaa608c54608d54608e60009054906101000a900463ffffffff163461187b565b9050610ec181608c54612b5390919063ffffffff16565b608c81905550610f1981608a60003373ffffffffffffffffffffffffffffffffffffffff1673ffffffffffffffffffffffffffffffffffffffff16815260200190815260200160002054612b5390919063ffffffff16565b608a60003373ffffffffffffffffffffffffffffffffffffffff1673ffffffffffffffffffffffffffffffffffffffff16815260200190815260200160002081905550610f7134608d54612b5390919063ffffffff16565b608d819055507fe7360c0fa1984a85874443100f5b25dd4f84192659660eb199f6c96e11defbcb8134604051808381526020018281526020019250505060405180910390a1600191505090565b61101081608860008573ffffffffffffffffffffffffffffffffffffffff1673ffffffffffffffffffffffffffffffffffffffff16815260200190815260200160002054612b5390919063ffffffff16565b608860008473ffffffffffffffffffffffffffffffffffffffff1673ffffffffffffffffffffffffffffffffffffffff168152602001908152602001600020819055505050565b60876020528060005260406000206000915090505481565b6000816000608760003373ffffffffffffffffffffffffffffffffffffffff1673ffffffffffffffffffffffffffffffffffffffff16815260200190815260200160002054111561115257608760003373ffffffffffffffffffffffffffffffffffffffff1673ffffffffffffffffffffffffffffffffffffffff168152602001908152602001600020548110611151576040517f08c379a00000000000000000000000000000000000000000000000000000000081526004018080602001828103825260d581526020018061463b60d5913960e00191505060405180910390fd5b5b828481608860003373ffffffffffffffffffffffffffffffffffffffff1673ffffffffffffffffffffffffffffffffffffffff1681526020019081526020016000205411801561122d5750608960008273ffffffffffffffffffffffffffffffffffffffff1673ffffffffffffffffffffffffffffffffffffffff16815260200190815260200160002060009054906101000a900473ffffffffffffffffffffffffffffffffffffffff1673ffffffffffffffffffffffffffffffffffffffff168173ffffffffffffffffffffffffffffffffffffffff1614155b15611400577fee0e21a0909c175792d67fa4e7c4f99d844405993e69b1ac9985af378f4cda4b826040518082815260200191505060405180910390a17f8105dd0b792b0671c88d7a1212133cc32b4af324f6f817603da89c5f58f3101a608860003373ffffffffffffffffffffffffffffffffffffffff1673ffffffffffffffffffffffffffffffffffffffff168152602001908152602001600020546040518082815260200191505060405180910390a17f696e0beeb15ed9ca67eaf74a16a22f657e91da45dd68458a392091645cc684c8611352608860003373ffffffffffffffffffffffffffffffffffffffff1673ffffffffffffffffffffffffffffffffffffffff1681526020019081526020016000205484612bdb90919063ffffffff16565b6040518082815260200191505060405180910390a1608860003373ffffffffffffffffffffffffffffffffffffffff1673ffffffffffffffffffffffffffffffffffffffff168152602001908152602001600020548211156113ff576040517f08c379a000000000000000000000000000000000000000000000000000000000815260040180806020018281038252606881526020018061473d6068913960800191505060405180910390fd5b5b61140b338787612c64565b6001935050505092915050565b608e60009054906101000a900463ffffffff1681565b6000608c54905090565b6000816000608760003373ffffffffffffffffffffffffffffffffffffffff1673ffffffffffffffffffffffffffffffffffffffff16815260200190815260200160002054111561151b57608760003373ffffffffffffffffffffffffffffffffffffffff1673ffffffffffffffffffffffffffffffffffffffff16815260200190815260200160002054811061151a576040517f08c379a00000000000000000000000000000000000000000000000000000000081526004018080602001828103825260d581526020018061463b60d5913960e00191505060405180910390fd5b5b828481608860003373ffffffffffffffffffffffffffffffffffffffff1673ffffffffffffffffffffffffffffffffffffffff168152602001908152602001600020541180156115f65750608960008273ffffffffffffffffffffffffffffffffffffffff1673ffffffffffffffffffffffffffffffffffffffff16815260200190815260200160002060009054906101000a900473ffffffffffffffffffffffffffffffffffffffff1673ffffffffffffffffffffffffffffffffffffffff168173ffffffffffffffffffffffffffffffffffffffff1614155b156117c9577fee0e21a0909c175792d67fa4e7c4f99d844405993e69b1ac9985af378f4cda4b826040518082815260200191505060405180910390a17f8105dd0b792b0671c88d7a1212133cc32b4af324f6f817603da89c5f58f3101a608860003373ffffffffffffffffffffffffffffffffffffffff1673ffffffffffffffffffffffffffffffffffffffff168152602001908152602001600020546040518082815260200191505060405180910390a17f696e0beeb15ed9ca67eaf74a16a22f657e91da45dd68458a392091645cc684c861171b608860003373ffffffffffffffffffffffffffffffffffffffff1673ffffffffffffffffffffffffffffffffffffffff1681526020019081526020016000205484612bdb90919063ffffffff16565b6040518082815260200191505060405180910390a1608860003373ffffffffffffffffffffffffffffffffffffffff1673ffffffffffffffffffffffffffffffffffffffff168152602001908152602001600020548211156117c8576040517f08c379a000000000000000000000000000000000000000000000000000000000815260040180806020018281038252606881526020018061473d6068913960800191505060405180910390fd5b5b6117d48787876131ed565b61186d873361186888608b60008d73ffffffffffffffffffffffffffffffffffffffff1673ffffffffffffffffffffffffffffffffffffffff16815260200190815260200160002060003373ffffffffffffffffffffffffffffffffffffffff1673ffffffffffffffffffffffffffffffffffffffff16815260200190815260200160002054612bdb90919063ffffffff16565b612c64565b600193505050509392505050565b6000808511801561188c5750600084115b801561189e575060008363ffffffff16115b80156118b95750620f424063ffffffff168363ffffffff1611155b6118c257600080fd5b60008214156118d4576000905061196f565b620f424063ffffffff168363ffffffff161415611917576119108461190284886138ae90919063ffffffff16565b61393490919063ffffffff16565b905061196f565b600080600061192f8786612b5390919063ffffffff16565b9050611940818888620f42406139c3565b809350819450505060008260ff16611961858b6138ae90919063ffffffff16565b901c90508881039450505050505b949350505050565b60865481565b68056bc75e2d6310000081565b6000611a253384611a2085608b60003373ffffffffffffffffffffffffffffffffffffffff1673ffffffffffffffffffffffffffffffffffffffff16815260200190815260200160002060008973ffffffffffffffffffffffffffffffffffffffff1673ffffffffffffffffffffffffffffffffffffffff16815260200190815260200160002054612b5390919063ffffffff16565b612c64565b6001905092915050565b60008085118015611a405750600084115b8015611a52575060008363ffffffff16115b8015611a6d5750620f424063ffffffff168363ffffffff1611155b8015611a795750848211155b611a8257600080fd5b6000821415611a945760009050611b57565b84821415611aa457839050611b57565b620f424063ffffffff168363ffffffff161415611ae757611ae085611ad284876138ae90919063ffffffff16565b61393490919063ffffffff16565b9050611b57565b60008060008488039050611b008882620f4240896139c3565b80935081945050506000611b1d84896138ae90919063ffffffff16565b905060008360ff1689901b9050611b4f85611b418385612bdb90919063ffffffff16565b61393490919063ffffffff16565b955050505050505b949350505050565b60828054600181600116156101000203166002900480601f016020809104026020016040519081016040528092919081815260200182805460018160011615610100020316600290048015611bf55780601f10611bca57610100808354040283529160200191611bf5565b820191906000526020600020905b815481529060010190602001808311611bd857829003601f168201915b505050505081565b608360009054906101000a900460ff1615611c80576040517f08c379a00000000000000000000000000000000000000000000000000000000081526004018080602001828103825260178152602001807f457363726f7720726f6c6520616c72656164792073657400000000000000000081525060200191505060405180910390fd5b611c94816084613a1b90919063ffffffff16565b8073ffffffffffffffffffffffffffffffffffffffff167fcff6116c063f9dc68129fcb58fcfe99bbbaa33d9ad777e285d7f08bf174d715260405160405180910390a26001608360006101000a81548160ff02191690831515021790555050565b611d4781608860008573ffffffffffffffffffffffffffffffffffffffff1673ffffffffffffffffffffffffffffffffffffffff16815260200190815260200160002054612bdb90919063ffffffff16565b608860008473ffffffffffffffffffffffffffffffffffffffff1673ffffffffffffffffffffffffffffffffffffffff168152602001908152602001600020819055505050565b6000611da0611d9b613af6565b612012565b611df5576040517f08c379a000000000000000000000000000000000000000000000000000000000815260040180806020018281038252602d815260200180614710602d913960400191505060405180910390fd5b611e4782608760008673ffffffffffffffffffffffffffffffffffffffff1673ffffffffffffffffffffffffffffffffffffffff16815260200190815260200160002054612bdb90919063ffffffff16565b608760008573ffffffffffffffffffffffffffffffffffffffff1673ffffffffffffffffffffffffffffffffffffffff1681526020019081526020016000208190555092915050565b6000608a60008373ffffffffffffffffffffffffffffffffffffffff1673ffffffffffffffffffffffffffffffffffffffff168152602001908152602001600020549050919050565b611ee16120a1565b611f53576040517f08c379a00000000000000000000000000000000000000000000000000000000081526004018080602001828103825260208152602001807f4f776e61626c653a2063616c6c6572206973206e6f7420746865206f776e657281525060200191505060405180910390fd5b600073ffffffffffffffffffffffffffffffffffffffff166000809054906101000a900473ffffffffffffffffffffffffffffffffffffffff1673ffffffffffffffffffffffffffffffffffffffff167f8be0079c531659141344cd1fd0a4f28419497f9722a3daafe3b4186f6b6457e060405160405180910390a360008060006101000a81548173ffffffffffffffffffffffffffffffffffffffff021916908373ffffffffffffffffffffffffffffffffffffffff160217905550565b6000612028826085613afe90919063ffffffff16565b9050919050565b34608d81905550620249f0608e60006101000a81548163ffffffff021916908363ffffffff16021790555061206d3368056bc75e2d63100000613bdc565b565b64746a52880081565b60008060009054906101000a900473ffffffffffffffffffffffffffffffffffffffff16905090565b60008060009054906101000a900473ffffffffffffffffffffffffffffffffffffffff1673ffffffffffffffffffffffffffffffffffffffff163373ffffffffffffffffffffffffffffffffffffffff1614905090565b608d5481565b6000612199338461219485608b60003373ffffffffffffffffffffffffffffffffffffffff1673ffffffffffffffffffffffffffffffffffffffff16815260200190815260200160002060008973ffffffffffffffffffffffffffffffffffffffff1673ffffffffffffffffffffffffffffffffffffffff16815260200190815260200160002054612bdb90919063ffffffff16565b612c64565b6001905092915050565b6000816000608760003373ffffffffffffffffffffffffffffffffffffffff1673ffffffffffffffffffffffffffffffffffffffff16815260200190815260200160002054111561228657608760003373ffffffffffffffffffffffffffffffffffffffff1673ffffffffffffffffffffffffffffffffffffffff168152602001908152602001600020548110612285576040517f08c379a00000000000000000000000000000000000000000000000000000000081526004018080602001828103825260d581526020018061463b60d5913960e00191505060405180910390fd5b5b828481608860003373ffffffffffffffffffffffffffffffffffffffff1673ffffffffffffffffffffffffffffffffffffffff168152602001908152602001600020541180156123615750608960008273ffffffffffffffffffffffffffffffffffffffff1673ffffffffffffffffffffffffffffffffffffffff16815260200190815260200160002060009054906101000a900473ffffffffffffffffffffffffffffffffffffffff1673ffffffffffffffffffffffffffffffffffffffff168173ffffffffffffffffffffffffffffffffffffffff1614155b15612534577fee0e21a0909c175792d67fa4e7c4f99d844405993e69b1ac9985af378f4cda4b826040518082815260200191505060405180910390a17f8105dd0b792b0671c88d7a1212133cc32b4af324f6f817603da89c5f58f3101a608860003373ffffffffffffffffffffffffffffffffffffffff1673ffffffffffffffffffffffffffffffffffffffff168152602001908152602001600020546040518082815260200191505060405180910390a17f696e0beeb15ed9ca67eaf74a16a22f657e91da45dd68458a392091645cc684c8612486608860003373ffffffffffffffffffffffffffffffffffffffff1673ffffffffffffffffffffffffffffffffffffffff1681526020019081526020016000205484612bdb90919063ffffffff16565b6040518082815260200191505060405180910390a1608860003373ffffffffffffffffffffffffffffffffffffffff1673ffffffffffffffffffffffffffffffffffffffff16815260200190815260200160002054821115612533576040517f08c379a000000000000000000000000000000000000000000000000000000000815260040180806020018281038252606881526020018061473d6068913960800191505060405180910390fd5b5b61253f3387876131ed565b6001935050505092915050565b600061255e612559613af6565b61264e565b6125b3576040517f08c379a000000000000000000000000000000000000000000000000000000000815260040180806020018281038252603181526020018061460a6031913960400191505060405180910390fd5b61260582608760008673ffffffffffffffffffffffffffffffffffffffff1673ffffffffffffffffffffffffffffffffffffffff16815260200190815260200160002054612b5390919063ffffffff16565b608760008573ffffffffffffffffffffffffffffffffffffffff1673ffffffffffffffffffffffffffffffffffffffff1681526020019081526020016000208190555092915050565b6000612664826084613afe90919063ffffffff16565b9050919050565b6126736120a1565b6126e5576040517f08c379a00000000000000000000000000000000000000000000000000000000081526004018080602001828103825260208152602001807f4f776e61626c653a2063616c6c6572206973206e6f7420746865206f776e657281525060200191505060405180910390fd5b600081116126f257600080fd5b80608f8190555050565b600081608960008473ffffffffffffffffffffffffffffffffffffffff1673ffffffffffffffffffffffffffffffffffffffff16815260200190815260200160002060006101000a81548173ffffffffffffffffffffffffffffffffffffffff021916908373ffffffffffffffffffffffffffffffffffffffff160217905550919050565b6000608b60008473ffffffffffffffffffffffffffffffffffffffff1673ffffffffffffffffffffffffffffffffffffffff16815260200190815260200160002060008373ffffffffffffffffffffffffffffffffffffffff1673ffffffffffffffffffffffffffffffffffffffff16815260200190815260200160002054905092915050565b620249f081565b60007f03a63e2ece6348d85bde1e3ac40c8b4f1c6d029d2e06ecc6a60083ce06f8e648608f546040518082815260200191505060405180910390a1608f543a11156128a5576040517f08c379a000000000000000000000000000000000000000000000000000000000815260040180806020018281038252602881526020018061480d6028913960400191505060405180910390fd5b6000821180156128f4575081608a60003373ffffffffffffffffffffffffffffffffffffffff1673ffffffffffffffffffffffffffffffffffffffff1681526020019081526020016000205410155b6128fd57600080fd5b6000612921608c54608d54608e60009054906101000a900463ffffffff1686611a2f565b90503373ffffffffffffffffffffffffffffffffffffffff166108fc829081150290604051600060405180830381858888f19350505050158015612969573d6000803e3d6000fd5b5061297f81608d54612bdb90919063ffffffff16565b608d819055506129d783608a60003373ffffffffffffffffffffffffffffffffffffffff1673ffffffffffffffffffffffffffffffffffffffff16815260200190815260200160002054612bdb90919063ffffffff16565b608a60003373ffffffffffffffffffffffffffffffffffffffff1673ffffffffffffffffffffffffffffffffffffffff16815260200190815260200160002081905550612a2f83608c54612bdb90919063ffffffff16565b608c819055507f210405eb88ac7589aa9de0a6e36b9c9d3cd6e4061b74363d250a77afe3c6efb78382604051808381526020018281526020019250505060405180910390a16001915050919050565b6000608760008373ffffffffffffffffffffffffffffffffffffffff1673ffffffffffffffffffffffffffffffffffffffff168152602001908152602001600020549050919050565b612acf6120a1565b612b41576040517f08c379a00000000000000000000000000000000000000000000000000000000081526004018080602001828103825260208152602001807f4f776e61626c653a2063616c6c6572206973206e6f7420746865206f776e657281525060200191505060405180910390fd5b612b4a81613e38565b50565b608f5481565b600080828401905083811015612bd1576040517f08c379a000000000000000000000000000000000000000000000000000000000815260040180806020018281038252601b8152602001807f536166654d6174683a206164646974696f6e206f766572666c6f77000000000081525060200191505060405180910390fd5b8091505092915050565b600082821115612c53576040517f08c379a000000000000000000000000000000000000000000000000000000000815260040180806020018281038252601e8152602001807f536166654d6174683a207375627472616374696f6e206f766572666c6f77000081525060200191505060405180910390fd5b600082840390508091505092915050565b806000608760003373ffffffffffffffffffffffffffffffffffffffff1673ffffffffffffffffffffffffffffffffffffffff168152602001908152602001600020541115612d4557608760003373ffffffffffffffffffffffffffffffffffffffff1673ffffffffffffffffffffffffffffffffffffffff168152602001908152602001600020548110612d44576040517f08c379a00000000000000000000000000000000000000000000000000000000081526004018080602001828103825260d581526020018061463b60d5913960e00191505060405180910390fd5b5b818381608860003373ffffffffffffffffffffffffffffffffffffffff1673ffffffffffffffffffffffffffffffffffffffff16815260200190815260200160002054118015612e205750608960008273ffffffffffffffffffffffffffffffffffffffff1673ffffffffffffffffffffffffffffffffffffffff16815260200190815260200160002060009054906101000a900473ffffffffffffffffffffffffffffffffffffffff1673ffffffffffffffffffffffffffffffffffffffff168173ffffffffffffffffffffffffffffffffffffffff1614155b15612ff3577fee0e21a0909c175792d67fa4e7c4f99d844405993e69b1ac9985af378f4cda4b826040518082815260200191505060405180910390a17f8105dd0b792b0671c88d7a1212133cc32b4af324f6f817603da89c5f58f3101a608860003373ffffffffffffffffffffffffffffffffffffffff1673ffffffffffffffffffffffffffffffffffffffff168152602001908152602001600020546040518082815260200191505060405180910390a17f696e0beeb15ed9ca67eaf74a16a22f657e91da45dd68458a392091645cc684c8612f45608860003373ffffffffffffffffffffffffffffffffffffffff1673ffffffffffffffffffffffffffffffffffffffff1681526020019081526020016000205484612bdb90919063ffffffff16565b6040518082815260200191505060405180910390a1608860003373ffffffffffffffffffffffffffffffffffffffff1673ffffffffffffffffffffffffffffffffffffffff16815260200190815260200160002054821115612ff2576040517f08c379a000000000000000000000000000000000000000000000000000000000815260040180806020018281038252606881526020018061473d6068913960800191505060405180910390fd5b5b600073ffffffffffffffffffffffffffffffffffffffff168673ffffffffffffffffffffffffffffffffffffffff161415613079576040517f08c379a00000000000000000000000000000000000000000000000000000000081526004018080602001828103825260248152602001806148356024913960400191505060405180910390fd5b600073ffffffffffffffffffffffffffffffffffffffff168573ffffffffffffffffffffffffffffffffffffffff1614156130ff576040517f08c379a00000000000000000000000000000000000000000000000000000000081526004018080602001828103825260228152602001806145e86022913960400191505060405180910390fd5b83608b60008873ffffffffffffffffffffffffffffffffffffffff1673ffffffffffffffffffffffffffffffffffffffff16815260200190815260200160002060008773ffffffffffffffffffffffffffffffffffffffff1673ffffffffffffffffffffffffffffffffffffffff168152602001908152602001600020819055508473ffffffffffffffffffffffffffffffffffffffff168673ffffffffffffffffffffffffffffffffffffffff167f8c5be1e5ebec7d5bd14f71427d1e84f3dd0314c0f7b2291e5b200ac8c7c3b925866040518082815260200191505060405180910390a3505050505050565b806000608760003373ffffffffffffffffffffffffffffffffffffffff1673ffffffffffffffffffffffffffffffffffffffff1681526020019081526020016000205411156132ce57608760003373ffffffffffffffffffffffffffffffffffffffff1673ffffffffffffffffffffffffffffffffffffffff1681526020019081526020016000205481106132cd576040517f08c379a00000000000000000000000000000000000000000000000000000000081526004018080602001828103825260d581526020018061463b60d5913960e00191505060405180910390fd5b5b818381608860003373ffffffffffffffffffffffffffffffffffffffff1673ffffffffffffffffffffffffffffffffffffffff168152602001908152602001600020541180156133a95750608960008273ffffffffffffffffffffffffffffffffffffffff1673ffffffffffffffffffffffffffffffffffffffff16815260200190815260200160002060009054906101000a900473ffffffffffffffffffffffffffffffffffffffff1673ffffffffffffffffffffffffffffffffffffffff168173ffffffffffffffffffffffffffffffffffffffff1614155b1561357c577fee0e21a0909c175792d67fa4e7c4f99d844405993e69b1ac9985af378f4cda4b826040518082815260200191505060405180910390a17f8105dd0b792b0671c88d7a1212133cc32b4af324f6f817603da89c5f58f3101a608860003373ffffffffffffffffffffffffffffffffffffffff1673ffffffffffffffffffffffffffffffffffffffff168152602001908152602001600020546040518082815260200191505060405180910390a17f696e0beeb15ed9ca67eaf74a16a22f657e91da45dd68458a392091645cc684c86134ce608860003373ffffffffffffffffffffffffffffffffffffffff1673ffffffffffffffffffffffffffffffffffffffff1681526020019081526020016000205484612bdb90919063ffffffff16565b6040518082815260200191505060405180910390a1608860003373ffffffffffffffffffffffffffffffffffffffff1673ffffffffffffffffffffffffffffffffffffffff1681526020019081526020016000205482111561357b576040517f08c379a000000000000000000000000000000000000000000000000000000000815260040180806020018281038252606881526020018061473d6068913960800191505060405180910390fd5b5b600073ffffffffffffffffffffffffffffffffffffffff168673ffffffffffffffffffffffffffffffffffffffff161415613602576040517f08c379a00000000000000000000000000000000000000000000000000000000081526004018080602001828103825260258152602001806147e86025913960400191505060405180910390fd5b600073ffffffffffffffffffffffffffffffffffffffff168573ffffffffffffffffffffffffffffffffffffffff161415613688576040517f08c379a000000000000000000000000000000000000000000000000000000000815260040180806020018281038252602381526020018061459f6023913960400191505060405180910390fd5b600061369387612a7e565b1115613717576136a286612a7e565b8410613716576040517f08c379a000000000000000000000000000000000000000000000000000000000815260040180806020018281038252601e8152602001807f73656e6420616d6f756e74203e2070726f74656374656420746f6b656e73000081525060200191505060405180910390fd5b5b61376984608a60008973ffffffffffffffffffffffffffffffffffffffff1673ffffffffffffffffffffffffffffffffffffffff16815260200190815260200160002054612bdb90919063ffffffff16565b608a60008873ffffffffffffffffffffffffffffffffffffffff1673ffffffffffffffffffffffffffffffffffffffff168152602001908152602001600020819055506137fe84608a60008873ffffffffffffffffffffffffffffffffffffffff1673ffffffffffffffffffffffffffffffffffffffff16815260200190815260200160002054612b5390919063ffffffff16565b608a60008773ffffffffffffffffffffffffffffffffffffffff1673ffffffffffffffffffffffffffffffffffffffff168152602001908152602001600020819055508473ffffffffffffffffffffffffffffffffffffffff168673ffffffffffffffffffffffffffffffffffffffff167fddf252ad1be2c89b69c2b068fc378daa952ba7f163c4a11628f55a4df523b3ef866040518082815260200191505060405180910390a3505050505050565b6000808314156138c1576000905061392e565b60008284029050828482816138d257fe5b0414613929576040517f08c379a00000000000000000000000000000000000000000000000000000000081526004018080602001828103825260218152602001806147a56021913960400191505060405180910390fd5b809150505b92915050565b60008082116139ab576040517f08c379a000000000000000000000000000000000000000000000000000000000815260040180806020018281038252601a8152602001807f536166654d6174683a206469766973696f6e206279207a65726f00000000000081525060200191505060405180910390fd5b60008284816139b657fe5b0490508091505092915050565b60008060008363ffffffff168563ffffffff166139e08989613f7c565b02816139e857fe5b04905060006139f6826140c9565b9050613a0b81607f0360ff1683901c8261417e565b8193509350505094509492505050565b613a258282613afe565b15613a98576040517f08c379a000000000000000000000000000000000000000000000000000000000815260040180806020018281038252601f8152602001807f526f6c65733a206163636f756e7420616c72656164792068617320726f6c650081525060200191505060405180910390fd5b60018260000160008373ffffffffffffffffffffffffffffffffffffffff1673ffffffffffffffffffffffffffffffffffffffff16815260200190815260200160002060006101000a81548160ff0219169083151502179055505050565b600033905090565b60008073ffffffffffffffffffffffffffffffffffffffff168273ffffffffffffffffffffffffffffffffffffffff161415613b85576040517f08c379a00000000000000000000000000000000000000000000000000000000081526004018080602001828103825260228152602001806147c66022913960400191505060405180910390fd5b8260000160008373ffffffffffffffffffffffffffffffffffffffff1673ffffffffffffffffffffffffffffffffffffffff16815260200190815260200160002060009054906101000a900460ff16905092915050565b600073ffffffffffffffffffffffffffffffffffffffff168273ffffffffffffffffffffffffffffffffffffffff161415613c7f576040517f08c379a000000000000000000000000000000000000000000000000000000000815260040180806020018281038252601f8152602001807f45524332303a206d696e7420746f20746865207a65726f20616464726573730081525060200191505060405180910390fd5b613c9481608c54612b5390919063ffffffff16565b608c81905550613cec81608a60008573ffffffffffffffffffffffffffffffffffffffff1673ffffffffffffffffffffffffffffffffffffffff16815260200190815260200160002054612b5390919063ffffffff16565b608a60008473ffffffffffffffffffffffffffffffffffffffff1673ffffffffffffffffffffffffffffffffffffffff168152602001908152602001600020819055503073ffffffffffffffffffffffffffffffffffffffff166303592e7483836040518363ffffffff1660e01b8152600401808373ffffffffffffffffffffffffffffffffffffffff1673ffffffffffffffffffffffffffffffffffffffff16815260200182815260200192505050600060405180830381600087803b158015613db657600080fd5b505af1158015613dca573d6000803e3d6000fd5b505050508173ffffffffffffffffffffffffffffffffffffffff16600073ffffffffffffffffffffffffffffffffffffffff167fddf252ad1be2c89b69c2b068fc378daa952ba7f163c4a11628f55a4df523b3ef836040518082815260200191505060405180910390a35050565b600073ffffffffffffffffffffffffffffffffffffffff168173ffffffffffffffffffffffffffffffffffffffff161415613ebe576040517f08c379a00000000000000000000000000000000000000000000000000000000081526004018080602001828103825260268152602001806145c26026913960400191505060405180910390fd5b8073ffffffffffffffffffffffffffffffffffffffff166000809054906101000a900473ffffffffffffffffffffffffffffffffffffffff1673ffffffffffffffffffffffffffffffffffffffff167f8be0079c531659141344cd1fd0a4f28419497f9722a3daafe3b4186f6b6457e060405160405180910390a3806000806101000a81548173ffffffffffffffffffffffffffffffffffffffff021916908373ffffffffffffffffffffffffffffffffffffffff16021790555050565b60007001ffffffffffffffffffffffffffffffff831115613f9957fe5b60008090506000836f80000000000000000000000000000000860281613fbb57fe5b049050700100000000000000000000000000000000811061401f576000613ffa6f800000000000000000000000000000008381613ff457fe5b0461451c565b90508060ff1682901c91506f800000000000000000000000000000008160ff16029250505b6f800000000000000000000000000000008111156140a5576000607f90505b60008160ff1611156140a3576f800000000000000000000000000000008283028161406557fe5b049150700100000000000000000000000000000000821061409757600182901c91506001810360ff166001901b830192505b8060019003905061403e565b505b607a60ff166f02c5c85fdf473de6af278ece600fcbda8302901c9250505092915050565b600080602090506000607f90505b8060ff166001830160ff161015614126576000600282840160ff16816140f957fe5b0490508460028260ff166080811061410d57fe5b01541061411c57809250614120565b8091505b506140d7565b8360028260ff166080811061413757fe5b015410614148578092505050614179565b8360028360ff166080811061415957fe5b01541061416a578192505050614179565b600061417257fe5b6000925050505b919050565b60008083905060008090508360ff16858302901c91506f03442c4e6074a82f1797f72ac00000008202810190508360ff16858302901c91506f0116b96f757c380fb287fd0e400000008202810190508360ff16858302901c91506e45ae5bdd5f0e03eca1ff43900000008202810190508360ff16858302901c91506e0defabf91302cd95b9ffda500000008202810190508360ff16858302901c91506e02529ca9832b22439efff9b80000008202810190508360ff16858302901c91506d54f1cf12bd04e516b6da880000008202810190508360ff16858302901c91506d0a9e39e257a09ca2d6db510000008202810190508360ff16858302901c91506d012e066e7b839fa050c3090000008202810190508360ff16858302901c91506c1e33d7d926c329a1ad1a8000008202810190508360ff16858302901c91506c02bee513bdb4a6b19b5f8000008202810190508360ff16858302901c91506b3a9316fa79b88eccf2a000008202810190508360ff16858302901c91506b048177ebe1fa8123752000008202810190508360ff16858302901c91506a5263fe90242dcbacf000008202810190508360ff16858302901c91506a057e22099c030d941000008202810190508360ff16858302901c91506957e22099c030d94100008202810190508360ff16858302901c915069052b6b545699763100008202810190508360ff16858302901c9150684985f67696bf7480008202810190508360ff16858302901c91506803dea12ea99e4980008202810190508360ff16858302901c91506731880f2214b6e0008202810190508360ff16858302901c915067025bcff56eb360008202810190508360ff16858302901c9150661b722e10ab10008202810190508360ff16858302901c91506601317c700770008202810190508360ff16858302901c9150650cba84aafa008202810190508360ff16858302901c91506482573a0a008202810190508360ff16858302901c91506405035ad9008202810190508360ff16858302901c9150632f881b008202810190508360ff16858302901c91506301b293408202810190508360ff16858302901c9150620efc408202810190508360ff16858302901c9150617fe08202810190508360ff16858302901c91506104208202810190508360ff16858302901c915060218202810190508360ff16858302901c915060018202810190508360ff166001901b856f0688589cc0e9505e2f2fee5580000000838161450f57fe5b0401019250505092915050565b600080600090506000839050610100811015614553575b600181111561454e57600181901c9050600182019150614533565b614594565b6000608090505b60008160ff161115614592578060ff166001901b8210614583578060ff1682901c915080831792505b60018160ff16901c905061455a565b505b819250505091905056fe45524332303a207472616e7366657220746f20746865207a65726f20616464726573734f776e61626c653a206e6577206f776e657220697320746865207a65726f206164647265737345524332303a20617070726f766520746f20746865207a65726f2061646472657373457363726f7720526f6c653a2063616c6c657220646f6573206e6f7420686176652074686520457363726f7720726f6c65796f757220746f6b656e732061726520756e6465722070726f74656374696f6e20706572696f642c20636865636b2074696d65546f4c69667450726f74656374696f6e282920666f722074696d6520756e74696c20796f75206861766520746f6b656e7320617661696c61626c652c20616e642f6f7220636865636b20616d6f756e7450726f74656374656420746f2073656520686f77206d616e79206f6620796f757220746f6b656e73206172652063757272656e746c7920756e646572207468652070726f74656374696f6e20706572696f6441696f6e20526f6c653a2063616c6c657220646f6573206e6f742068617665207468652041696f6e20726f6c655472616e73666572206661696c65643a207265737472696374656420746f6b656e732065786365656473207472616e7366657220616d6f756e742e2054727920616761696e2c207573696e67206c657373207468616e20416d6f756e742052657374726963746564536166654d6174683a206d756c7469706c69636174696f6e206f766572666c6f77526f6c65733a206163636f756e7420697320746865207a65726f206164647265737345524332303a207472616e736665722066726f6d20746865207a65726f206164647265737373656e742067617320686967686572207468616e2068617264636f6465642067617320707269636545524332303a20617070726f76652066726f6d20746865207a65726f2061646472657373a165627a7a723058200ccbb80d031d78ab34d79d594320ee8fbeab94c7788753d5221a4e18104dea230029526f6c65733a206163636f756e7420697320746865207a65726f2061646472657373",
  "source": "pragma solidity ^0.5.0;\n\nimport \"./GoalZappBondingCurve.sol\";\n//import \"./GoalZappToken.sol\";\n\ncontract GoalZapp is GoalZappBondingCurve   {\n//  constructor(uint _totalSupplyArg, uint _reserveRatioArg)  \n //   GoalZappBondingCurve(_totalSupplyArg, _reserveRatioArg) public {}\n}\n\n\n\n",
  "sourcePath": "/home/zmg/Scratch/gz/GoalZappTruffle/contracts/GoalZapp.sol",
  "compiler": {
    "name": "solc",
    "version": "0.5.8+commit.23d335f2.Emscripten.clang"
  },
  "schemaVersion": "3.0.16",
  "updatedAt": "2019-09-18T20:04:10.087Z",
  "devdoc": {
    "methods": {
      "allowance(address,address)": {
        "details": "See `IERC20.allowance`."
      },
      "approve(address,uint256)": {
        "details": "See `IERC20.approve`.     * Requirements:     * - `spender` cannot be the zero address."
      },
      "balanceOf(address)": {
        "details": "See `IERC20.balanceOf`./"
      },
      "buy()": {
        "details": "Buy tokens gas ~ 77825 TODO implement maxAmount that helps prevent miner front-running"
      },
      "calculatePurchaseReturn(uint256,uint256,uint32,uint256)": {
        "details": "given a token supply, connector balance, weight and a deposit amount (in the connector token), calculates the return for a given conversion (in the main token)   * Formula: Return = _supply * ((1 + _depositAmount / _connectorBalance) ^ (_connectorWeight / 1000000) - 1)",
        "params": {
          "_connectorBalance": "total connector balance",
          "_connectorWeight": "connector weight, represented in ppm, 1-1000000",
          "_depositAmount": "deposit amount, in connector token",
          "_supply": "token total supply"
        },
        "return": "purchase return amount"
      },
      "calculateSaleReturn(uint256,uint256,uint32,uint256)": {
        "details": "given a token supply, connector balance, weight and a sell amount (in the main token), calculates the return for a given conversion (in the connector token)   * Formula: Return = _connectorBalance * (1 - (1 - _sellAmount / _supply) ^ (1 / (_connectorWeight / 1000000)))",
        "params": {
          "_connectorBalance": "total connector",
          "_connectorWeight": "constant connector Weight, represented in ppm, 1-1000000",
          "_sellAmount": "sell amount, in the token itself",
          "_supply": "token total supply"
        },
        "return": "sale return amount"
      },
      "decreaseAllowance(address,uint256)": {
        "details": "Atomically decreases the allowance granted to `spender` by the caller.     * This is an alternative to `approve` that can be used as a mitigation for problems described in `IERC20.approve`.     * Emits an `Approval` event indicating the updated allowance.     * Requirements:     * - `spender` cannot be the zero address. - `spender` must have allowance for the caller of at least `subtractedValue`."
      },
      "increaseAllowance(address,uint256)": {
        "details": "Atomically increases the allowance granted to `spender` by the caller.     * This is an alternative to `approve` that can be used as a mitigation for problems described in `IERC20.approve`.     * Emits an `Approval` event indicating the updated allowance.     * Requirements:     * - `spender` cannot be the zero address."
      },
      "isOwner()": {
        "details": "Returns true if the caller is the current owner."
      },
      "owner()": {
        "details": "Returns the address of the current owner."
      },
      "renounceOwnership()": {
        "details": "Leaves the contract without owner. It will not be possible to call `onlyOwner` functions anymore. Can only be called by the current owner.     * > Note: Renouncing ownership will leave the contract without an owner, thereby removing any functionality that is only available to the owner."
      },
      "sell(uint256)": {
        "details": "Sell tokens gas ~ 86936",
        "params": {
          "sellAmount": "Amount of tokens to withdraw TODO implement maxAmount that helps prevent miner front-running"
        }
      },
      "setGasPrice(uint256)": {
        "details": "Allows the owner to update the gas price limit",
        "params": {
          "_gasPrice": "The new gas price limit"
        }
      },
      "totalSupply()": {
        "details": "See `IERC20.totalSupply`."
      },
      "transfer(address,uint256)": {
        "details": "See `IERC20.transfer`.     * Requirements:     * - `recipient` cannot be the zero address. - the caller must have a balance of at least `amount`."
      },
      "transferFrom(address,address,uint256)": {
        "details": "See `IERC20.transferFrom`.     * Emits an `Approval` event indicating the updated allowance. This is not required by the EIP. See the note at the beginning of `ERC20`;     * Requirements: - `sender` and `recipient` cannot be the zero address. - `sender` must have a balance of at least `value`. - the caller must have allowance for `sender`'s tokens of at least `amount`."
      },
      "transferOwnership(address)": {
        "details": "Transfers ownership of the contract to a new account (`newOwner`). Can only be called by the current owner."
      }
    }
  },
  "userdoc": {
    "methods": {}
  }
}