{
  "contractName": "ProtectionPeriod",
  "abi": [
    {
      "constant": true,
      "inputs": [
        {
          "name": "",
          "type": "address"
        }
      ],
      "name": "protectedTokens",
      "outputs": [
        {
          "name": "",
          "type": "uint256"
        }
      ],
      "payable": false,
      "stateMutability": "view",
      "type": "function"
    },
    {
      "constant": true,
      "inputs": [],
      "name": "protectionPeriod",
      "outputs": [
        {
          "name": "",
          "type": "uint256"
        }
      ],
      "payable": false,
      "stateMutability": "view",
      "type": "function"
    },
    {
      "inputs": [
        {
          "name": "_protectionPeriod",
          "type": "uint256"
        }
      ],
      "payable": false,
      "stateMutability": "nonpayable",
      "type": "constructor"
    },
    {
      "anonymous": false,
      "inputs": [
        {
          "indexed": false,
          "name": "message",
          "type": "string"
        }
      ],
      "name": "TransferChecked",
      "type": "event"
    },
    {
      "anonymous": false,
      "inputs": [
        {
          "indexed": false,
          "name": "message0",
          "type": "string"
        },
        {
          "indexed": false,
          "name": "num",
          "type": "uint256"
        },
        {
          "indexed": false,
          "name": "message1",
          "type": "string"
        },
        {
          "indexed": false,
          "name": "_amount",
          "type": "uint256"
        },
        {
          "indexed": false,
          "name": "amountToSendGreaterThanZero",
          "type": "bool"
        }
      ],
      "name": "MSGSenderProtected",
      "type": "event"
    },
    {
      "anonymous": false,
      "inputs": [
        {
          "indexed": false,
          "name": "_amount",
          "type": "uint256"
        },
        {
          "indexed": false,
          "name": "_protectedTokens",
          "type": "uint256"
        },
        {
          "indexed": false,
          "name": "lessThanProtected",
          "type": "bool"
        }
      ],
      "name": "CheckRequire",
      "type": "event"
    },
    {
      "constant": false,
      "inputs": [
        {
          "name": "_address",
          "type": "address"
        },
        {
          "name": "_amount",
          "type": "uint256"
        }
      ],
      "name": "timeProtectTokens",
      "outputs": [
        {
          "name": "",
          "type": "bool"
        }
      ],
      "payable": false,
      "stateMutability": "nonpayable",
      "type": "function"
    },
    {
      "constant": false,
      "inputs": [
        {
          "name": "_address",
          "type": "address"
        },
        {
          "name": "_amount",
          "type": "uint256"
        }
      ],
      "name": "removeTokenProtection",
      "outputs": [
        {
          "name": "",
          "type": "bool"
        }
      ],
      "payable": false,
      "stateMutability": "nonpayable",
      "type": "function"
    },
    {
      "constant": true,
      "inputs": [
        {
          "name": "_address",
          "type": "address"
        }
      ],
      "name": "amountProtected",
      "outputs": [
        {
          "name": "",
          "type": "uint256"
        }
      ],
      "payable": false,
      "stateMutability": "view",
      "type": "function"
    }
  ],
  "bytecode": "0x608060405234801561001057600080fd5b5060405160208061052c8339810180604052602081101561003057600080fd5b810190808051906020019092919050505080600081905550506104d4806100586000396000f3fe608060405234801561001057600080fd5b50600436106100575760003560e01c806303d681851461005c5780632abef4fe146100b45780636e2904ec146100d2578063ad551cb714610138578063eb024e7c1461019e575b600080fd5b61009e6004803603602081101561007257600080fd5b81019080803573ffffffffffffffffffffffffffffffffffffffff1690602001909291905050506101f6565b6040518082815260200191505060405180910390f35b6100bc61020e565b6040518082815260200191505060405180910390f35b61011e600480360360408110156100e857600080fd5b81019080803573ffffffffffffffffffffffffffffffffffffffff16906020019092919080359060200190929190505050610214565b604051808215151515815260200191505060405180910390f35b6101846004803603604081101561014e57600080fd5b81019080803573ffffffffffffffffffffffffffffffffffffffff169060200190929190803590602001909291905050506102b1565b604051808215151515815260200191505060405180910390f35b6101e0600480360360208110156101b457600080fd5b81019080803573ffffffffffffffffffffffffffffffffffffffff16906020019092919050505061034e565b6040518082815260200191505060405180910390f35b60016020528060005260406000206000915090505481565b60005481565b600061026882600160008673ffffffffffffffffffffffffffffffffffffffff1673ffffffffffffffffffffffffffffffffffffffff1681526020019081526020016000205461039790919063ffffffff16565b600160008573ffffffffffffffffffffffffffffffffffffffff1673ffffffffffffffffffffffffffffffffffffffff1681526020019081526020016000208190555092915050565b600061030582600160008673ffffffffffffffffffffffffffffffffffffffff1673ffffffffffffffffffffffffffffffffffffffff1681526020019081526020016000205461042090919063ffffffff16565b600160008573ffffffffffffffffffffffffffffffffffffffff1673ffffffffffffffffffffffffffffffffffffffff1681526020019081526020016000208190555092915050565b6000600160008373ffffffffffffffffffffffffffffffffffffffff1673ffffffffffffffffffffffffffffffffffffffff168152602001908152602001600020549050919050565b60008282111561040f576040517f08c379a000000000000000000000000000000000000000000000000000000000815260040180806020018281038252601e8152602001807f536166654d6174683a207375627472616374696f6e206f766572666c6f77000081525060200191505060405180910390fd5b600082840390508091505092915050565b60008082840190508381101561049e576040517f08c379a000000000000000000000000000000000000000000000000000000000815260040180806020018281038252601b8152602001807f536166654d6174683a206164646974696f6e206f766572666c6f77000000000081525060200191505060405180910390fd5b809150509291505056fea165627a7a72305820afa853d3a801c49e352de89a33b3bf7ed31a648a2e73f050fdf425899cd32e730029",
  "source": "pragma solidity ^0.5.0;\n\nimport \"./SafeMath.sol\";\n\ncontract ProtectionPeriod {\n  using SafeMath for uint256;\n\n   uint256 public protectionPeriod;\n   mapping (address => uint256) public protectedTokens;\n   event TransferChecked(string message);\n   event MSGSenderProtected(string message0, uint256 num, string message1, uint _amount, bool amountToSendGreaterThanZero);\n   event CheckRequire(uint _amount, uint256 _protectedTokens, bool lessThanProtected);\n    constructor (uint256 _protectionPeriod) public {\n        protectionPeriod = _protectionPeriod;\n    }\n\n    modifier checkProtectedTokens (uint256 amount) {\n      emit MSGSenderProtected(\"amount protected\", amountProtected(msg.sender), \"amount to send\", amount, amountProtected(msg.sender) > 0);\n      if (amountProtected(msg.sender) > 0) {\n        emit TransferChecked(\"Transfer Checked!!! || Protected > 0\");\n        require (amount < amountProtected(msg.sender), \"your tokens are under protection period, check timeToLiftProtection() for time until you have tokens available, and/or check amountProtected to see how many of your tokens are currently under the protection period\" );\n\temit CheckRequire(amount, protectedTokens[msg.sender], amount < protectedTokens[msg.sender]);\n      }\n      _;\n    }\n\n    function timeProtectTokens(address _address, uint256 _amount) public\n      returns(bool) {\n      protectedTokens[_address] = protectedTokens[_address].add(_amount);\n     // return true;\n    }\n\n    function removeTokenProtection(address _address, uint256 _amount) public\n      returns (bool) {\n      protectedTokens[_address] = protectedTokens[_address].sub(_amount);\n      //return true;\n    }\n\n    function amountProtected (address _address) public view returns (uint256)\n     {\n     return protectedTokens[_address];\n   }\n}\n",
  "sourcePath": "/home/zmg/Scratch/gz/GoalZappTruffle/contracts/ProtectionPeriod.sol",
  "compiler": {
    "name": "solc",
    "version": "0.5.8+commit.23d335f2.Emscripten.clang"
  },
  "schemaVersion": "3.0.11",
  "updatedAt": "2019-08-08T23:08:42.237Z",
  "devdoc": {
    "methods": {}
  },
  "userdoc": {
    "methods": {}
  }
}