{
  "contractName": "ProxyFactory",
  "abi": [
    {
      "constant": true,
      "inputs": [
        {
          "name": "",
          "type": "address"
        }
      ],
      "name": "isProxy",
      "outputs": [
        {
          "name": "",
          "type": "bool"
        }
      ],
      "payable": false,
      "stateMutability": "view",
      "type": "function"
    },
    {
      "constant": true,
      "inputs": [],
      "name": "implementation",
      "outputs": [
        {
          "name": "",
          "type": "address"
        }
      ],
      "payable": false,
      "stateMutability": "view",
      "type": "function"
    },
    {
      "constant": true,
      "inputs": [
        {
          "name": "",
          "type": "address"
        },
        {
          "name": "",
          "type": "bytes32"
        }
      ],
      "name": "proxyAddresses",
      "outputs": [
        {
          "name": "",
          "type": "address"
        }
      ],
      "payable": false,
      "stateMutability": "view",
      "type": "function"
    },
    {
      "inputs": [
        {
          "name": "_implementation",
          "type": "address"
        }
      ],
      "payable": false,
      "stateMutability": "nonpayable",
      "type": "constructor"
    },
    {
      "anonymous": false,
      "inputs": [
        {
          "indexed": true,
          "name": "sender",
          "type": "address"
        },
        {
          "indexed": false,
          "name": "proxy",
          "type": "address"
        }
      ],
      "name": "Created",
      "type": "event"
    },
    {
      "constant": false,
      "inputs": [
        {
          "name": "_goalName",
          "type": "string"
        },
        {
          "name": "_amountBond",
          "type": "uint256"
        },
        {
          "name": "_amountReward",
          "type": "uint256"
        }
      ],
      "name": "build",
      "outputs": [
        {
          "name": "proxy",
          "type": "address"
        }
      ],
      "payable": false,
      "stateMutability": "nonpayable",
      "type": "function"
    },
    {
      "constant": true,
      "inputs": [
        {
          "name": "_goalName",
          "type": "string"
        }
      ],
      "name": "hashedGoalName",
      "outputs": [
        {
          "name": "",
          "type": "bytes32"
        }
      ],
      "payable": false,
      "stateMutability": "pure",
      "type": "function"
    }
  ],
  "bytecode": "0x608060405234801561001057600080fd5b50604051602080610a2e8339810180604052602081101561003057600080fd5b810190808051906020019092919050505080600260006101000a81548173ffffffffffffffffffffffffffffffffffffffff021916908373ffffffffffffffffffffffffffffffffffffffff1602179055505061099c806100926000396000f3fe608060405234801561001057600080fd5b50600436106100575760003560e01c8063216df0951461005c578063297103881461012b5780635c60da1b14610187578063aa0cbd98146101d1578063d0417e12146102e0575b600080fd5b6101156004803603602081101561007257600080fd5b810190808035906020019064010000000081111561008f57600080fd5b8201836020820111156100a157600080fd5b803590602001918460018302840111640100000000831117156100c357600080fd5b91908080601f016020809104026020016040519081016040528093929190818152602001838380828437600081840152601f19601f82011690508083019250505050505050919291929050505061036e565b6040518082815260200191505060405180910390f35b61016d6004803603602081101561014157600080fd5b81019080803573ffffffffffffffffffffffffffffffffffffffff1690602001909291905050506103e9565b604051808215151515815260200191505060405180910390f35b61018f610409565b604051808273ffffffffffffffffffffffffffffffffffffffff1673ffffffffffffffffffffffffffffffffffffffff16815260200191505060405180910390f35b61029e600480360360608110156101e757600080fd5b810190808035906020019064010000000081111561020457600080fd5b82018360208201111561021657600080fd5b8035906020019184600183028401116401000000008311171561023857600080fd5b91908080601f016020809104026020016040519081016040528093929190818152602001838380828437600081840152601f19601f820116905080830192505050505050509192919290803590602001909291908035906020019092919050505061042f565b604051808273ffffffffffffffffffffffffffffffffffffffff1673ffffffffffffffffffffffffffffffffffffffff16815260200191505060405180910390f35b61032c600480360360408110156102f657600080fd5b81019080803573ffffffffffffffffffffffffffffffffffffffff1690602001909291908035906020019092919050505061068a565b604051808273ffffffffffffffffffffffffffffffffffffffff1673ffffffffffffffffffffffffffffffffffffffff16815260200191505060405180910390f35b6000816040516020018082805190602001908083835b602083106103a75780518252602082019150602081019050602083039250610384565b6001836020036101000a038019825116818451168082178552505050505050905001915050604051602081830303815290604052805190602001209050919050565b60006020528060005260406000206000915054906101000a900460ff1681565b600260009054906101000a900473ffffffffffffffffffffffffffffffffffffffff1681565b6000600260009054906101000a900473ffffffffffffffffffffffffffffffffffffffff16600460009054906101000a900473ffffffffffffffffffffffffffffffffffffffff168484604051610485906106cc565b808573ffffffffffffffffffffffffffffffffffffffff1673ffffffffffffffffffffffffffffffffffffffff1681526020018473ffffffffffffffffffffffffffffffffffffffff1673ffffffffffffffffffffffffffffffffffffffff168152602001838152602001828152602001945050505050604051809103906000f080158015610518573d6000803e3d6000fd5b5090503373ffffffffffffffffffffffffffffffffffffffff167f587ece4cd19692c5be1a4184503d607d45542d2aca0698c0068f52e09ccb541c82604051808273ffffffffffffffffffffffffffffffffffffffff1673ffffffffffffffffffffffffffffffffffffffff16815260200191505060405180910390a260016000808373ffffffffffffffffffffffffffffffffffffffff1673ffffffffffffffffffffffffffffffffffffffff16815260200190815260200160002060006101000a81548160ff02191690831515021790555080600160003373ffffffffffffffffffffffffffffffffffffffff1673ffffffffffffffffffffffffffffffffffffffff16815260200190815260200160002060006106378761036e565b815260200190815260200160002060006101000a81548173ffffffffffffffffffffffffffffffffffffffff021916908373ffffffffffffffffffffffffffffffffffffffff1602179055509392505050565b60016020528160005260406000206020528060005260406000206000915091509054906101000a900473ffffffffffffffffffffffffffffffffffffffff1681565b610297806106da8339019056fe608060405234801561001057600080fd5b506040516080806102978339810180604052608081101561003057600080fd5b810190808051906020019092919080519060200190929190805190602001909291908051906020019092919050505061006e846100ea60201b60201c565b8273ffffffffffffffffffffffffffffffffffffffff16634386a18383836040518363ffffffff1660e01b81526004018083815260200182815260200192505050600060405180830381600087803b1580156100c957600080fd5b505af11580156100dd573d6000803e3d6000fd5b505050505050505061010e565b60006040518080610274602391396023019050604051809103902090508181555050565b6101578061011d6000396000f3fe60806040526004361061001e5760003560e01c80635c60da1b1461008b575b60006100286100e2565b9050600073ffffffffffffffffffffffffffffffffffffffff168173ffffffffffffffffffffffffffffffffffffffff16141561006457600080fd5b60405136600082376000803683855af43d806000843e8160008114610087578184f35b8184fd5b34801561009757600080fd5b506100a06100e2565b604051808273ffffffffffffffffffffffffffffffffffffffff1673ffffffffffffffffffffffffffffffffffffffff16815260200191505060405180910390f35b60008060405180806101096023913960230190506040518091039020905080549150509056fe6f72672e7a657070656c696e6f732e70726f78792e696d706c656d656e746174696f6ea165627a7a72305820fa739a9faa473cc26d5fe798bdaa27f4932ef64c8e5000bc16079e697a146fe600296f72672e7a657070656c696e6f732e70726f78792e696d706c656d656e746174696f6ea165627a7a723058203cf8d8b7773956dd2c355b02bb7a3ddb038d1aa8527aff408a6dc12067f875950029",
  "source": "pragma solidity >=0.5.0 <0.6.0;\nimport \"./UpgradeabilityProxy.sol\";\nimport \"./GoalEscrow.sol\";\n\ncontract ProxyFactory {\n  mapping(address=>bool) public isProxy;\n  mapping (address => mapping (bytes32 => address)) public  proxyAddresses;  \n  address public implementation;\n  event Created(address indexed sender, address proxy);\n  UpgradeabilityProxy upgradeabilityProxy;\n  GoalEscrow goalEscrow;\n  constructor(address _implementation /*UpgradeabilityProxy _upgradabilityProxy*/) public  {\n   implementation = _implementation; \n  // upgradeabilityProxy = _upgradeabilityProxy;\n  }\n\n  function build(string memory _goalName, uint256 _amountBond, uint256 _amountReward) public returns (address payable proxy) {\n      proxy = address(new UpgradeabilityProxy(implementation, goalEscrow, _amountBond, _amountReward));\n      emit Created(msg.sender, address(proxy));\n      isProxy[proxy] = true;\n      proxyAddresses[msg.sender][hashedGoalName(_goalName)] = proxy;\n   }\n\n  function hashedGoalName (string memory _goalName) public pure returns (bytes32) {\n    return keccak256(abi.encodePacked(_goalName));\n  }\n\n\n}\n\n\n\n\n\n",
  "sourcePath": "/home/zmg/Scratch/gz/GoalZappTruffle/contracts/ProxyFactory.sol",
  "compiler": {
    "name": "solc",
    "version": "0.5.8+commit.23d335f2.Emscripten.clang"
  },
  "schemaVersion": "3.0.16",
  "updatedAt": "2019-09-18T20:04:10.103Z",
  "devdoc": {
    "methods": {}
  },
  "userdoc": {
    "methods": {}
  }
}