{
  "contractName": "Proxied",
  "abi": [
    {
      "constant": true,
      "inputs": [],
      "name": "value",
      "outputs": [
        {
          "name": "",
          "type": "uint256"
        }
      ],
      "payable": false,
      "stateMutability": "view",
      "type": "function"
    },
    {
      "inputs": [],
      "payable": false,
      "stateMutability": "nonpayable",
      "type": "constructor"
    },
    {
      "anonymous": false,
      "inputs": [
        {
          "indexed": false,
          "name": "ov",
          "type": "uint256"
        }
      ],
      "name": "OtherValue",
      "type": "event"
    },
    {
      "anonymous": false,
      "inputs": [
        {
          "indexed": false,
          "name": "v",
          "type": "uint256"
        }
      ],
      "name": "Value",
      "type": "event"
    },
    {
      "constant": false,
      "inputs": [],
      "name": "getValue",
      "outputs": [
        {
          "name": "",
          "type": "uint256"
        }
      ],
      "payable": false,
      "stateMutability": "nonpayable",
      "type": "function"
    },
    {
      "constant": false,
      "inputs": [
        {
          "name": "_otherValue",
          "type": "uint256"
        }
      ],
      "name": "setOthervalue",
      "outputs": [],
      "payable": false,
      "stateMutability": "nonpayable",
      "type": "function"
    },
    {
      "constant": false,
      "inputs": [],
      "name": "getOtherValue",
      "outputs": [
        {
          "name": "",
          "type": "uint256"
        }
      ],
      "payable": false,
      "stateMutability": "nonpayable",
      "type": "function"
    }
  ],
  "bytecode": "0x608060405234801561001057600080fd5b506005600081905550610196806100286000396000f3fe608060405234801561001057600080fd5b506004361061004c5760003560e01c806320965255146100515780633fa4f2451461006f5780637b2b753a1461008d578063aaad6fb9146100ab575b600080fd5b6100596100d9565b6040518082815260200191505060405180910390f35b610077610117565b6040518082815260200191505060405180910390f35b61009561011d565b6040518082815260200191505060405180910390f35b6100d7600480360360208110156100c157600080fd5b8101908080359060200190929190505050610160565b005b60007f2a27502c345a4cd966daa061d5537f54cd60d2d20b73680b3bf195c91e806a4b6000546040518082815260200191505060405180910390a190565b60005481565b60007fb81aa5bdc8861dbecdcfc1c95527abb9c0bde0bb9c309e037b1304c7e123aad06001546040518082815260200191505060405180910390a1600154905090565b806001819055505056fea165627a7a723058205298888f85e6e06c80e5613cdbeb585eb4662a6b508f18c9b86b84820804e9930029",
  "source": "pragma solidity >=0.5.0 <0.6.0;\n\ncontract Proxied {\n    uint256 public value;\n    uint256 otherValue;    \n    event OtherValue (uint256 ov);\n    event Value (uint256 v);\n\n\n    constructor () public {\n       value =5; \n    }\n\n    function getValue() public returns (uint256) {\n      emit Value (value); \n    }\n\n    function setOthervalue(uint256 _otherValue) public  {\n      otherValue = _otherValue;\n    }\n\n    function getOtherValue() public  returns (uint256) {\n      emit OtherValue(otherValue); \n      return otherValue;\n    } \n\n}\n",
  "sourcePath": "/home/zmg/Scratch/gz/GoalZappTruffle/contracts/Proxied.sol",
  "compiler": {
    "name": "solc",
    "version": "0.5.8+commit.23d335f2.Emscripten.clang"
  },
  "schemaVersion": "3.0.16",
  "updatedAt": "2019-09-18T20:04:07.356Z",
  "devdoc": {
    "methods": {}
  },
  "userdoc": {
    "methods": {}
  }
}