{
  "contractName": "Restricted",
  "abi": [
    {
      "anonymous": false,
      "inputs": [
        {
          "indexed": false,
          "name": "amount",
          "type": "uint256"
        }
      ],
      "name": "Amount",
      "type": "event"
    },
    {
      "anonymous": false,
      "inputs": [
        {
          "indexed": false,
          "name": "restrictedTokenAmount",
          "type": "uint256"
        }
      ],
      "name": "RestrictedTokens",
      "type": "event"
    },
    {
      "anonymous": false,
      "inputs": [
        {
          "indexed": false,
          "name": "exceedsRestrictedAmount",
          "type": "uint256"
        }
      ],
      "name": "ExceedsRestricted",
      "type": "event"
    },
    {
      "constant": false,
      "inputs": [
        {
          "name": "_escrowAddress",
          "type": "address"
        }
      ],
      "name": "setInitializedEscrow",
      "outputs": [
        {
          "name": "",
          "type": "bool"
        }
      ],
      "payable": false,
      "stateMutability": "nonpayable",
      "type": "function"
    },
    {
      "constant": false,
      "inputs": [
        {
          "name": "_tokenMintRecipient",
          "type": "address"
        },
        {
          "name": "_amount",
          "type": "uint256"
        }
      ],
      "name": "setRestrictedTokens",
      "outputs": [],
      "payable": false,
      "stateMutability": "nonpayable",
      "type": "function"
    },
    {
      "constant": false,
      "inputs": [
        {
          "name": "_tokenDepositor",
          "type": "address"
        },
        {
          "name": "_amount",
          "type": "uint256"
        }
      ],
      "name": "unsetRestrictedTokens",
      "outputs": [],
      "payable": false,
      "stateMutability": "nonpayable",
      "type": "function"
    }
  ],
  "bytecode": "0x608060405234801561001057600080fd5b5061042e806100206000396000f3fe608060405234801561001057600080fd5b50600436106100415760003560e01c806303592e741461004657806365c3ad4214610094578063c5581db5146100e2575b600080fd5b6100926004803603604081101561005c57600080fd5b81019080803573ffffffffffffffffffffffffffffffffffffffff1690602001909291908035906020019092919050505061013e565b005b6100e0600480360360408110156100aa57600080fd5b81019080803573ffffffffffffffffffffffffffffffffffffffff169060200190929190803590602001909291905050506101d5565b005b610124600480360360208110156100f857600080fd5b81019080803573ffffffffffffffffffffffffffffffffffffffff16906020019092919050505061026c565b604051808215151515815260200191505060405180910390f35b61018f816000808573ffffffffffffffffffffffffffffffffffffffff1673ffffffffffffffffffffffffffffffffffffffff168152602001908152602001600020546102f190919063ffffffff16565b6000808473ffffffffffffffffffffffffffffffffffffffff1673ffffffffffffffffffffffffffffffffffffffff168152602001908152602001600020819055505050565b610226816000808573ffffffffffffffffffffffffffffffffffffffff1673ffffffffffffffffffffffffffffffffffffffff1681526020019081526020016000205461037990919063ffffffff16565b6000808473ffffffffffffffffffffffffffffffffffffffff1673ffffffffffffffffffffffffffffffffffffffff168152602001908152602001600020819055505050565b600081600160008473ffffffffffffffffffffffffffffffffffffffff1673ffffffffffffffffffffffffffffffffffffffff16815260200190815260200160002060006101000a81548173ffffffffffffffffffffffffffffffffffffffff021916908373ffffffffffffffffffffffffffffffffffffffff160217905550919050565b60008082840190508381101561036f576040517f08c379a000000000000000000000000000000000000000000000000000000000815260040180806020018281038252601b8152602001807f536166654d6174683a206164646974696f6e206f766572666c6f77000000000081525060200191505060405180910390fd5b8091505092915050565b6000828211156103f1576040517f08c379a000000000000000000000000000000000000000000000000000000000815260040180806020018281038252601e8152602001807f536166654d6174683a207375627472616374696f6e206f766572666c6f77000081525060200191505060405180910390fd5b60008284039050809150509291505056fea165627a7a7230582044f1a465313576431b5aaab353cbcfbb24e2921b02740de82832ea6c42340b6d0029",
  "source": "pragma solidity ^0.5.0; \n\nimport \"./SafeMath.sol\";\n\n\ncontract Restricted {\n  using SafeMath for uint256;\n  \n  mapping (address => uint256) restrictedTokens;\n  mapping (address => address) initializedEscrows;\n  event Amount(uint256 amount);\n  event RestrictedTokens(uint256 restrictedTokenAmount);\n  event ExceedsRestricted(uint256 exceedsRestrictedAmount);\n\n  modifier checkRestrictedTokens (uint amount, address recipient) {\n    if (restrictedTokens[msg.sender] > amount && recipient != initializedEscrows[recipient]) {\n      emit Amount(amount);\n      emit RestrictedTokens(restrictedTokens[msg.sender]);\n      emit ExceedsRestricted(amount.sub(restrictedTokens[msg.sender]));\n      require(amount <= restrictedTokens[msg.sender], \"Transfer failed: restricted tokens exceeds transfer amount. Try again, using less than Amount Restricted\");\n    }\n   _; \n  }\n\n  function setInitializedEscrow(address _escrowAddress) external  returns (bool) {\n    initializedEscrows[_escrowAddress] = _escrowAddress;\n  }\n\n  function setRestrictedTokens (address _tokenMintRecipient, uint256 _amount) external {\n    restrictedTokens[_tokenMintRecipient] = restrictedTokens[_tokenMintRecipient].add(_amount);\n  }\n\n  function unsetRestrictedTokens (address _tokenDepositor, uint _amount) external {\n    restrictedTokens[_tokenDepositor] = restrictedTokens[_tokenDepositor].sub(_amount);\n  } \n}\n\n\n\n\n\n\n\n\n\n\n",
  "sourcePath": "/home/zmg/Scratch/gz/GoalZappTruffle/contracts/Restricted.sol",
  "compiler": {
    "name": "solc",
    "version": "0.5.8+commit.23d335f2.Emscripten.clang"
  },
  "schemaVersion": "3.0.15",
  "updatedAt": "2019-09-09T19:32:36.292Z",
  "devdoc": {
    "methods": {}
  },
  "userdoc": {
    "methods": {}
  }
}