{
  "contractName": "TokenProtection",
  "abi": [
    {
      "constant": true,
      "inputs": [
        {
          "name": "",
          "type": "address"
        }
      ],
      "name": "protectedTokens",
      "outputs": [
        {
          "name": "",
          "type": "uint256"
        }
      ],
      "payable": false,
      "stateMutability": "view",
      "type": "function"
    },
    {
      "constant": true,
      "inputs": [],
      "name": "protectionPeriod",
      "outputs": [
        {
          "name": "",
          "type": "uint256"
        }
      ],
      "payable": false,
      "stateMutability": "view",
      "type": "function"
    },
    {
      "constant": false,
      "inputs": [
        {
          "name": "account",
          "type": "address"
        }
      ],
      "name": "_addEscrowRole",
      "outputs": [],
      "payable": false,
      "stateMutability": "nonpayable",
      "type": "function"
    },
    {
      "constant": true,
      "inputs": [
        {
          "name": "account",
          "type": "address"
        }
      ],
      "name": "isAionAddress",
      "outputs": [
        {
          "name": "",
          "type": "bool"
        }
      ],
      "payable": false,
      "stateMutability": "view",
      "type": "function"
    },
    {
      "constant": true,
      "inputs": [
        {
          "name": "account",
          "type": "address"
        }
      ],
      "name": "isEscrow",
      "outputs": [
        {
          "name": "",
          "type": "bool"
        }
      ],
      "payable": false,
      "stateMutability": "view",
      "type": "function"
    },
    {
      "inputs": [
        {
          "name": "_protectionPeriod",
          "type": "uint256"
        }
      ],
      "payable": false,
      "stateMutability": "nonpayable",
      "type": "constructor"
    },
    {
      "anonymous": false,
      "inputs": [
        {
          "indexed": false,
          "name": "message",
          "type": "string"
        }
      ],
      "name": "TransferChecked",
      "type": "event"
    },
    {
      "anonymous": false,
      "inputs": [
        {
          "indexed": false,
          "name": "message0",
          "type": "string"
        },
        {
          "indexed": false,
          "name": "num",
          "type": "uint256"
        },
        {
          "indexed": false,
          "name": "message1",
          "type": "string"
        },
        {
          "indexed": false,
          "name": "_amount",
          "type": "uint256"
        },
        {
          "indexed": false,
          "name": "amountToSendGreaterThanZero",
          "type": "bool"
        }
      ],
      "name": "MSGSenderProtected",
      "type": "event"
    },
    {
      "anonymous": false,
      "inputs": [
        {
          "indexed": false,
          "name": "_amount",
          "type": "uint256"
        },
        {
          "indexed": false,
          "name": "_protectedTokens",
          "type": "uint256"
        },
        {
          "indexed": false,
          "name": "lessThanProtected",
          "type": "bool"
        }
      ],
      "name": "CheckRequire",
      "type": "event"
    },
    {
      "anonymous": false,
      "inputs": [
        {
          "indexed": true,
          "name": "aionAddr",
          "type": "address"
        }
      ],
      "name": "AionAddressAdded",
      "type": "event"
    },
    {
      "anonymous": false,
      "inputs": [
        {
          "indexed": true,
          "name": "account",
          "type": "address"
        }
      ],
      "name": "EscrowRoleAdded",
      "type": "event"
    },
    {
      "constant": false,
      "inputs": [
        {
          "name": "_address",
          "type": "address"
        },
        {
          "name": "_amount",
          "type": "uint256"
        }
      ],
      "name": "timeProtectTokens",
      "outputs": [
        {
          "name": "",
          "type": "bool"
        }
      ],
      "payable": false,
      "stateMutability": "nonpayable",
      "type": "function"
    },
    {
      "constant": false,
      "inputs": [
        {
          "name": "_address",
          "type": "address"
        },
        {
          "name": "_amount",
          "type": "uint256"
        }
      ],
      "name": "removeTokenProtection",
      "outputs": [
        {
          "name": "",
          "type": "bool"
        }
      ],
      "payable": false,
      "stateMutability": "nonpayable",
      "type": "function"
    },
    {
      "constant": true,
      "inputs": [
        {
          "name": "_address",
          "type": "address"
        }
      ],
      "name": "amountProtected",
      "outputs": [
        {
          "name": "",
          "type": "uint256"
        }
      ],
      "payable": false,
      "stateMutability": "view",
      "type": "function"
    },
    {
      "constant": false,
      "inputs": [
        {
          "name": "_escrowAddress",
          "type": "address"
        }
      ],
      "name": "setEscrowAddress",
      "outputs": [
        {
          "name": "",
          "type": "bool"
        }
      ],
      "payable": false,
      "stateMutability": "nonpayable",
      "type": "function"
    }
  ],
  "bytecode": "0x608060405234801561001057600080fd5b50604051602080610dbc8339810180604052602081101561003057600080fd5b810190808051906020019092919050505061004f61005c60201b60201c565b80600381905550506102a0565b61008873fcfb45679539667f7ed55fa59a15c8cad73d9a4e60026100e160201b61076d1790919060201c565b73fcfb45679539667f7ed55fa59a15c8cad73d9a4e73ffffffffffffffffffffffffffffffffffffffff167f8581e161429a3f57c3c981c8849cb3a370d288de12e549408673a49caca45dd060405160405180910390a2565b6100f182826101c260201b60201c565b15610164576040517f08c379a000000000000000000000000000000000000000000000000000000000815260040180806020018281038252601f8152602001807f526f6c65733a206163636f756e7420616c72656164792068617320726f6c650081525060200191505060405180910390fd5b60018260000160008373ffffffffffffffffffffffffffffffffffffffff1673ffffffffffffffffffffffffffffffffffffffff16815260200190815260200160002060006101000a81548160ff0219169083151502179055505050565b60008073ffffffffffffffffffffffffffffffffffffffff168273ffffffffffffffffffffffffffffffffffffffff161415610249576040517f08c379a0000000000000000000000000000000000000000000000000000000008152600401808060200182810382526022815260200180610d9a6022913960400191505060405180910390fd5b8260000160008373ffffffffffffffffffffffffffffffffffffffff1673ffffffffffffffffffffffffffffffffffffffff16815260200190815260200160002060009054906101000a900460ff16905092915050565b610aeb806102af6000396000f3fe608060405234801561001057600080fd5b50600436106100935760003560e01c8063769a8b9a11610066578063769a8b9a146101b8578063ad551cb714610214578063b166a09f1461027a578063ddeb63b5146102d6578063eb024e7c1461033257610093565b806303d68185146100985780632abef4fe146100f05780635add51861461010e5780636e2904ec14610152575b600080fd5b6100da600480360360208110156100ae57600080fd5b81019080803573ffffffffffffffffffffffffffffffffffffffff16906020019092919050505061038a565b6040518082815260200191505060405180910390f35b6100f86103a2565b6040518082815260200191505060405180910390f35b6101506004803603602081101561012457600080fd5b81019080803573ffffffffffffffffffffffffffffffffffffffff1690602001909291905050506103a8565b005b61019e6004803603604081101561016857600080fd5b81019080803573ffffffffffffffffffffffffffffffffffffffff1690602001909291908035906020019092919050505061049e565b604051808215151515815260200191505060405180910390f35b6101fa600480360360208110156101ce57600080fd5b81019080803573ffffffffffffffffffffffffffffffffffffffff1690602001909291905050506105a0565b604051808215151515815260200191505060405180910390f35b6102606004803603604081101561022a57600080fd5b81019080803573ffffffffffffffffffffffffffffffffffffffff169060200190929190803590602001909291905050506105bd565b604051808215151515815260200191505060405180910390f35b6102bc6004803603602081101561029057600080fd5b81019080803573ffffffffffffffffffffffffffffffffffffffff1690602001909291905050506106bf565b604051808215151515815260200191505060405180910390f35b610318600480360360208110156102ec57600080fd5b81019080803573ffffffffffffffffffffffffffffffffffffffff1690602001909291905050506106dc565b604051808215151515815260200191505060405180910390f35b6103746004803603602081101561034857600080fd5b81019080803573ffffffffffffffffffffffffffffffffffffffff169060200190929190505050610724565b6040518082815260200191505060405180910390f35b60046020528060005260406000206000915090505481565b60035481565b6000809054906101000a900460ff161561042a576040517f08c379a00000000000000000000000000000000000000000000000000000000081526004018080602001828103825260178152602001807f457363726f7720726f6c6520616c72656164792073657400000000000000000081525060200191505060405180910390fd5b61043e81600161076d90919063ffffffff16565b8073ffffffffffffffffffffffffffffffffffffffff167fcff6116c063f9dc68129fcb58fcfe99bbbaa33d9ad777e285d7f08bf174d715260405160405180910390a260016000806101000a81548160ff02191690831515021790555050565b60006104b06104ab610848565b6105a0565b610505576040517f08c379a000000000000000000000000000000000000000000000000000000000815260040180806020018281038252602d815260200180610a71602d913960400191505060405180910390fd5b61055782600460008673ffffffffffffffffffffffffffffffffffffffff1673ffffffffffffffffffffffffffffffffffffffff1681526020019081526020016000205461085090919063ffffffff16565b600460008573ffffffffffffffffffffffffffffffffffffffff1673ffffffffffffffffffffffffffffffffffffffff1681526020019081526020016000208190555092915050565b60006105b68260026108d990919063ffffffff16565b9050919050565b60006105cf6105ca610848565b6106bf565b610624576040517f08c379a0000000000000000000000000000000000000000000000000000000008152600401808060200182810382526031815260200180610a406031913960400191505060405180910390fd5b61067682600460008673ffffffffffffffffffffffffffffffffffffffff1673ffffffffffffffffffffffffffffffffffffffff168152602001908152602001600020546109b790919063ffffffff16565b600460008573ffffffffffffffffffffffffffffffffffffffff1673ffffffffffffffffffffffffffffffffffffffff1681526020019081526020016000208190555092915050565b60006106d58260016108d990919063ffffffff16565b9050919050565b600081600560006101000a81548173ffffffffffffffffffffffffffffffffffffffff021916908373ffffffffffffffffffffffffffffffffffffffff160217905550919050565b6000600460008373ffffffffffffffffffffffffffffffffffffffff1673ffffffffffffffffffffffffffffffffffffffff168152602001908152602001600020549050919050565b61077782826108d9565b156107ea576040517f08c379a000000000000000000000000000000000000000000000000000000000815260040180806020018281038252601f8152602001807f526f6c65733a206163636f756e7420616c72656164792068617320726f6c650081525060200191505060405180910390fd5b60018260000160008373ffffffffffffffffffffffffffffffffffffffff1673ffffffffffffffffffffffffffffffffffffffff16815260200190815260200160002060006101000a81548160ff0219169083151502179055505050565b600033905090565b6000828211156108c8576040517f08c379a000000000000000000000000000000000000000000000000000000000815260040180806020018281038252601e8152602001807f536166654d6174683a207375627472616374696f6e206f766572666c6f77000081525060200191505060405180910390fd5b600082840390508091505092915050565b60008073ffffffffffffffffffffffffffffffffffffffff168273ffffffffffffffffffffffffffffffffffffffff161415610960576040517f08c379a0000000000000000000000000000000000000000000000000000000008152600401808060200182810382526022815260200180610a9e6022913960400191505060405180910390fd5b8260000160008373ffffffffffffffffffffffffffffffffffffffff1673ffffffffffffffffffffffffffffffffffffffff16815260200190815260200160002060009054906101000a900460ff16905092915050565b600080828401905083811015610a35576040517f08c379a000000000000000000000000000000000000000000000000000000000815260040180806020018281038252601b8152602001807f536166654d6174683a206164646974696f6e206f766572666c6f77000000000081525060200191505060405180910390fd5b809150509291505056fe457363726f7720526f6c653a2063616c6c657220646f6573206e6f7420686176652074686520457363726f7720726f6c6541696f6e20526f6c653a2063616c6c657220646f6573206e6f742068617665207468652041696f6e20726f6c65526f6c65733a206163636f756e7420697320746865207a65726f2061646472657373a165627a7a723058206484d465f78cdd2eaed5900c98f33c37ad517a5c79f7871b57ba026ac8bfc2570029526f6c65733a206163636f756e7420697320746865207a65726f2061646472657373",
  "source": "pragma solidity ^0.5.0;\n\nimport \"./SafeMath.sol\";\nimport \"./EscrowRole.sol\";\nimport \"./AionRole.sol\";\n\ncontract TokenProtection is EscrowRole, AionRole{\n  using SafeMath for uint256;\n\n   uint256 public protectionPeriod;\n   mapping (address => uint256) public protectedTokens;\n   address escrowAddress;\n   event TransferChecked(string message);\n   event MSGSenderProtected(string message0, uint256 num, string message1, uint _amount, bool amountToSendGreaterThanZero);\n   event CheckRequire(uint _amount, uint256 _protectedTokens, bool lessThanProtected);\n    constructor (uint256 _protectionPeriod) public {\n        protectionPeriod = _protectionPeriod;\n    }\n\n    modifier checkProtectedTokens (uint256 amount) {\n      //emit MSGSenderProtected(\"amount protected\", amountProtected(msg.sender), \"amount to send\", amount, amountProtected(msg.sender) > 0);\n      if (protectedTokens[msg.sender] > 0) {\n       // emit TransferChecked(\"Transfer Checked!!! || Protected > 0\");\n        require (amount < protectedTokens[msg.sender], \"your tokens are under protection period, check timeToLiftProtection() for time until you have tokens available, and/or check amountProtected to see how many of your tokens are currently under the protection period\" );\n\t//emit CheckRequire(amount, protectedTokens[msg.sender], amount < protectedTokens[msg.sender]);\n      }\n      _;\n    }\n\n\n    function timeProtectTokens(address _address, uint256 _amount) public onlyEscrowRole \n      returns(bool) {\n      protectedTokens[_address] = protectedTokens[_address].add(_amount);\n     // return true;\n    }\n\n    function removeTokenProtection(address _address, uint256 _amount) onlyAionRole public\n      returns (bool) {\n      protectedTokens[_address] = protectedTokens[_address].sub(_amount);\n      //return true;\n    }\n\n    function amountProtected (address _address) public view returns (uint256)\n     {\n     return protectedTokens[_address];\n   }\n\n    function setEscrowAddress(address _escrowAddress) public returns (bool) {\n      escrowAddress = _escrowAddress;\n    }\n\n}\n",
  "sourcePath": "/home/zmg/Scratch/gz/GoalZappTruffle/contracts/TokenProtection.sol",
  "compiler": {
    "name": "solc",
    "version": "0.5.8+commit.23d335f2.Emscripten.clang"
  },
  "schemaVersion": "3.0.15",
  "updatedAt": "2019-09-12T03:28:08.276Z",
  "devdoc": {
    "methods": {}
  },
  "userdoc": {
    "methods": {}
  }
}