{
  "contractName": "UpgradeabilityProxy",
  "abi": [
    {
      "inputs": [
        {
          "name": "_implementation",
          "type": "address"
        },
        {
          "name": "_goalEscrow",
          "type": "address"
        },
        {
          "name": "_amountBond",
          "type": "uint256"
        },
        {
          "name": "_amountReward",
          "type": "uint256"
        }
      ],
      "payable": false,
      "stateMutability": "nonpayable",
      "type": "constructor"
    },
    {
      "payable": true,
      "stateMutability": "payable",
      "type": "fallback"
    },
    {
      "anonymous": false,
      "inputs": [
        {
          "indexed": true,
          "name": "implementation",
          "type": "address"
        }
      ],
      "name": "Upgraded",
      "type": "event"
    },
    {
      "constant": true,
      "inputs": [],
      "name": "implementation",
      "outputs": [
        {
          "name": "impl",
          "type": "address"
        }
      ],
      "payable": false,
      "stateMutability": "view",
      "type": "function"
    }
  ],
  "bytecode": "0x608060405234801561001057600080fd5b506040516080806102978339810180604052608081101561003057600080fd5b810190808051906020019092919080519060200190929190805190602001909291908051906020019092919050505061006e846100ea60201b60201c565b8273ffffffffffffffffffffffffffffffffffffffff16634386a18383836040518363ffffffff1660e01b81526004018083815260200182815260200192505050600060405180830381600087803b1580156100c957600080fd5b505af11580156100dd573d6000803e3d6000fd5b505050505050505061010e565b60006040518080610274602391396023019050604051809103902090508181555050565b6101578061011d6000396000f3fe60806040526004361061001e5760003560e01c80635c60da1b1461008b575b60006100286100e2565b9050600073ffffffffffffffffffffffffffffffffffffffff168173ffffffffffffffffffffffffffffffffffffffff16141561006457600080fd5b60405136600082376000803683855af43d806000843e8160008114610087578184f35b8184fd5b34801561009757600080fd5b506100a06100e2565b604051808273ffffffffffffffffffffffffffffffffffffffff1673ffffffffffffffffffffffffffffffffffffffff16815260200191505060405180910390f35b60008060405180806101096023913960230190506040518091039020905080549150509056fe6f72672e7a657070656c696e6f732e70726f78792e696d706c656d656e746174696f6ea165627a7a72305820fa739a9faa473cc26d5fe798bdaa27f4932ef64c8e5000bc16079e697a146fe600296f72672e7a657070656c696e6f732e70726f78792e696d706c656d656e746174696f6e",
  "source": "pragma solidity >=0.5.0 <0.6.0;\nimport \"./Proxy.sol\";\nimport \"./GoalEscrow.sol\";\n/**\n * @title UpgradeabilityProxy\n * @dev This contract represents a proxy where the implementation address to which it will delegate can be upgraded\n */\ncontract UpgradeabilityProxy is Proxy {\n  /**\n   * @dev This event will be emitted every time the implementation gets upgraded\n   * @param implementation representing the address of the upgraded implementation\n   */\n  event Upgraded(address indexed implementation);\n\n  // Storage position of the address of the current implementation\n  bytes32 private constant implementationPosition = keccak256(\"org.zeppelinos.proxy.implementation\");\n\n  /**\n   * @dev Constructor function\n   */\n  constructor(address _implementation, GoalEscrow _goalEscrow, uint256 _amountBond, uint256 _amountReward) public {\n    setImplementation(_implementation); \n    _goalEscrow.newGoalInit(_amountBond, _amountReward);    \n  }\n\n  /**\n   * @dev Tells the address of the current implementation\n   * @return address of the current implementation\n   */\n  function implementation() public view returns (address impl) {\n    bytes32 position = implementationPosition;\n    assembly {\n      impl := sload(position)\n    }\n  }\n\n  /**\n   * @dev Sets the address of the current implementation\n   * @param newImplementation address representing the new implementation to be set\n   */\n  function setImplementation(address newImplementation) internal {\n    bytes32 position = implementationPosition;\n    assembly {\n      sstore(position, newImplementation)\n    }\n  }\n\n  /**\n   * @dev Upgrades the implementation address\n   * @param newImplementation representing the address of the new implementation to be set\n   */\n  function _upgradeTo(address newImplementation) internal {\n    address currentImplementation = implementation();\n    require(currentImplementation != newImplementation);\n    setImplementation(newImplementation);\n    emit Upgraded(newImplementation);\n  }\n}\n\n",
  "sourcePath": "/home/zmg/Scratch/gz/GoalZappTruffle/contracts/UpgradeabilityProxy.sol",
  "compiler": {
    "name": "solc",
    "version": "0.5.8+commit.23d335f2.Emscripten.clang"
  },
  "schemaVersion": "3.0.16",
  "updatedAt": "2019-09-18T20:04:07.378Z",
  "devdoc": {
    "details": "This contract represents a proxy where the implementation address to which it will delegate can be upgraded",
    "methods": {
      "constructor": {
        "details": "Constructor function"
      },
      "implementation()": {
        "details": "Tells the address of the current implementation",
        "return": "address of the current implementation"
      }
    },
    "title": "UpgradeabilityProxy"
  },
  "userdoc": {
    "methods": {}
  }
}